{
  "contractName": "PapaPay",
  "abi": [
    {
      "anonymous": false,
      "inputs": [
        {
          "indexed": false,
          "internalType": "uint256",
          "name": "papaCount",
          "type": "uint256"
        },
        {
          "indexed": false,
          "internalType": "bytes32",
          "name": "papaDesc",
          "type": "bytes32"
        },
        {
          "indexed": false,
          "internalType": "uint256",
          "name": "papaPrice",
          "type": "uint256"
        },
        {
          "indexed": false,
          "internalType": "uint256",
          "name": "papaLessons",
          "type": "uint256"
        },
        {
          "indexed": false,
          "internalType": "uint256",
          "name": "papaLock",
          "type": "uint256"
        },
        {
          "indexed": false,
          "internalType": "address",
          "name": "papaTutor",
          "type": "address"
        },
        {
          "indexed": false,
          "internalType": "address",
          "name": "papaStudent",
          "type": "address"
        }
      ],
      "name": "CourseCreated",
      "type": "event"
    },
    {
      "anonymous": false,
      "inputs": [
        {
          "indexed": false,
          "internalType": "uint256",
          "name": "papaCourse",
          "type": "uint256"
        },
        {
          "indexed": false,
          "internalType": "address",
          "name": "papaStudent",
          "type": "address"
        },
        {
          "indexed": false,
          "internalType": "uint256",
          "name": "papaBalance",
          "type": "uint256"
        }
      ],
      "name": "CourseDeposit",
      "type": "event"
    },
    {
      "anonymous": false,
      "inputs": [
        {
          "indexed": false,
          "internalType": "uint256",
          "name": "papaCourse",
          "type": "uint256"
        },
        {
          "indexed": false,
          "internalType": "address",
          "name": "papaStudent",
          "type": "address"
        },
        {
          "indexed": false,
          "internalType": "uint256",
          "name": "papaStudentSign",
          "type": "uint256"
        }
      ],
      "name": "LessonAttended",
      "type": "event"
    },
    {
      "anonymous": false,
      "inputs": [
        {
          "indexed": false,
          "internalType": "uint256",
          "name": "papaCourse",
          "type": "uint256"
        },
        {
          "indexed": false,
          "internalType": "address",
          "name": "papaTutor",
          "type": "address"
        },
        {
          "indexed": false,
          "internalType": "uint256",
          "name": "papaTutorSign",
          "type": "uint256"
        }
      ],
      "name": "LessonStarted",
      "type": "event"
    },
    {
      "anonymous": false,
      "inputs": [
        {
          "indexed": false,
          "internalType": "uint256",
          "name": "papaCourse",
          "type": "uint256"
        },
        {
          "indexed": false,
          "internalType": "address",
          "name": "papaStudent",
          "type": "address"
        },
        {
          "indexed": false,
          "internalType": "uint256",
          "name": "recovered",
          "type": "uint256"
        }
      ],
      "name": "StudentRecover",
      "type": "event"
    },
    {
      "anonymous": false,
      "inputs": [
        {
          "indexed": false,
          "internalType": "uint256",
          "name": "papaCourse",
          "type": "uint256"
        },
        {
          "indexed": false,
          "internalType": "address",
          "name": "papaTutor",
          "type": "address"
        },
        {
          "indexed": false,
          "internalType": "uint256",
          "name": "withdrawn",
          "type": "uint256"
        }
      ],
      "name": "TutorWithdraw",
      "type": "event"
    },
    {
      "stateMutability": "nonpayable",
      "type": "fallback"
    },
    {
      "inputs": [],
      "name": "papaCount",
      "outputs": [
        {
          "internalType": "uint256",
          "name": "",
          "type": "uint256"
        }
      ],
      "stateMutability": "view",
      "type": "function",
      "constant": true
    },
    {
      "inputs": [
        {
          "internalType": "uint256",
          "name": "",
          "type": "uint256"
        }
      ],
      "name": "papas",
      "outputs": [
        {
          "internalType": "bytes32",
          "name": "papaDesc",
          "type": "bytes32"
        },
        {
          "internalType": "uint256",
          "name": "papaCourse",
          "type": "uint256"
        },
        {
          "internalType": "uint256",
          "name": "papaPrice",
          "type": "uint256"
        },
        {
          "internalType": "uint256",
          "name": "papaLessons",
          "type": "uint256"
        },
        {
          "internalType": "uint256",
          "name": "papaLock",
          "type": "uint256"
        },
        {
          "internalType": "uint256",
          "name": "papaTS",
          "type": "uint256"
        },
        {
          "internalType": "uint256",
          "name": "papaBalance",
          "type": "uint256"
        },
        {
          "internalType": "address",
          "name": "papaTutor",
          "type": "address"
        },
        {
          "internalType": "uint256",
          "name": "papaTutorSign",
          "type": "uint256"
        },
        {
          "internalType": "address",
          "name": "papaStudent",
          "type": "address"
        },
        {
          "internalType": "uint256",
          "name": "papaStudentSign",
          "type": "uint256"
        },
        {
          "internalType": "uint256",
          "name": "papaWithdrew",
          "type": "uint256"
        }
      ],
      "stateMutability": "view",
      "type": "function",
      "constant": true
    },
    {
      "inputs": [
        {
          "internalType": "bytes32",
          "name": "_papaDesc",
          "type": "bytes32"
        },
        {
          "internalType": "uint256",
          "name": "_papaPrice",
          "type": "uint256"
        },
        {
          "internalType": "uint256",
          "name": "_papaLessons",
          "type": "uint256"
        },
        {
          "internalType": "uint256",
          "name": "_papaLock",
          "type": "uint256"
        },
        {
          "internalType": "address",
          "name": "_papaStudent",
          "type": "address"
        }
      ],
      "name": "papaCreate",
      "outputs": [],
      "stateMutability": "nonpayable",
      "type": "function"
    },
    {
      "inputs": [
        {
          "internalType": "uint256",
          "name": "_papaCourse",
          "type": "uint256"
        }
      ],
      "name": "papaApprove",
      "outputs": [],
      "stateMutability": "payable",
      "type": "function",
      "payable": true
    },
    {
      "inputs": [
        {
          "internalType": "uint256",
          "name": "_papaCourse",
          "type": "uint256"
        }
      ],
      "name": "papaInitLesson",
      "outputs": [],
      "stateMutability": "nonpayable",
      "type": "function"
    },
    {
      "inputs": [
        {
          "internalType": "uint256",
          "name": "_papaCourse",
          "type": "uint256"
        }
      ],
      "name": "papaAttendLesson",
      "outputs": [],
      "stateMutability": "nonpayable",
      "type": "function"
    },
    {
      "inputs": [
        {
          "internalType": "uint256",
          "name": "_papaCourse",
          "type": "uint256"
        }
      ],
      "name": "papaWithdraw",
      "outputs": [],
      "stateMutability": "nonpayable",
      "type": "function"
    },
    {
      "inputs": [
        {
          "internalType": "uint256",
          "name": "_papaCourse",
          "type": "uint256"
        }
      ],
      "name": "papaRecover",
      "outputs": [],
      "stateMutability": "nonpayable",
      "type": "function"
    }
  ],
  "bytecode": "0x608060405234801561001057600080fd5b5060016000819055506123cc806100286000396000f3fe60806040526004361061007f5760003560e01c8063980d38361161004e578063980d383614610126578063f062ba101461016e578063fc02ea3c14610199578063ffbddbee146101c257610080565b806305f017901461008f57806349f8ce12146100b85780635dce1313146100e157806389fe935e1461010a57610080565b5b34801561008c57600080fd5b50005b34801561009b57600080fd5b506100b660048036038101906100b19190611628565b6101eb565b005b3480156100c457600080fd5b506100df60048036038101906100da91906116a3565b6104f9565b005b3480156100ed57600080fd5b50610108600480360381019061010391906116a3565b61075c565b005b610124600480360381019061011f91906116a3565b610b55565b005b34801561013257600080fd5b5061014d600480360381019061014891906116a3565b610dbe565b6040516101659c9b9a999897969594939291906116fd565b60405180910390f35b34801561017a57600080fd5b50610183610e5e565b60405161019091906117b7565b60405180910390f35b3480156101a557600080fd5b506101c060048036038101906101bb91906116a3565b610e64565b005b3480156101ce57600080fd5b506101e960048036038101906101e491906116a3565b61110f565b005b808073ffffffffffffffffffffffffffffffffffffffff163373ffffffffffffffffffffffffffffffffffffffff16141561025b576040517f08c379a000000000000000000000000000000000000000000000000000000000815260040161025290611855565b60405180910390fd5b846000811161029f576040517f08c379a0000000000000000000000000000000000000000000000000000000008152600401610296906118c1565b60405180910390fd5b84600081116102e3576040517f08c379a00000000000000000000000000000000000000000000000000000000081526004016102da9061192d565b60405180910390fd5b83600073ffffffffffffffffffffffffffffffffffffffff168173ffffffffffffffffffffffffffffffffffffffff161415610354576040517f08c379a000000000000000000000000000000000000000000000000000000000815260040161034b90611999565b60405180910390fd5b8860026000600154815260200190815260200160002060000181905550600154600260006001548152602001908152602001600020600101819055508760026000600154815260200190815260200160002060020181905550866002600060015481526020019081526020016000206003018190555085600260006001548152602001908152602001600020600401819055503360026000600154815260200190815260200160002060070160006101000a81548173ffffffffffffffffffffffffffffffffffffffff021916908373ffffffffffffffffffffffffffffffffffffffff1602179055508460026000600154815260200190815260200160002060090160006101000a81548173ffffffffffffffffffffffffffffffffffffffff021916908373ffffffffffffffffffffffffffffffffffffffff1602179055507f300b0a86687c00a48a68dae2721b7d03a72aaaefb02cbe097223cfe94b28ab206001548a8a8a8a338b6040516104d297969594939291906119b9565b60405180910390a1600180546104e89190611a57565b600181905550505050505050505050565b806002600082815260200190815260200160002060090160009054906101000a900473ffffffffffffffffffffffffffffffffffffffff1673ffffffffffffffffffffffffffffffffffffffff163373ffffffffffffffffffffffffffffffffffffffff161461059e576040517f08c379a000000000000000000000000000000000000000000000000000000000815260040161059590611af9565b60405180910390fd5b8160006002600083815260200190815260200160002060060154116105f8576040517f08c379a00000000000000000000000000000000000000000000000000000000081526004016105ef90611b65565b60405180910390fd5b82600260008281526020019081526020016000206003015460026000838152602001908152602001600020600a015410610667576040517f08c379a000000000000000000000000000000000000000000000000000000000815260040161065e90611bd1565b60405180910390fd5b83600260008281526020019081526020016000206008015460026000838152602001908152602001600020600a0154146106d6576040517f08c379a00000000000000000000000000000000000000000000000000000000081526004016106cd90611c63565b60405180910390fd5b600160026000878152602001908152602001600020600a0160008282546106fd9190611a57565b925050819055507f56eb84e8c8b28d5e6efff18b5820aacfa29f32b5c4215cd83e4adb163af45535853360026000898152602001908152602001600020600a015460405161074d93929190611c83565b60405180910390a15050505050565b600260005414156107a2576040517f08c379a000000000000000000000000000000000000000000000000000000000815260040161079990611d06565b60405180910390fd5b6002600081905550806002600082815260200190815260200160002060070160009054906101000a900473ffffffffffffffffffffffffffffffffffffffff1673ffffffffffffffffffffffffffffffffffffffff163373ffffffffffffffffffffffffffffffffffffffff161461084f576040517f08c379a000000000000000000000000000000000000000000000000000000000815260040161084690611d72565b60405180910390fd5b8160006002600083815260200190815260200160002060060154116108a9576040517f08c379a00000000000000000000000000000000000000000000000000000000081526004016108a090611b65565b60405180910390fd5b826000600260008381526020019081526020016000206008015411610903576040517f08c379a00000000000000000000000000000000000000000000000000000000081526004016108fa90611e04565b60405180910390fd5b8360026000828152602001908152602001600020600b0154600260008381526020019081526020016000206008015411610972576040517f08c379a000000000000000000000000000000000000000000000000000000000815260040161096990611e96565b60405180910390fd5b600060026000878152602001908152602001600020600b015460026000888152602001908152602001600020600801546109ac9190611eb6565b600260008881526020019081526020016000206003015460026000898152602001908152602001600020600201546109e49190611f19565b6109ee9190611f4a565b9050600260008781526020019081526020016000206008015460026000888152602001908152602001600020600b0181905550806002600088815260200190815260200160002060060154610a439190611eb6565b600260008881526020019081526020016000206006018190555060003373ffffffffffffffffffffffffffffffffffffffff1682604051610a8390611fd5565b60006040518083038185875af1925050503d8060008114610ac0576040519150601f19603f3d011682016040523d82523d6000602084013e610ac5565b606091505b5050905080610b09576040517f08c379a0000000000000000000000000000000000000000000000000000000008152600401610b0090612036565b60405180910390fd5b7fbf320387b43ba82f24ec28c6a06674c2a710d3f205bc7752f125d6f207632cb5873384604051610b3c93929190611c83565b60405180910390a1505050505050600160008190555050565b806002600082815260200190815260200160002060090160009054906101000a900473ffffffffffffffffffffffffffffffffffffffff1673ffffffffffffffffffffffffffffffffffffffff163373ffffffffffffffffffffffffffffffffffffffff1614610bfa576040517f08c379a0000000000000000000000000000000000000000000000000000000008152600401610bf190611af9565b60405180910390fd5b816000600260008381526020019081526020016000206008015414610c54576040517f08c379a0000000000000000000000000000000000000000000000000000000008152600401610c4b906120c8565b60405180910390fd5b826000600260008381526020019081526020016000206006015414610cae576040517f08c379a0000000000000000000000000000000000000000000000000000000008152600401610ca590612134565b60405180910390fd5b8360026000828152602001908152602001600020600201543414610d07576040517f08c379a0000000000000000000000000000000000000000000000000000000008152600401610cfe906121a0565b60405180910390fd5b34600260008781526020019081526020016000206006016000828254610d2d9190611a57565b92505081905550603c6002600087815260200190815260200160002060040154610d579190611f4a565b42610d629190611a57565b60026000878152602001908152602001600020600501819055507f211856c31b8930855baa08327b8dbeb9ef5e1cc307c274a29b2b491da7002c77853334604051610daf93929190611c83565b60405180910390a15050505050565b60026020528060005260406000206000915090508060000154908060010154908060020154908060030154908060040154908060050154908060060154908060070160009054906101000a900473ffffffffffffffffffffffffffffffffffffffff16908060080154908060090160009054906101000a900473ffffffffffffffffffffffffffffffffffffffff169080600a01549080600b015490508c565b60015481565b806002600082815260200190815260200160002060070160009054906101000a900473ffffffffffffffffffffffffffffffffffffffff1673ffffffffffffffffffffffffffffffffffffffff163373ffffffffffffffffffffffffffffffffffffffff1614610f09576040517f08c379a0000000000000000000000000000000000000000000000000000000008152600401610f0090611d72565b60405180910390fd5b816000600260008381526020019081526020016000206006015411610f63576040517f08c379a0000000000000000000000000000000000000000000000000000000008152600401610f5a90611b65565b60405180910390fd5b826002600082815260200190815260200160002060030154600260008381526020019081526020016000206008015410610fd2576040517f08c379a0000000000000000000000000000000000000000000000000000000008152600401610fc99061220c565b60405180910390fd5b8360026000828152602001908152602001600020600a0154600260008381526020019081526020016000206008015410611041576040517f08c379a000000000000000000000000000000000000000000000000000000000815260040161103890612278565b60405180910390fd5b60016002600087815260200190815260200160002060080160008282546110689190611a57565b92505081905550603c60026000878152602001908152602001600020600401546110929190611f4a565b4261109d9190611a57565b60026000878152602001908152602001600020600501819055507f82110c58a09c96b7333991ec1e8a4d9badf54ba82e0351375bd706ea90c3ccbf8533600260008981526020019081526020016000206008015460405161110093929190611c83565b60405180910390a15050505050565b60026000541415611155576040517f08c379a000000000000000000000000000000000000000000000000000000000815260040161114c90611d06565b60405180910390fd5b6002600081905550806002600082815260200190815260200160002060090160009054906101000a900473ffffffffffffffffffffffffffffffffffffffff1673ffffffffffffffffffffffffffffffffffffffff163373ffffffffffffffffffffffffffffffffffffffff1614611202576040517f08c379a00000000000000000000000000000000000000000000000000000000081526004016111f990611af9565b60405180910390fd5b81600060026000838152602001908152602001600020600601541161125c576040517f08c379a000000000000000000000000000000000000000000000000000000000815260040161125390611b65565b60405180910390fd5b82600060026000838152602001908152602001600020600b015460026000848152602001908152602001600020600801546112979190611eb6565b600260008481526020019081526020016000206003015460026000858152602001908152602001600020600201546112cf9190611f19565b6112d99190611f4a565b905060008160026000858152602001908152602001600020600601546112ff9190611eb6565b90506000811415611345576040517f08c379a000000000000000000000000000000000000000000000000000000000815260040161133c9061230a565b60405180910390fd5b85600260008281526020019081526020016000206005015442101561139f576040517f08c379a000000000000000000000000000000000000000000000000000000000815260040161139690612376565b60405180910390fd5b600060026000898152602001908152602001600020600b0154600260008a8152602001908152602001600020600801546113d99190611eb6565b600260008a815260200190815260200160002060030154600260008b8152602001908152602001600020600201546114119190611f19565b61141b9190611f4a565b9050600081600260008b8152602001908152602001600020600601546114419190611eb6565b905081600260008b81526020019081526020016000206006018190555060003373ffffffffffffffffffffffffffffffffffffffff168260405161148490611fd5565b60006040518083038185875af1925050503d80600081146114c1576040519150601f19603f3d011682016040523d82523d6000602084013e6114c6565b606091505b505090508061150a576040517f08c379a000000000000000000000000000000000000000000000000000000000815260040161150190612036565b60405180910390fd5b7f0134aa77a3f86c171887c71c68a33a7c99677f3b358f13331f685476c9829f328a338460405161153d93929190611c83565b60405180910390a1505050505050505050600160008190555050565b600080fd5b6000819050919050565b6115718161155e565b811461157c57600080fd5b50565b60008135905061158e81611568565b92915050565b6000819050919050565b6115a781611594565b81146115b257600080fd5b50565b6000813590506115c48161159e565b92915050565b600073ffffffffffffffffffffffffffffffffffffffff82169050919050565b60006115f5826115ca565b9050919050565b611605816115ea565b811461161057600080fd5b50565b600081359050611622816115fc565b92915050565b600080600080600060a0868803121561164457611643611559565b5b60006116528882890161157f565b9550506020611663888289016115b5565b9450506040611674888289016115b5565b9350506060611685888289016115b5565b925050608061169688828901611613565b9150509295509295909350565b6000602082840312156116b9576116b8611559565b5b60006116c7848285016115b5565b91505092915050565b6116d98161155e565b82525050565b6116e881611594565b82525050565b6116f7816115ea565b82525050565b600061018082019050611713600083018f6116d0565b611720602083018e6116df565b61172d604083018d6116df565b61173a606083018c6116df565b611747608083018b6116df565b61175460a083018a6116df565b61176160c08301896116df565b61176e60e08301886116ee565b61177c6101008301876116df565b61178a6101208301866116ee565b6117986101408301856116df565b6117a66101608301846116df565b9d9c50505050505050505050505050565b60006020820190506117cc60008301846116df565b92915050565b600082825260208201905092915050565b7f53747564656e7420616e6420746561636865722063616e6e6f7420626520746860008201527f652073616d650000000000000000000000000000000000000000000000000000602082015250565b600061183f6026836117d2565b915061184a826117e3565b604082019050919050565b6000602082019050818103600083015261186e81611832565b9050919050565b7f50726963652063616e6e6f742062652030000000000000000000000000000000600082015250565b60006118ab6011836117d2565b91506118b682611875565b602082019050919050565b600060208201905081810360008301526118da8161189e565b9050919050565b7f4c6573736f6e732063616e6e6f74206265203000000000000000000000000000600082015250565b60006119176013836117d2565b9150611922826118e1565b602082019050919050565b600060208201905081810360008301526119468161190a565b9050919050565b7f53747564656e7420616464726573732063616e6e6f7420626520656d70747900600082015250565b6000611983601f836117d2565b915061198e8261194d565b602082019050919050565b600060208201905081810360008301526119b281611976565b9050919050565b600060e0820190506119ce600083018a6116df565b6119db60208301896116d0565b6119e860408301886116df565b6119f560608301876116df565b611a0260808301866116df565b611a0f60a08301856116ee565b611a1c60c08301846116ee565b98975050505050505050565b7f4e487b7100000000000000000000000000000000000000000000000000000000600052601160045260246000fd5b6000611a6282611594565b9150611a6d83611594565b9250827fffffffffffffffffffffffffffffffffffffffffffffffffffffffffffffffff03821115611aa257611aa1611a28565b5b828201905092915050565b7f4e6f7420612073747564656e7400000000000000000000000000000000000000600082015250565b6000611ae3600d836117d2565b9150611aee82611aad565b602082019050919050565b60006020820190508181036000830152611b1281611ad6565b9050919050565b7f436f7572736520686173206e6f2062616c616e63650000000000000000000000600082015250565b6000611b4f6015836117d2565b9150611b5a82611b19565b602082019050919050565b60006020820190508181036000830152611b7e81611b42565b9050919050565b7f416c6c206c6573736f6e7320776572652074616b656e00000000000000000000600082015250565b6000611bbb6016836117d2565b9150611bc682611b85565b602082019050919050565b60006020820190508181036000830152611bea81611bae565b9050919050565b7f596f7520616c7265616479207369676e656420617474656e646163652e204c6560008201527f73736f6e206e6f742073746172746564206279207475746f7200000000000000602082015250565b6000611c4d6039836117d2565b9150611c5882611bf1565b604082019050919050565b60006020820190508181036000830152611c7c81611c40565b9050919050565b6000606082019050611c9860008301866116df565b611ca560208301856116ee565b611cb260408301846116df565b949350505050565b7f5265656e7472616e637947756172643a207265656e7472616e742063616c6c00600082015250565b6000611cf0601f836117d2565b9150611cfb82611cba565b602082019050919050565b60006020820190508181036000830152611d1f81611ce3565b9050919050565b7f4e6f742061207475746f72000000000000000000000000000000000000000000600082015250565b6000611d5c600b836117d2565b9150611d6782611d26565b602082019050919050565b60006020820190508181036000830152611d8b81611d4f565b9050919050565b7f596f75206d7573742067697665206174206c65617374206f6e65206c6573736f60008201527f6e206265666f7265207769746864726177000000000000000000000000000000602082015250565b6000611dee6031836117d2565b9150611df982611d92565b604082019050919050565b60006020820190508181036000830152611e1d81611de1565b9050919050565b7f416c72656164792077697468647261776e20796f757220617661696c61626c6560008201527f2062616c616e6365000000000000000000000000000000000000000000000000602082015250565b6000611e806028836117d2565b9150611e8b82611e24565b604082019050919050565b60006020820190508181036000830152611eaf81611e73565b9050919050565b6000611ec182611594565b9150611ecc83611594565b925082821015611edf57611ede611a28565b5b828203905092915050565b7f4e487b7100000000000000000000000000000000000000000000000000000000600052601260045260246000fd5b6000611f2482611594565b9150611f2f83611594565b925082611f3f57611f3e611eea565b5b828204905092915050565b6000611f5582611594565b9150611f6083611594565b9250817fffffffffffffffffffffffffffffffffffffffffffffffffffffffffffffffff0483118215151615611f9957611f98611a28565b5b828202905092915050565b600081905092915050565b50565b6000611fbf600083611fa4565b9150611fca82611faf565b600082019050919050565b6000611fe082611fb2565b9150819050919050565b7f4661696c656420746f2073656e64204574686572000000000000000000000000600082015250565b60006120206014836117d2565b915061202b82611fea565b602082019050919050565b6000602082019050818103600083015261204f81612013565b9050919050565b7f43616e6e6f742072656163746976617465206120636f7572736520696620796f60008201527f75207265636569766564206174206c65617374206f6e65206c6573736f6e0000602082015250565b60006120b2603e836117d2565b91506120bd82612056565b604082019050919050565b600060208201905081810360008301526120e1816120a5565b9050919050565b7f436f7572736520616c72656164792066756e6465640000000000000000000000600082015250565b600061211e6015836117d2565b9150612129826120e8565b602082019050919050565b6000602082019050818103600083015261214d81612111565b9050919050565b7f4d757374207472616e7366657220657861637420707269636500000000000000600082015250565b600061218a6019836117d2565b915061219582612154565b602082019050919050565b600060208201905081810360008301526121b98161217d565b9050919050565b7f416c6c206c6573736f6e73207765726520676976656e00000000000000000000600082015250565b60006121f66016836117d2565b9150612201826121c0565b602082019050919050565b60006020820190508181036000830152612225816121e9565b9050919050565b7f53747564656e74206469646e2774207369676e20617474656e64616e63650000600082015250565b6000612262601e836117d2565b915061226d8261222c565b602082019050919050565b6000602082019050818103600083015261229181612255565b9050919050565b7f436f7572736520686173206e6f2062616c616e6365206c65667420746f20726560008201527f636f766572000000000000000000000000000000000000000000000000000000602082015250565b60006122f46025836117d2565b91506122ff82612298565b604082019050919050565b60006020820190508181036000830152612323816122e7565b9050919050565b7f54696d656c6f636b20686173206e6f7420657870697265642079657400000000600082015250565b6000612360601c836117d2565b915061236b8261232a565b602082019050919050565b6000602082019050818103600083015261238f81612353565b905091905056fea26469706673582212206f990ccc3d2971ba854d8045556accea0e88c9d6f6723e5eca615c63d599a93a64736f6c634300080a0033",
  "immutableReferences": {},
  "source": "// SPDX-License-Identifier: MIT\r\npragma solidity 0.8.10;\r\n\r\nimport \"@openzeppelin/contracts/security/ReentrancyGuard.sol\";\r\n\r\n\r\ncontract PapaPay is ReentrancyGuard {\r\n\r\n    uint public papaCount;\r\n\r\n    mapping (uint => Papa) public papas;\r\n\r\n    struct Papa {\r\n        // Short description of the contract \r\n        bytes32 papaDesc;\r\n        // Course number (unique)\r\n        uint papaCourse;\r\n        // Total price for the course\r\n        uint papaPrice;\r\n        // Amount of lessons\r\n        uint papaLessons;\r\n        // Timelock period in days. After that the student can recover his tokens\r\n        uint papaLock;\r\n        // Timestamp\r\n        uint papaTS;\r\n        // Balance of Course\r\n        uint papaBalance;\r\n        // Tutor address\r\n        address papaTutor;\r\n        // Tutor per-lesson signature\r\n        uint papaTutorSign;\r\n        // Student address\r\n        address papaStudent;\r\n        // Student per-lesson signature\r\n        uint papaStudentSign;\r\n        // Teacher withdrawn lessons - this variable is for making calculations on how much balance the tutor has available\r\n        uint papaWithdrew;\r\n    }\r\n  \r\n///\r\n///    EVENTS\r\n///\r\n    event CourseCreated (uint papaCount, bytes32 papaDesc, uint papaPrice, uint papaLessons, uint papaLock, address papaTutor, address papaStudent);\r\n    event CourseDeposit (uint papaCourse, address papaStudent, uint papaBalance);\r\n    event LessonStarted (uint papaCourse, address papaTutor, uint papaTutorSign);\r\n    event LessonAttended (uint papaCourse, address papaStudent, uint papaStudentSign);\r\n    event TutorWithdraw (uint papaCourse, address papaTutor, uint withdrawn);\r\n    event StudentRecover (uint papaCourse, address papaStudent, uint recovered);\r\n\r\n///\r\n///    MODIFIERS\r\n///\r\n\r\n/// This modifier checks if sender is a tutor\r\n    modifier isTutor(uint _papaCourse) {\r\n        require(msg.sender == papas[_papaCourse].papaTutor, \"Not a tutor\");\r\n        _;\r\n    }\r\n\r\n/// This modifier checks if sender is a student\r\n    modifier isStudent(uint _papaCourse) {\r\n        require(msg.sender == papas[_papaCourse].papaStudent, \"Not a student\");\r\n        _;\r\n    }\r\n\r\n/// This modifier checks that student and tutor are not the same\r\n    modifier notSame(address _papaStudent) {\r\n        require(msg.sender != _papaStudent, \"Student and teacher cannot be the same\");\r\n        _;\r\n    }\r\n\r\n\r\n/// This modifier checks that students address isnt empty\r\n    modifier hasStudent(address _papaStudent){\r\n        require(_papaStudent!=address(0), \"Student address cannot be empty\");\r\n        _;\r\n    }\r\n\r\n/// This modifier checks that balance is 0\r\n    modifier zeroBalance(uint _papaCourse) {\r\n        require(papas[_papaCourse].papaBalance == 0, \"Course already funded\");\r\n        _;\r\n    }\r\n\r\n/// This modifier checks that balance is 0\r\n    modifier hasBalance(uint _papaCourse){\r\n        require(papas[_papaCourse].papaBalance > 0, \"Course has no balance\");\r\n        _;\r\n    }\r\n\r\n/// This modifier checks that the transferred value is equal to course price\r\n    modifier exactBalance(uint _papaCourse) {\r\n        require(msg.value == papas[_papaCourse].papaPrice, \"Must transfer exact price\");\r\n        _;\r\n    }\r\n\r\n/// This modifier checks that the price isnt 0\r\n    modifier priceNotZero(uint _papaPrice) {\r\n        require(_papaPrice > 0, \"Price cannot be 0\");\r\n        _;\r\n    }\r\n\r\n/// This modifier checks that lessons arent 0\r\n    modifier lessonsNotZero(uint _papaLessons) {\r\n        require(_papaLessons > 0, \"Lessons cannot be 0\");\r\n        _;\r\n    }\r\n\r\n/// This modifier checks that the student doesnt attend more lessons that the total of papaLessons\r\n    modifier lessonsTaken(uint _papaCourse) {\r\n        require(papas[_papaCourse].papaStudentSign < papas[_papaCourse].papaLessons, \"All lessons were taken\");\r\n        _;\r\n    }\r\n\r\n/// This modifier checks that the tutor doesnt give more lessons that the total of papaLessons\r\n    modifier lessonsGiven(uint _papaCourse){\r\n        require(papas[_papaCourse].papaTutorSign < papas[_papaCourse].papaLessons, \"All lessons were given\"); \r\n        _;\r\n    }\r\n\r\n/// This modifier checks that the tutor doesnt sign before the student\r\n    modifier studentSignedBeforeTutor(uint _papaCourse){\r\n        require(papas[_papaCourse].papaTutorSign < papas[_papaCourse].papaStudentSign, \"Student didn't sign attendance\");\r\n        _;\r\n    }\r\n\r\n/// This modifier checks that the student doesnt sign attendance before the tutor starts an already signed lessons (avoids double signing) \r\n    modifier studentAlreadySigned(uint _papaCourse) {\r\n        require(papas[_papaCourse].papaStudentSign == papas[_papaCourse].papaTutorSign, \"You already signed attendace. Lesson not started by tutor\");\r\n        _;\r\n    }\r\n\r\n/// This modifier checks that the tutor has given at least one lesson, cannot withdraw before that\r\n    modifier tutorInittedLesson(uint _papaCourse) {\r\n        require(papas[_papaCourse].papaTutorSign > 0, \"You must give at least one lesson before withdraw\");\r\n        _;\r\n    }\r\n\r\n/// This modifier checks that the course has no given lessons, used to avoid re-funding of course\r\n    modifier noGivenLessons(uint _papaCourse){\r\n        require(papas[_papaCourse].papaTutorSign == 0, \"Cannot reactivate a course if you received at least one lesson\");\r\n        _;\r\n    }\r\n\r\n/// This modifier checks that the amount of given lessons isnt equal to withdraws\r\n    modifier tutorCanWithdraw(uint _papaCourse){\r\n        require(papas[_papaCourse].papaTutorSign > papas[_papaCourse].papaWithdrew,\"Already withdrawn your available balance\");\r\n        _;\r\n    }\r\n\r\n/// This modifier checks that there is any availble balance to recover\r\n    modifier studentCanWithdraw(uint _papaCourse){\r\n        uint papaTutorAmount = (papas[_papaCourse].papaPrice / papas[_papaCourse].papaLessons) * (papas[_papaCourse].papaTutorSign - papas[_papaCourse].papaWithdrew);\r\n        uint recover = papas[_papaCourse].papaBalance - papaTutorAmount;\r\n        require(recover !=0,\"Course has no balance left to recover\");\r\n        _;\r\n    }\r\n\r\n/// This modifier checks timelock expiration\r\n    modifier timelock(uint _papaCourse){\r\n        require(block.timestamp >= papas[_papaCourse].papaTS,\"Timelock has not expired yet\");\r\n        _;\r\n    }\r\n\r\n/// constructor()  {\r\n/// }\r\n\r\n/// Anyone who call this function will be a Tutor. Tutor creates the course, \r\n/// wich includes number of lessons, total cost, address of student and a time lock\r\n/// Requires: the address of the tutor and student cannot be the same, the price and lesson\r\n/// quantity cannot be zero, and the student address cannot be empty.\r\n\r\n    function papaCreate( bytes32 _papaDesc, uint _papaPrice, uint _papaLessons, uint _papaLock, address _papaStudent ) \r\n    external\r\n    notSame(_papaStudent)\r\n    priceNotZero(_papaPrice)\r\n    lessonsNotZero(_papaLessons)\r\n    hasStudent(_papaStudent)\r\n    {\r\n        papas[papaCount].papaDesc = _papaDesc;\r\n        papas[papaCount].papaCourse = papaCount;\r\n        papas[papaCount].papaPrice = _papaPrice;\r\n        papas[papaCount].papaLessons = _papaLessons;\r\n        papas[papaCount].papaLock = _papaLock;\r\n        papas[papaCount].papaTutor = msg.sender;\r\n        papas[papaCount].papaStudent = _papaStudent;\r\n        emit CourseCreated(papaCount, _papaDesc, _papaPrice, _papaLessons, _papaLock, msg.sender,_papaStudent);\r\n        papaCount = papaCount+1;\r\n    }\r\n/// Only a student can access this\r\n/// Student approves the course conditions, and deposits the total price in the course balance.\r\n/// This updates the timestamp (TS) variable, resetting the timelock\r\n/// Requires: the address making this tx must be the students one, the course doesnt had to \r\n/// have any lesson started by the tutor, the balance must be equal to zero and this only allows \r\n/// exact payment, no less, no more.\r\n\r\n    function papaApprove(uint _papaCourse)\r\n    external\r\n    payable \r\n    isStudent(_papaCourse)\r\n    noGivenLessons(_papaCourse)\r\n    zeroBalance(_papaCourse) \r\n    exactBalance(_papaCourse)\r\n    {\r\n        papas[_papaCourse].papaBalance += msg.value;\r\n        papas[_papaCourse].papaTS = block.timestamp + (papas[_papaCourse].papaLock * 60);\r\n        emit CourseDeposit(_papaCourse, msg.sender, msg.value);\r\n    }\r\n\r\n/// Only a tutor can access this.\r\n/// The tutor calls for the start of an individual lesson. The tutor cannot sign this if the student didn't sign attendance. \r\n/// This updates the timestamp (TS) variable, resetting the timelock\r\n/// Requires: the address making this tx must be the tutors one, the course must have balance, \r\n/// the amount of lessons given must be lower than lesson quantity and the amount of lessons \r\n/// given must be lower than lessons taken, so without student attending the tutor cannot init class\r\n\r\n    function papaInitLesson(uint _papaCourse) \r\n    external\r\n    isTutor(_papaCourse)\r\n    hasBalance(_papaCourse)\r\n    lessonsGiven(_papaCourse)\r\n    studentSignedBeforeTutor(_papaCourse)\r\n    {\r\n        papas[_papaCourse].papaTutorSign += 1;\r\n        papas[_papaCourse].papaTS = block.timestamp + (papas[_papaCourse].papaLock * 60);\r\n        emit LessonStarted(_papaCourse, msg.sender, papas[_papaCourse].papaTutorSign);\r\n    }\r\n\r\n/// Only a student can access this.\r\n/// The student is giving attendance, allowing a partial withdraw for the teacher.\r\n/// Requires: the address making this tx must be the students one, the course must have balance, \r\n/// the amount of lessons attended must be lower than lesson quantity and the amount of lessons \r\n/// given and taken must be equal\r\n\r\n    function papaAttendLesson(uint _papaCourse) \r\n    external \r\n    isStudent(_papaCourse)\r\n    hasBalance(_papaCourse)\r\n    lessonsTaken(_papaCourse)\r\n    studentAlreadySigned(_papaCourse)\r\n    {\r\n        papas[_papaCourse].papaStudentSign += 1;\r\n        emit LessonAttended(_papaCourse, msg.sender,papas[_papaCourse].papaStudentSign);\r\n    }\r\n\r\n/// Only a tutor can access this\r\n/// Tutor can withdraw balance for one lesson at a time, or multiple lessons given, at once\r\n/// Requires: Reentrancy guard, the address making this tx must be the tutors one, the course must have balance, \r\n/// tutor must have given at least one lesson and the amount of withdrawals cannot be the same as lessons given\r\n\r\n    function papaWithdraw(uint _papaCourse) \r\n    external\r\n    nonReentrant\r\n    isTutor(_papaCourse)\r\n    hasBalance(_papaCourse)\r\n    tutorInittedLesson(_papaCourse)\r\n    tutorCanWithdraw(_papaCourse)\r\n    {\r\n        uint papaAmount = (papas[_papaCourse].papaPrice / papas[_papaCourse].papaLessons) * (papas[_papaCourse].papaTutorSign - papas[_papaCourse].papaWithdrew);\r\n        papas[_papaCourse].papaWithdrew = papas[_papaCourse].papaTutorSign;\r\n        papas[_papaCourse].papaBalance = papas[_papaCourse].papaBalance - papaAmount;\r\n        (bool sent, ) = msg.sender.call{value: papaAmount}(\"\");\r\n        require(sent, \"Failed to send Ether\");\r\n        emit TutorWithdraw(_papaCourse, msg.sender, papaAmount);\r\n    }\r\n\r\n/// Only a student can access this\r\n/// If a time lock for is set the student can recover all of his remaining assets after that period of time\r\n/// Requires: Reentrancy guard, the address making this tx must be the students one, the course must have balance, \r\n/// there must be balance available to withdraw for the student (for lessons not given) and the timelock period must\r\n/// be over\r\n\r\n    function papaRecover(uint _papaCourse) \r\n    external \r\n    nonReentrant\r\n    isStudent(_papaCourse)\r\n    hasBalance(_papaCourse)\r\n    studentCanWithdraw(_papaCourse)\r\n    timelock(_papaCourse)\r\n    {\r\n        uint papaTutorAmount = (papas[_papaCourse].papaPrice / papas[_papaCourse].papaLessons) * (papas[_papaCourse].papaTutorSign - papas[_papaCourse].papaWithdrew);\r\n        uint _recover = papas[_papaCourse].papaBalance - papaTutorAmount;\r\n        papas[_papaCourse].papaBalance = papaTutorAmount;\r\n        (bool sent, ) = msg.sender.call{value: _recover}(\"\");\r\n        require(sent, \"Failed to send Ether\");\r\n        emit StudentRecover(_papaCourse, msg.sender, _recover);\r\n    }\r\n\r\n    fallback () external {\r\n///  A fallback here\r\n    }\r\n     /// TEST TEST TEST ---  If you want to run tests, please uncomment the following commented lines (but not this one! :-))--- TEST TEST TEST\r\n        // function fetchCourse(uint _papaCourse) public view\r\n        //    returns (uint papaCourse, bytes32 papaDesc, uint papaPrice, uint papaLessons, uint papaLock, address papaTutor, address papaStudent, uint papaBalance, uint papaStudentSign, uint papaTutorSign, uint papaTS, uint papaWithdrew)\r\n        //  {\r\n        //      papaDesc = papas[_papaCourse].papaDesc;\r\n        //      papaCourse = papas[_papaCourse].papaCourse;\r\n        //      papaPrice = papas[_papaCourse].papaPrice;\r\n        //      papaLessons = papas[_papaCourse].papaLessons;\r\n        //      papaLock = papas[_papaCourse].papaLock;\r\n        //      papaTutor = papas[_papaCourse].papaTutor;\r\n        //      papaStudent = papas[_papaCourse].papaStudent;\r\n        //      papaBalance = papas[_papaCourse].papaBalance;\r\n        //      papaTutorSign = papas[_papaCourse].papaTutorSign;\r\n        //      papaStudentSign = papas[_papaCourse].papaStudentSign;\r\n        //      papaTS = papas[_papaCourse].papaTS;\r\n        //      papaWithdrew = papas[_papaCourse].papaWithdrew;\r\n\r\n        //      return (papaCourse, papaDesc, papaPrice, papaLessons, papaLock, papaTutor, papaStudent, papaBalance, papaTutorSign, papaStudentSign, papaTS, papaWithdrew);\r\n        //  }\r\n}",
  "sourcePath": "D:\\OneDrive\\Code\\papaPay\\contracts\\PapaPay.sol",
  "compiler": {
    "name": "solc",
    "version": "0.8.10+commit.fc410830.Emscripten.clang"
  },
  "schemaVersion": "3.4.3",
  "updatedAt": "2021-11-27T22:10:05.177Z",
  "networkType": "ethereum",
  "devdoc": {
    "kind": "dev",
    "methods": {},
    "version": 1
  },
  "userdoc": {
    "events": {
      "CourseCreated(uint256,bytes32,uint256,uint256,uint256,address,address)": {
        "notice": "    EVENTS"
      }
    },
    "kind": "user",
    "methods": {
      "papaApprove(uint256)": {
        "notice": "Only a student can access this Student approves the course conditions, and deposits the total price in the course balance. This updates the timestamp (TS) variable, resetting the timelock Requires: the address making this tx must be the students one, the course doesnt had to  have any lesson started by the tutor, the balance must be equal to zero and this only allows  exact payment, no less, no more."
      },
      "papaAttendLesson(uint256)": {
        "notice": "Only a student can access this. The student is giving attendance, allowing a partial withdraw for the teacher. Requires: the address making this tx must be the students one, the course must have balance,  the amount of lessons attended must be lower than lesson quantity and the amount of lessons  given and taken must be equal"
      },
      "papaCreate(bytes32,uint256,uint256,uint256,address)": {
        "notice": "Anyone who call this function will be a Tutor. Tutor creates the course,  wich includes number of lessons, total cost, address of student and a time lock Requires: the address of the tutor and student cannot be the same, the price and lesson quantity cannot be zero, and the student address cannot be empty."
      },
      "papaInitLesson(uint256)": {
        "notice": "Only a tutor can access this. The tutor calls for the start of an individual lesson. The tutor cannot sign this if the student didn't sign attendance.  This updates the timestamp (TS) variable, resetting the timelock Requires: the address making this tx must be the tutors one, the course must have balance,  the amount of lessons given must be lower than lesson quantity and the amount of lessons  given must be lower than lessons taken, so without student attending the tutor cannot init class"
      },
      "papaRecover(uint256)": {
        "notice": "Only a student can access this If a time lock for is set the student can recover all of his remaining assets after that period of time Requires: Reentrancy guard, the address making this tx must be the students one, the course must have balance,  there must be balance available to withdraw for the student (for lessons not given) and the timelock period must be over"
      },
      "papaWithdraw(uint256)": {
        "notice": "Only a tutor can access this Tutor can withdraw balance for one lesson at a time, or multiple lessons given, at once Requires: Reentrancy guard, the address making this tx must be the tutors one, the course must have balance,  tutor must have given at least one lesson and the amount of withdrawals cannot be the same as lessons given"
      }
    },
    "version": 1
  }
}