{
  "contractName": "PapaPay",
  "abi": [
    {
      "anonymous": false,
      "inputs": [
        {
          "indexed": false,
          "internalType": "uint256",
          "name": "papaCourse",
          "type": "uint256"
        },
        {
          "indexed": false,
          "internalType": "bytes32",
          "name": "papaDesc",
          "type": "bytes32"
        }
      ],
      "name": "CourseCreated",
      "type": "event"
    },
    {
      "anonymous": false,
      "inputs": [
        {
          "indexed": false,
          "internalType": "uint256",
          "name": "papaCourse",
          "type": "uint256"
        },
        {
          "indexed": false,
          "internalType": "uint256",
          "name": "papaBalance",
          "type": "uint256"
        }
      ],
      "name": "CourseDeposit",
      "type": "event"
    },
    {
      "anonymous": false,
      "inputs": [
        {
          "indexed": false,
          "internalType": "uint256",
          "name": "papaCourse",
          "type": "uint256"
        },
        {
          "indexed": false,
          "internalType": "uint256",
          "name": "papaStudentSign",
          "type": "uint256"
        }
      ],
      "name": "LessonAttended",
      "type": "event"
    },
    {
      "anonymous": false,
      "inputs": [
        {
          "indexed": false,
          "internalType": "uint256",
          "name": "papaCourse",
          "type": "uint256"
        },
        {
          "indexed": false,
          "internalType": "uint256",
          "name": "papaTutorSign",
          "type": "uint256"
        }
      ],
      "name": "LessonStarted",
      "type": "event"
    },
    {
      "stateMutability": "nonpayable",
      "type": "fallback"
    },
    {
      "inputs": [],
      "name": "papaCount",
      "outputs": [
        {
          "internalType": "uint256",
          "name": "",
          "type": "uint256"
        }
      ],
      "stateMutability": "view",
      "type": "function",
      "constant": true
    },
    {
      "inputs": [
        {
          "internalType": "uint256",
          "name": "",
          "type": "uint256"
        }
      ],
      "name": "papas",
      "outputs": [
        {
          "internalType": "bytes32",
          "name": "papaDesc",
          "type": "bytes32"
        },
        {
          "internalType": "uint256",
          "name": "papaCourse",
          "type": "uint256"
        },
        {
          "internalType": "uint256",
          "name": "papaPrice",
          "type": "uint256"
        },
        {
          "internalType": "uint256",
          "name": "papaLessons",
          "type": "uint256"
        },
        {
          "internalType": "uint256",
          "name": "papaLock",
          "type": "uint256"
        },
        {
          "internalType": "uint256",
          "name": "papaTS",
          "type": "uint256"
        },
        {
          "internalType": "uint256",
          "name": "papaBalance",
          "type": "uint256"
        },
        {
          "internalType": "address",
          "name": "papaTutor",
          "type": "address"
        },
        {
          "internalType": "uint256",
          "name": "papaTutorSign",
          "type": "uint256"
        },
        {
          "internalType": "address",
          "name": "papaStudent",
          "type": "address"
        },
        {
          "internalType": "uint256",
          "name": "papaStudentSign",
          "type": "uint256"
        },
        {
          "internalType": "uint256",
          "name": "papaWithdrew",
          "type": "uint256"
        }
      ],
      "stateMutability": "view",
      "type": "function",
      "constant": true
    },
    {
      "inputs": [
        {
          "internalType": "bytes32",
          "name": "_papaDesc",
          "type": "bytes32"
        },
        {
          "internalType": "uint256",
          "name": "_papaPrice",
          "type": "uint256"
        },
        {
          "internalType": "uint256",
          "name": "_papaLessons",
          "type": "uint256"
        },
        {
          "internalType": "uint256",
          "name": "_papaLock",
          "type": "uint256"
        },
        {
          "internalType": "address",
          "name": "_papaStudent",
          "type": "address"
        }
      ],
      "name": "papaCreate",
      "outputs": [],
      "stateMutability": "nonpayable",
      "type": "function"
    },
    {
      "inputs": [
        {
          "internalType": "uint256",
          "name": "_papaCourse",
          "type": "uint256"
        }
      ],
      "name": "papaApprove",
      "outputs": [],
      "stateMutability": "payable",
      "type": "function",
      "payable": true
    },
    {
      "inputs": [
        {
          "internalType": "uint256",
          "name": "_papaCourse",
          "type": "uint256"
        }
      ],
      "name": "papaInitLesson",
      "outputs": [],
      "stateMutability": "nonpayable",
      "type": "function"
    },
    {
      "inputs": [
        {
          "internalType": "uint256",
          "name": "_papaCourse",
          "type": "uint256"
        }
      ],
      "name": "papaAttendLesson",
      "outputs": [],
      "stateMutability": "nonpayable",
      "type": "function"
    },
    {
      "inputs": [
        {
          "internalType": "uint256",
          "name": "_papaCourse",
          "type": "uint256"
        }
      ],
      "name": "papaWithdraw",
      "outputs": [],
      "stateMutability": "nonpayable",
      "type": "function"
    },
    {
      "inputs": [
        {
          "internalType": "uint256",
          "name": "_papaCourse",
          "type": "uint256"
        }
      ],
      "name": "papaRecover",
      "outputs": [],
      "stateMutability": "nonpayable",
      "type": "function"
    }
  ],
  "bytecode": "0x608060405234801561001057600080fd5b506001600081905550611e46806100286000396000f3fe60806040526004361061007f5760003560e01c8063980d38361161004e578063980d383614610126578063f062ba101461016e578063fc02ea3c14610199578063ffbddbee146101c257610080565b806305f017901461008f57806349f8ce12146100b85780635dce1313146100e157806389fe935e1461010a57610080565b5b34801561008c57600080fd5b50005b34801561009b57600080fd5b506100b660048036038101906100b1919061127b565b6101eb565b005b3480156100c457600080fd5b506100df60048036038101906100da91906112f2565b610477565b005b3480156100ed57600080fd5b50610108600480360381019061010391906112f2565b6106d1565b005b610124600480360381019061011f91906112f2565b610a53565b005b34801561013257600080fd5b5061014d600480360381019061014891906112f2565b610c5f565b6040516101659c9b9a9998979695949392919061188f565b60405180910390f35b34801561017a57600080fd5b50610183610cff565b6040516101909190611b89565b60405180910390f35b3480156101a557600080fd5b506101c060048036038101906101bb91906112f2565b610d05565b005b3480156101ce57600080fd5b506101e960048036038101906101e491906112f2565b610fa7565b005b8073ffffffffffffffffffffffffffffffffffffffff163373ffffffffffffffffffffffffffffffffffffffff16141561025a576040517f08c379a0000000000000000000000000000000000000000000000000000000008152600401610251906119a9565b60405180910390fd5b6000841161029d576040517f08c379a000000000000000000000000000000000000000000000000000000000815260040161029490611949565b60405180910390fd5b600083116102e0576040517f08c379a00000000000000000000000000000000000000000000000000000000081526004016102d7906119c9565b60405180910390fd5b8460026000600154815260200190815260200160002060000181905550600154600260006001548152602001908152602001600020600101819055508360026000600154815260200190815260200160002060020181905550826002600060015481526020019081526020016000206003018190555081600260006001548152602001908152602001600020600401819055503360026000600154815260200190815260200160002060070160006101000a81548173ffffffffffffffffffffffffffffffffffffffff021916908373ffffffffffffffffffffffffffffffffffffffff1602179055508060026000600154815260200190815260200160002060090160006101000a81548173ffffffffffffffffffffffffffffffffffffffff021916908373ffffffffffffffffffffffffffffffffffffffff1602179055507f3bf849f3d6bb9b2415355676337b3b9ea1e0746a0f078e6d707ec0940875104b60015486604051610454929190611ba4565b60405180910390a16001805461046a9190611c12565b6001819055505050505050565b6002600082815260200190815260200160002060090160009054906101000a900473ffffffffffffffffffffffffffffffffffffffff1673ffffffffffffffffffffffffffffffffffffffff163373ffffffffffffffffffffffffffffffffffffffff161461051b576040517f08c379a000000000000000000000000000000000000000000000000000000000815260040161051290611b09565b60405180910390fd5b600060026000838152602001908152602001600020600601541415610575576040517f08c379a000000000000000000000000000000000000000000000000000000000815260040161056c90611aa9565b60405180910390fd5b600260008281526020019081526020016000206003015460026000838152602001908152602001600020600a0154106105e3576040517f08c379a00000000000000000000000000000000000000000000000000000000081526004016105da90611a89565b60405180910390fd5b600260008281526020019081526020016000206008015460026000838152602001908152602001600020600a015414610651576040517f08c379a000000000000000000000000000000000000000000000000000000000815260040161064890611a69565b60405180910390fd5b600160026000838152602001908152602001600020600a0160008282546106789190611c12565b925050819055507f7363f45a12f7ce94988b9d37b2be5952d9ab1f6ce2c0e7a787da4aef9c109d738160026000848152602001908152602001600020600a01546040516106c6929190611bcd565b60405180910390a150565b60026000541415610717576040517f08c379a000000000000000000000000000000000000000000000000000000000815260040161070e90611b49565b60405180910390fd5b60026000819055506002600082815260200190815260200160002060070160009054906101000a900473ffffffffffffffffffffffffffffffffffffffff1673ffffffffffffffffffffffffffffffffffffffff163373ffffffffffffffffffffffffffffffffffffffff16146107c3576040517f08c379a00000000000000000000000000000000000000000000000000000000081526004016107ba90611b69565b60405180910390fd5b600060026000838152602001908152602001600020600601541415801561080157506000600260008381526020019081526020016000206008015414155b610840576040517f08c379a000000000000000000000000000000000000000000000000000000000815260040161083790611ae9565b60405180910390fd5b60026000828152602001908152602001600020600b0154600260008381526020019081526020016000206008015414156108af576040517f08c379a00000000000000000000000000000000000000000000000000000000081526004016108a6906119e9565b60405180910390fd5b600060026000838152602001908152602001600020600b015460026000848152602001908152602001600020600801546108e99190611cf3565b600260008481526020019081526020016000206003015460026000858152602001908152602001600020600201546109219190611c68565b61092b9190611c99565b9050600260008381526020019081526020016000206008015460026000848152602001908152602001600020600b01819055508060026000848152602001908152602001600020600601546109809190611cf3565b600260008481526020019081526020016000206006018190555060003373ffffffffffffffffffffffffffffffffffffffff16826040516109c09061187a565b60006040518083038185875af1925050503d80600081146109fd576040519150601f19603f3d011682016040523d82523d6000602084013e610a02565b606091505b5050905080610a46576040517f08c379a0000000000000000000000000000000000000000000000000000000008152600401610a3d90611a29565b60405180910390fd5b5050600160008190555050565b806002600082815260200190815260200160002060090160009054906101000a900473ffffffffffffffffffffffffffffffffffffffff1673ffffffffffffffffffffffffffffffffffffffff163373ffffffffffffffffffffffffffffffffffffffff1614610af8576040517f08c379a0000000000000000000000000000000000000000000000000000000008152600401610aef90611b09565b60405180910390fd5b816000600260008381526020019081526020016000206006015414610b52576040517f08c379a0000000000000000000000000000000000000000000000000000000008152600401610b4990611b29565b60405180910390fd5b8260026000828152602001908152602001600020600201543414610bab576040517f08c379a0000000000000000000000000000000000000000000000000000000008152600401610ba290611ac9565b60405180910390fd5b34600260008681526020019081526020016000206006016000828254610bd19190611c12565b92505081905550603c6002600086815260200190815260200160002060040154610bfb9190611c99565b42610c069190611c12565b60026000868152602001908152602001600020600501819055507f11d0cd4dfc5cdd45ffbd5e103be88ad523a93e6cbe44de276c5e20248d7d58ee8434604051610c51929190611bcd565b60405180910390a150505050565b60026020528060005260406000206000915090508060000154908060010154908060020154908060030154908060040154908060050154908060060154908060070160009054906101000a900473ffffffffffffffffffffffffffffffffffffffff16908060080154908060090160009054906101000a900473ffffffffffffffffffffffffffffffffffffffff169080600a01549080600b015490508c565b60015481565b6002600082815260200190815260200160002060070160009054906101000a900473ffffffffffffffffffffffffffffffffffffffff1673ffffffffffffffffffffffffffffffffffffffff163373ffffffffffffffffffffffffffffffffffffffff1614610da9576040517f08c379a0000000000000000000000000000000000000000000000000000000008152600401610da090611a09565b60405180910390fd5b600060026000838152602001908152602001600020600601541415610e03576040517f08c379a0000000000000000000000000000000000000000000000000000000008152600401610dfa90611aa9565b60405180910390fd5b6002600082815260200190815260200160002060030154600260008381526020019081526020016000206008015410610e71576040517f08c379a0000000000000000000000000000000000000000000000000000000008152600401610e6890611969565b60405180910390fd5b60026000828152602001908152602001600020600a0154600260008381526020019081526020016000206008015410610edf576040517f08c379a0000000000000000000000000000000000000000000000000000000008152600401610ed690611989565b60405180910390fd5b6001600260008381526020019081526020016000206008016000828254610f069190611c12565b92505081905550603c6002600083815260200190815260200160002060040154610f309190611c99565b42610f3b9190611c12565b60026000838152602001908152602001600020600501819055507fa412764a711d5c1840b30d5ccfd1b317b1a008d2c3fdf25f87c2bee0ba30d367816002600084815260200190815260200160002060080154604051610f9c929190611bcd565b60405180910390a150565b60026000541415610fed576040517f08c379a0000000000000000000000000000000000000000000000000000000008152600401610fe490611b49565b60405180910390fd5b60026000819055506002600082815260200190815260200160002060090160009054906101000a900473ffffffffffffffffffffffffffffffffffffffff1673ffffffffffffffffffffffffffffffffffffffff163373ffffffffffffffffffffffffffffffffffffffff1614611099576040517f08c379a000000000000000000000000000000000000000000000000000000000815260040161109090611b09565b60405180910390fd5b6000600260008381526020019081526020016000206006015414156110f3576040517f08c379a00000000000000000000000000000000000000000000000000000000081526004016110ea90611aa9565b60405180910390fd5b600260008281526020019081526020016000206005015442101561114c576040517f08c379a000000000000000000000000000000000000000000000000000000000815260040161114390611a49565b60405180910390fd5b6000600260008381526020019081526020016000206006015490506000600260008481526020019081526020016000206006018190555060003373ffffffffffffffffffffffffffffffffffffffff16826040516111a99061187a565b60006040518083038185875af1925050503d80600081146111e6576040519150601f19603f3d011682016040523d82523d6000602084013e6111eb565b606091505b505090508061122f576040517f08c379a000000000000000000000000000000000000000000000000000000000815260040161122690611a29565b60405180910390fd5b5050600160008190555050565b60008135905061124b81611dcb565b92915050565b60008135905061126081611de2565b92915050565b60008135905061127581611df9565b92915050565b600080600080600060a0868803121561129357600080fd5b60006112a188828901611251565b95505060206112b288828901611266565b94505060406112c388828901611266565b93505060606112d488828901611266565b92505060806112e58882890161123c565b9150509295509295909350565b60006020828403121561130457600080fd5b600061131284828501611266565b91505092915050565b61132481611d27565b82525050565b61133381611d39565b82525050565b6000611346601183611c01565b91507f50726963652063616e6e6f7420626520300000000000000000000000000000006000830152602082019050919050565b6000611386601683611c01565b91507f416c6c206c6573736f6e73207765726520676976656e000000000000000000006000830152602082019050919050565b60006113c6601e83611c01565b91507f53747564656e74206469646e2774207369676e20617474656e64616e636500006000830152602082019050919050565b6000611406602683611c01565b91507f53747564656e7420616e6420746561636865722063616e6e6f7420626520746860008301527f652073616d6500000000000000000000000000000000000000000000000000006020830152604082019050919050565b600061146c601383611c01565b91507f4c6573736f6e732063616e6e6f742062652030000000000000000000000000006000830152602082019050919050565b60006114ac602283611c01565b91507f416c72656164792077697468647261776e20796f7572206c617374206c65737360008301527f6f6e0000000000000000000000000000000000000000000000000000000000006020830152604082019050919050565b6000611512600b83611c01565b91507f4e6f742061205475746f720000000000000000000000000000000000000000006000830152602082019050919050565b6000611552601483611c01565b91507f4661696c656420746f2073656e642045746865720000000000000000000000006000830152602082019050919050565b6000611592601c83611c01565b91507f54696d656c6f636b20686173206e6f74206578706972656420796574000000006000830152602082019050919050565b60006115d2603083611c01565b91507f596f7520616c7265616479207369676e656420617474656e646163652e204c6560008301527f73736f6e206e6f742073746172746564000000000000000000000000000000006020830152604082019050919050565b6000611638601683611c01565b91507f416c6c206c6573736f6e7320776572652074616b656e000000000000000000006000830152602082019050919050565b6000611678601583611c01565b91507f436f7572736520686173206e6f2062616c616e636500000000000000000000006000830152602082019050919050565b60006116b8600e83611c01565b91507f4e6f7420656e6f756768204554480000000000000000000000000000000000006000830152602082019050919050565b60006116f8602883611c01565b91507f436865636b20636f757273652062616c616e6365206f72206c6573736f6e207360008301527f69676e61747572650000000000000000000000000000000000000000000000006020830152604082019050919050565b600061175e600083611bf6565b9150600082019050919050565b6000611778600d83611c01565b91507f4e6f7420612073747564656e74000000000000000000000000000000000000006000830152602082019050919050565b60006117b8601583611c01565b91507f436f7572736520616c72656164792066756e64656400000000000000000000006000830152602082019050919050565b60006117f8601f83611c01565b91507f5265656e7472616e637947756172643a207265656e7472616e742063616c6c006000830152602082019050919050565b6000611838600b83611c01565b91507f4e6f742061207475746f720000000000000000000000000000000000000000006000830152602082019050919050565b61187481611d63565b82525050565b600061188582611751565b9150819050919050565b6000610180820190506118a5600083018f61132a565b6118b2602083018e61186b565b6118bf604083018d61186b565b6118cc606083018c61186b565b6118d9608083018b61186b565b6118e660a083018a61186b565b6118f360c083018961186b565b61190060e083018861131b565b61190e61010083018761186b565b61191c61012083018661131b565b61192a61014083018561186b565b61193861016083018461186b565b9d9c50505050505050505050505050565b6000602082019050818103600083015261196281611339565b9050919050565b6000602082019050818103600083015261198281611379565b9050919050565b600060208201905081810360008301526119a2816113b9565b9050919050565b600060208201905081810360008301526119c2816113f9565b9050919050565b600060208201905081810360008301526119e28161145f565b9050919050565b60006020820190508181036000830152611a028161149f565b9050919050565b60006020820190508181036000830152611a2281611505565b9050919050565b60006020820190508181036000830152611a4281611545565b9050919050565b60006020820190508181036000830152611a6281611585565b9050919050565b60006020820190508181036000830152611a82816115c5565b9050919050565b60006020820190508181036000830152611aa28161162b565b9050919050565b60006020820190508181036000830152611ac28161166b565b9050919050565b60006020820190508181036000830152611ae2816116ab565b9050919050565b60006020820190508181036000830152611b02816116eb565b9050919050565b60006020820190508181036000830152611b228161176b565b9050919050565b60006020820190508181036000830152611b42816117ab565b9050919050565b60006020820190508181036000830152611b62816117eb565b9050919050565b60006020820190508181036000830152611b828161182b565b9050919050565b6000602082019050611b9e600083018461186b565b92915050565b6000604082019050611bb9600083018561186b565b611bc6602083018461132a565b9392505050565b6000604082019050611be2600083018561186b565b611bef602083018461186b565b9392505050565b600081905092915050565b600082825260208201905092915050565b6000611c1d82611d63565b9150611c2883611d63565b9250827fffffffffffffffffffffffffffffffffffffffffffffffffffffffffffffffff03821115611c5d57611c5c611d6d565b5b828201905092915050565b6000611c7382611d63565b9150611c7e83611d63565b925082611c8e57611c8d611d9c565b5b828204905092915050565b6000611ca482611d63565b9150611caf83611d63565b9250817fffffffffffffffffffffffffffffffffffffffffffffffffffffffffffffffff0483118215151615611ce857611ce7611d6d565b5b828202905092915050565b6000611cfe82611d63565b9150611d0983611d63565b925082821015611d1c57611d1b611d6d565b5b828203905092915050565b6000611d3282611d43565b9050919050565b6000819050919050565b600073ffffffffffffffffffffffffffffffffffffffff82169050919050565b6000819050919050565b7f4e487b7100000000000000000000000000000000000000000000000000000000600052601160045260246000fd5b7f4e487b7100000000000000000000000000000000000000000000000000000000600052601260045260246000fd5b611dd481611d27565b8114611ddf57600080fd5b50565b611deb81611d39565b8114611df657600080fd5b50565b611e0281611d63565b8114611e0d57600080fd5b5056fea26469706673582212206734fd2e48e27000e8409fca9737089a82b7e77a253c10372d706df2f5b48b5664736f6c63430008000033",
  "immutableReferences": {},
  "source": "// SPDX-License-Identifier: MIT\r\npragma solidity >=0.6 <0.9.0;\r\n\r\nimport \"@openzeppelin/contracts/security/ReentrancyGuard.sol\";\r\n\r\ncontract PapaPay is ReentrancyGuard {\r\n\r\n  uint public papaCount;\r\n\r\n  mapping (uint => Papa) public papas;\r\n\r\n  struct Papa {\r\n          // Short description of the contract \r\n          bytes32 papaDesc;\r\n          // Course number (unique)\r\n          uint papaCourse;\r\n          // Total price for the course\r\n          uint papaPrice;\r\n          // Amount of lessons\r\n          uint papaLessons;\r\n          // Timelock period in days. After that the student can recover his tokens\r\n          uint papaLock;\r\n          // Timestamp\r\n          uint papaTS;\r\n          // Balance of Course\r\n          uint papaBalance;\r\n          // Teacher and student addresses and signed assistance\r\n          address papaTutor;\r\n          uint papaTutorSign;\r\n          address papaStudent;\r\n          uint papaStudentSign;\r\n          // Withdrawn lessons\r\n          uint papaWithdrew;\r\n        }\r\n\r\n///\r\n///    EVENTS\r\n///\r\n\r\n  event CourseCreated (uint papaCourse, bytes32 papaDesc);\r\n  event CourseDeposit (uint papaCourse, uint papaBalance);\r\n  event LessonStarted (uint papaCourse, uint papaTutorSign);\r\n  event LessonAttended (uint papaCourse, uint papaStudentSign);\r\n\r\n///\r\n///    MODIFIERS\r\n///\r\n\r\n\r\n  modifier isStudent(uint _papaCourse) {\r\n      require(msg.sender == papas[_papaCourse].papaStudent, \"Not a student\");\r\n      _;\r\n  }\r\n\r\n  modifier zeroBalance(uint _papaCourse) {\r\n       require(papas[_papaCourse].papaBalance == 0, \"Course already funded\");\r\n      _;\r\n  }\r\n\r\n  modifier exactBalance(uint _papaCourse) {\r\n       require(msg.value == papas[_papaCourse].papaPrice, \"Not enough ETH\");\r\n      _;\r\n  }\r\n\r\n /// constructor()  {\r\n /// }\r\n\r\n/// Anyone who call this function will be a Tutor. Tutor creates the course, wich includes number of lessons, total cost, address of student and a time lock\r\n  function papaCreate( bytes32 _papaDesc, uint _papaPrice, uint _papaLessons, uint _papaLock, address _papaStudent ) \r\n    external \r\n    {\r\n      require(msg.sender != _papaStudent,\"Student and teacher cannot be the same\");\r\n      require(_papaPrice > 0,\"Price cannot be 0\");\r\n      require(_papaLessons > 0,\"Lessons cannot be 0\");\r\n      papas[papaCount].papaDesc = _papaDesc;\r\n      papas[papaCount].papaCourse= papaCount;\r\n      papas[papaCount].papaPrice= _papaPrice;\r\n      papas[papaCount].papaLessons= _papaLessons;\r\n      papas[papaCount].papaLock= _papaLock;\r\n      papas[papaCount].papaTutor= msg.sender;\r\n      papas[papaCount].papaStudent= _papaStudent;\r\n      emit CourseCreated(papaCount, _papaDesc);\r\n      papaCount = papaCount +1;\r\n    }\r\n\r\n/// Only a student can access this\r\n/// Student approves that contract, the total cost of the course is deducted from student wallet and stored on the contract\r\n\r\n  function papaApprove(uint _papaCourse)\r\n    external\r\n    payable \r\n    isStudent(_papaCourse) \r\n    zeroBalance(_papaCourse) \r\n    exactBalance(_papaCourse)\r\n    {\r\n      papas[_papaCourse].papaBalance += msg.value;\r\n      papas[_papaCourse].papaTS = block.timestamp + (papas[_papaCourse].papaLock * 60);\r\n      emit CourseDeposit(_papaCourse,msg.value);\r\n    }\r\n\r\n/// Only a tutor can access this\r\n/// The tutor calls for the start of an individual lesson. The tutor cannot sign this if the student didn't sign attendance\r\n  function papaInitLesson(uint _papaCourse) \r\n    external \r\n    {\r\n      require (msg.sender == papas[_papaCourse].papaTutor, \"Not a Tutor\");\r\n      require (papas[_papaCourse].papaBalance != 0, \"Course has no balance\");\r\n      require (papas[_papaCourse].papaTutorSign < papas[_papaCourse].papaLessons, \"All lessons were given\");\r\n      require (papas[_papaCourse].papaTutorSign < papas[_papaCourse].papaStudentSign, \"Student didn't sign attendance\");\r\n      papas[_papaCourse].papaTutorSign += 1;\r\n      papas[_papaCourse].papaTS = block.timestamp + (papas[_papaCourse].papaLock * 60);\r\n      emit LessonStarted(_papaCourse,papas[_papaCourse].papaTutorSign);\r\n    }\r\n\r\n/// Only a student can access this  \r\n/// The student is giving attendance, making possible a partial withdrawn for the teacher\r\n  function papaAttendLesson(uint _papaCourse) \r\n    external \r\n    {\r\n      require (msg.sender == papas[_papaCourse].papaStudent, \"Not a student\");\r\n      require (papas[_papaCourse].papaBalance != 0, \"Course has no balance\");\r\n      require (papas[_papaCourse].papaStudentSign < papas[_papaCourse].papaLessons, \"All lessons were taken\");\r\n      require (papas[_papaCourse].papaStudentSign == papas[_papaCourse].papaTutorSign, \"You already signed attendace. Lesson not started\");\r\n      papas[_papaCourse].papaStudentSign += 1;\r\n      emit LessonAttended(_papaCourse,papas[_papaCourse].papaStudentSign);\r\n    }\r\n\r\n/// Only a tutor can access this\r\n/// Tutor can withdraw one lesson at a time, or multiple lessons given at once\r\n  function papaWithdraw(uint _papaCourse) \r\n    external\r\n    nonReentrant\r\n    {\r\n      require (msg.sender == papas[_papaCourse].papaTutor, \"Not a tutor\");\r\n      require (papas[_papaCourse].papaBalance != 0 && papas[_papaCourse].papaTutorSign != 0,\"Check course balance or lesson signature\");\r\n      require (papas[_papaCourse].papaTutorSign != papas[_papaCourse].papaWithdrew,\"Already withdrawn your last lesson\");\r\n      uint papaAmount = (papas[_papaCourse].papaPrice / papas[_papaCourse].papaLessons) * (papas[_papaCourse].papaTutorSign - papas[_papaCourse].papaWithdrew);\r\n      papas[_papaCourse].papaWithdrew = papas[_papaCourse].papaTutorSign;\r\n      papas[_papaCourse].papaBalance = papas[_papaCourse].papaBalance - papaAmount;\r\n      (bool sent, ) = msg.sender.call{value: papaAmount}(\"\");\r\n      require(sent, \"Failed to send Ether\");\r\n    }\r\n\r\n/// Only a student can access this\r\n/// If a time lock for unfulfillment is set, after that period of time, the student can recover all of his remaining assets\r\n  function papaRecover(uint _papaCourse) \r\n  external \r\n  nonReentrant\r\n  {\r\n    require (msg.sender == papas[_papaCourse].papaStudent, \"Not a student\");\r\n    require (papas[_papaCourse].papaBalance != 0,\"Course has no balance\");\r\n    require (block.timestamp >= papas[_papaCourse].papaTS,\"Timelock has not expired yet\");\r\n    uint _recover = papas[_papaCourse].papaBalance;\r\n    papas[_papaCourse].papaBalance = 0;\r\n    (bool sent, ) = msg.sender.call{value: _recover}(\"\");\r\n    require(sent, \"Failed to send Ether\");\r\n  }\r\n\r\n  fallback () external {\r\n///  A fallback here\r\n  }\r\n\r\n}",
  "sourcePath": "D:\\OneDrive\\Code\\papaPay\\contracts\\PapaPay.sol",
  "compiler": {
    "name": "solc",
    "version": "0.8.0+commit.c7dfd78e.Emscripten.clang"
  },
  "schemaVersion": "3.4.3",
  "updatedAt": "2021-11-19T03:09:36.181Z",
  "networkType": "ethereum",
  "devdoc": {
    "kind": "dev",
    "methods": {},
    "version": 1
  },
  "userdoc": {
    "events": {
      "CourseCreated(uint256,bytes32)": {
        "notice": "    EVENTS"
      }
    },
    "kind": "user",
    "methods": {
      "papaApprove(uint256)": {
        "notice": "Only a student can access this Student approves that contract, the total cost of the course is deducted from student wallet and stored on the contract"
      },
      "papaAttendLesson(uint256)": {
        "notice": "Only a student can access this   The student is giving attendance, making possible a partial withdrawn for the teacher"
      },
      "papaCreate(bytes32,uint256,uint256,uint256,address)": {
        "notice": "Anyone who call this function will be a Tutor. Tutor creates the course, wich includes number of lessons, total cost, address of student and a time lock"
      },
      "papaInitLesson(uint256)": {
        "notice": "Only a tutor can access this The tutor calls for the start of an individual lesson. The tutor cannot sign this if the student didn't sign attendance"
      },
      "papaRecover(uint256)": {
        "notice": "Only a student can access this If a time lock for unfulfillment is set, after that period of time, the student can recover all of his remaining assets"
      },
      "papaWithdraw(uint256)": {
        "notice": "Only a tutor can access this Tutor can withdraw one lesson at a time, or multiple lessons given at once"
      }
    },
    "version": 1
  }
}