{
  "contractName": "PapaPay",
  "abi": [
    {
      "anonymous": false,
      "inputs": [
        {
          "indexed": false,
          "internalType": "uint256",
          "name": "papaCourse",
          "type": "uint256"
        },
        {
          "indexed": false,
          "internalType": "bytes32",
          "name": "papaDesc",
          "type": "bytes32"
        },
        {
          "indexed": false,
          "internalType": "uint256",
          "name": "papaPrice",
          "type": "uint256"
        },
        {
          "indexed": false,
          "internalType": "uint256",
          "name": "papaLessons",
          "type": "uint256"
        },
        {
          "indexed": false,
          "internalType": "uint256",
          "name": "papaLock",
          "type": "uint256"
        },
        {
          "indexed": false,
          "internalType": "address",
          "name": "papaTutor",
          "type": "address"
        },
        {
          "indexed": false,
          "internalType": "address",
          "name": "papaStudent",
          "type": "address"
        }
      ],
      "name": "CourseCreated",
      "type": "event"
    },
    {
      "anonymous": false,
      "inputs": [
        {
          "indexed": false,
          "internalType": "uint256",
          "name": "papaCourse",
          "type": "uint256"
        },
        {
          "indexed": false,
          "internalType": "address",
          "name": "papaStudent",
          "type": "address"
        },
        {
          "indexed": false,
          "internalType": "uint256",
          "name": "papaBalance",
          "type": "uint256"
        }
      ],
      "name": "CourseDeposit",
      "type": "event"
    },
    {
      "anonymous": false,
      "inputs": [
        {
          "indexed": false,
          "internalType": "uint256",
          "name": "papaCourse",
          "type": "uint256"
        },
        {
          "indexed": false,
          "internalType": "address",
          "name": "papaStudent",
          "type": "address"
        },
        {
          "indexed": false,
          "internalType": "uint256",
          "name": "papaStudentSign",
          "type": "uint256"
        }
      ],
      "name": "LessonAttended",
      "type": "event"
    },
    {
      "anonymous": false,
      "inputs": [
        {
          "indexed": false,
          "internalType": "uint256",
          "name": "papaCourse",
          "type": "uint256"
        },
        {
          "indexed": false,
          "internalType": "address",
          "name": "papaTutor",
          "type": "address"
        },
        {
          "indexed": false,
          "internalType": "uint256",
          "name": "papaTutorSign",
          "type": "uint256"
        }
      ],
      "name": "LessonStarted",
      "type": "event"
    },
    {
      "anonymous": false,
      "inputs": [
        {
          "indexed": false,
          "internalType": "uint256",
          "name": "papaCourse",
          "type": "uint256"
        },
        {
          "indexed": false,
          "internalType": "address",
          "name": "papaStudent",
          "type": "address"
        },
        {
          "indexed": false,
          "internalType": "uint256",
          "name": "recovered",
          "type": "uint256"
        }
      ],
      "name": "StudentRecover",
      "type": "event"
    },
    {
      "anonymous": false,
      "inputs": [
        {
          "indexed": false,
          "internalType": "uint256",
          "name": "papaCourse",
          "type": "uint256"
        },
        {
          "indexed": false,
          "internalType": "address",
          "name": "papaTutor",
          "type": "address"
        },
        {
          "indexed": false,
          "internalType": "uint256",
          "name": "withdrawn",
          "type": "uint256"
        }
      ],
      "name": "TutorWithdraw",
      "type": "event"
    },
    {
      "stateMutability": "nonpayable",
      "type": "fallback"
    },
    {
      "inputs": [],
      "name": "papaCount",
      "outputs": [
        {
          "internalType": "uint256",
          "name": "",
          "type": "uint256"
        }
      ],
      "stateMutability": "view",
      "type": "function",
      "constant": true
    },
    {
      "inputs": [
        {
          "internalType": "uint256",
          "name": "",
          "type": "uint256"
        }
      ],
      "name": "papas",
      "outputs": [
        {
          "internalType": "bytes32",
          "name": "papaDesc",
          "type": "bytes32"
        },
        {
          "internalType": "uint256",
          "name": "papaCourse",
          "type": "uint256"
        },
        {
          "internalType": "uint256",
          "name": "papaPrice",
          "type": "uint256"
        },
        {
          "internalType": "uint256",
          "name": "papaLessons",
          "type": "uint256"
        },
        {
          "internalType": "uint256",
          "name": "papaLock",
          "type": "uint256"
        },
        {
          "internalType": "uint256",
          "name": "papaTS",
          "type": "uint256"
        },
        {
          "internalType": "uint256",
          "name": "papaBalance",
          "type": "uint256"
        },
        {
          "internalType": "address",
          "name": "papaTutor",
          "type": "address"
        },
        {
          "internalType": "uint256",
          "name": "papaTutorSign",
          "type": "uint256"
        },
        {
          "internalType": "address",
          "name": "papaStudent",
          "type": "address"
        },
        {
          "internalType": "uint256",
          "name": "papaStudentSign",
          "type": "uint256"
        },
        {
          "internalType": "uint256",
          "name": "papaWithdrew",
          "type": "uint256"
        }
      ],
      "stateMutability": "view",
      "type": "function",
      "constant": true
    },
    {
      "inputs": [
        {
          "internalType": "bytes32",
          "name": "_papaDesc",
          "type": "bytes32"
        },
        {
          "internalType": "uint256",
          "name": "_papaPrice",
          "type": "uint256"
        },
        {
          "internalType": "uint256",
          "name": "_papaLessons",
          "type": "uint256"
        },
        {
          "internalType": "uint256",
          "name": "_papaLock",
          "type": "uint256"
        },
        {
          "internalType": "address",
          "name": "_papaStudent",
          "type": "address"
        }
      ],
      "name": "papaCreate",
      "outputs": [],
      "stateMutability": "nonpayable",
      "type": "function"
    },
    {
      "inputs": [
        {
          "internalType": "uint256",
          "name": "_papaCourse",
          "type": "uint256"
        }
      ],
      "name": "papaApprove",
      "outputs": [],
      "stateMutability": "payable",
      "type": "function",
      "payable": true
    },
    {
      "inputs": [
        {
          "internalType": "uint256",
          "name": "_papaCourse",
          "type": "uint256"
        }
      ],
      "name": "papaInitLesson",
      "outputs": [],
      "stateMutability": "nonpayable",
      "type": "function"
    },
    {
      "inputs": [
        {
          "internalType": "uint256",
          "name": "_papaCourse",
          "type": "uint256"
        }
      ],
      "name": "papaAttendLesson",
      "outputs": [],
      "stateMutability": "nonpayable",
      "type": "function"
    },
    {
      "inputs": [
        {
          "internalType": "uint256",
          "name": "_papaCourse",
          "type": "uint256"
        }
      ],
      "name": "papaWithdraw",
      "outputs": [],
      "stateMutability": "nonpayable",
      "type": "function"
    },
    {
      "inputs": [
        {
          "internalType": "uint256",
          "name": "_papaCourse",
          "type": "uint256"
        }
      ],
      "name": "papaRecover",
      "outputs": [],
      "stateMutability": "nonpayable",
      "type": "function"
    },
    {
      "inputs": [
        {
          "internalType": "uint256",
          "name": "_papaCourse",
          "type": "uint256"
        }
      ],
      "name": "fetchCourse",
      "outputs": [
        {
          "internalType": "uint256",
          "name": "papaCourse",
          "type": "uint256"
        },
        {
          "internalType": "bytes32",
          "name": "papaDesc",
          "type": "bytes32"
        },
        {
          "internalType": "uint256",
          "name": "papaPrice",
          "type": "uint256"
        },
        {
          "internalType": "uint256",
          "name": "papaLessons",
          "type": "uint256"
        },
        {
          "internalType": "uint256",
          "name": "papaLock",
          "type": "uint256"
        },
        {
          "internalType": "address",
          "name": "papaTutor",
          "type": "address"
        },
        {
          "internalType": "address",
          "name": "papaStudent",
          "type": "address"
        }
      ],
      "stateMutability": "view",
      "type": "function",
      "constant": true
    }
  ],
  "bytecode": "0x608060405234801561001057600080fd5b5060016000819055506122c4806100286000396000f3fe60806040526004361061008a5760003560e01c806389fe935e1161005957806389fe935e14610158578063980d383614610174578063f062ba10146101bc578063fc02ea3c146101e7578063ffbddbee146102105761008b565b806305f017901461009a57806349f8ce12146100c35780635dce1313146100ec5780638855dfc9146101155761008b565b5b34801561009757600080fd5b50005b3480156100a657600080fd5b506100c160048036038101906100bc919061161e565b610239565b005b3480156100cf57600080fd5b506100ea60048036038101906100e59190611699565b6104d5565b005b3480156100f857600080fd5b50610113600480360381019061010e9190611699565b610738565b005b34801561012157600080fd5b5061013c60048036038101906101379190611699565b610b32565b60405161014f97969594939291906116f3565b60405180910390f35b610172600480360381019061016d9190611699565b610c37565b005b34801561018057600080fd5b5061019b60048036038101906101969190611699565b610ea0565b6040516101b39c9b9a99989796959493929190611762565b60405180910390f35b3480156101c857600080fd5b506101d1610f40565b6040516101de919061181c565b60405180910390f35b3480156101f357600080fd5b5061020e60048036038101906102099190611699565b610f46565b005b34801561021c57600080fd5b5061023760048036038101906102329190611699565b6111f1565b005b808073ffffffffffffffffffffffffffffffffffffffff163373ffffffffffffffffffffffffffffffffffffffff1614156102a9576040517f08c379a00000000000000000000000000000000000000000000000000000000081526004016102a0906118ba565b60405180910390fd5b84600081116102ed576040517f08c379a00000000000000000000000000000000000000000000000000000000081526004016102e490611926565b60405180910390fd5b8460008111610331576040517f08c379a000000000000000000000000000000000000000000000000000000000815260040161032890611992565b60405180910390fd5b8760026000600154815260200190815260200160002060000181905550600154600260006001548152602001908152602001600020600101819055508660026000600154815260200190815260200160002060020181905550856002600060015481526020019081526020016000206003018190555084600260006001548152602001908152602001600020600401819055503360026000600154815260200190815260200160002060070160006101000a81548173ffffffffffffffffffffffffffffffffffffffff021916908373ffffffffffffffffffffffffffffffffffffffff1602179055508360026000600154815260200190815260200160002060090160006101000a81548173ffffffffffffffffffffffffffffffffffffffff021916908373ffffffffffffffffffffffffffffffffffffffff1602179055507f300b0a86687c00a48a68dae2721b7d03a72aaaefb02cbe097223cfe94b28ab2060015489898989338a6040516104af97969594939291906116f3565b60405180910390a1600180546104c591906119e1565b6001819055505050505050505050565b806002600082815260200190815260200160002060090160009054906101000a900473ffffffffffffffffffffffffffffffffffffffff1673ffffffffffffffffffffffffffffffffffffffff163373ffffffffffffffffffffffffffffffffffffffff161461057a576040517f08c379a000000000000000000000000000000000000000000000000000000000815260040161057190611a83565b60405180910390fd5b8160006002600083815260200190815260200160002060060154116105d4576040517f08c379a00000000000000000000000000000000000000000000000000000000081526004016105cb90611aef565b60405180910390fd5b82600260008281526020019081526020016000206003015460026000838152602001908152602001600020600a015410610643576040517f08c379a000000000000000000000000000000000000000000000000000000000815260040161063a90611b5b565b60405180910390fd5b83600260008281526020019081526020016000206008015460026000838152602001908152602001600020600a0154146106b2576040517f08c379a00000000000000000000000000000000000000000000000000000000081526004016106a990611bed565b60405180910390fd5b600160026000878152602001908152602001600020600a0160008282546106d991906119e1565b925050819055507f56eb84e8c8b28d5e6efff18b5820aacfa29f32b5c4215cd83e4adb163af45535853360026000898152602001908152602001600020600a015460405161072993929190611c0d565b60405180910390a15050505050565b6002600054141561077e576040517f08c379a000000000000000000000000000000000000000000000000000000000815260040161077590611c90565b60405180910390fd5b6002600081905550806002600082815260200190815260200160002060070160009054906101000a900473ffffffffffffffffffffffffffffffffffffffff1673ffffffffffffffffffffffffffffffffffffffff163373ffffffffffffffffffffffffffffffffffffffff161461082b576040517f08c379a000000000000000000000000000000000000000000000000000000000815260040161082290611cfc565b60405180910390fd5b816000600260008381526020019081526020016000206006015411610885576040517f08c379a000000000000000000000000000000000000000000000000000000000815260040161087c90611aef565b60405180910390fd5b8260006002600083815260200190815260200160002060080154116108df576040517f08c379a00000000000000000000000000000000000000000000000000000000081526004016108d690611d8e565b60405180910390fd5b8360026000828152602001908152602001600020600b01546002600083815260200190815260200160002060080154141561094f576040517f08c379a000000000000000000000000000000000000000000000000000000000815260040161094690611e20565b60405180910390fd5b600060026000878152602001908152602001600020600b015460026000888152602001908152602001600020600801546109899190611e40565b600260008881526020019081526020016000206003015460026000898152602001908152602001600020600201546109c19190611ea3565b6109cb9190611ed4565b9050600260008781526020019081526020016000206008015460026000888152602001908152602001600020600b0181905550806002600088815260200190815260200160002060060154610a209190611e40565b600260008881526020019081526020016000206006018190555060003373ffffffffffffffffffffffffffffffffffffffff1682604051610a6090611f5f565b60006040518083038185875af1925050503d8060008114610a9d576040519150601f19603f3d011682016040523d82523d6000602084013e610aa2565b606091505b5050905080610ae6576040517f08c379a0000000000000000000000000000000000000000000000000000000008152600401610add90611fc0565b60405180910390fd5b7fbf320387b43ba82f24ec28c6a06674c2a710d3f205bc7752f125d6f207632cb5873384604051610b1993929190611c0d565b60405180910390a1505050505050600160008190555050565b600080600080600080600060026000898152602001908152602001600020600001549550600260008981526020019081526020016000206001015496506002600089815260200190815260200160002060020154945060026000898152602001908152602001600020600301549350600260008981526020019081526020016000206004015492506002600089815260200190815260200160002060070160009054906101000a900473ffffffffffffffffffffffffffffffffffffffff1691506002600089815260200190815260200160002060090160009054906101000a900473ffffffffffffffffffffffffffffffffffffffff169050919395979092949650565b806002600082815260200190815260200160002060090160009054906101000a900473ffffffffffffffffffffffffffffffffffffffff1673ffffffffffffffffffffffffffffffffffffffff163373ffffffffffffffffffffffffffffffffffffffff1614610cdc576040517f08c379a0000000000000000000000000000000000000000000000000000000008152600401610cd390611a83565b60405180910390fd5b816000600260008381526020019081526020016000206008015414610d36576040517f08c379a0000000000000000000000000000000000000000000000000000000008152600401610d2d90612052565b60405180910390fd5b826000600260008381526020019081526020016000206006015414610d90576040517f08c379a0000000000000000000000000000000000000000000000000000000008152600401610d87906120be565b60405180910390fd5b8360026000828152602001908152602001600020600201543414610de9576040517f08c379a0000000000000000000000000000000000000000000000000000000008152600401610de09061212a565b60405180910390fd5b34600260008781526020019081526020016000206006016000828254610e0f91906119e1565b92505081905550603c6002600087815260200190815260200160002060040154610e399190611ed4565b42610e4491906119e1565b60026000878152602001908152602001600020600501819055507f211856c31b8930855baa08327b8dbeb9ef5e1cc307c274a29b2b491da7002c77853334604051610e9193929190611c0d565b60405180910390a15050505050565b60026020528060005260406000206000915090508060000154908060010154908060020154908060030154908060040154908060050154908060060154908060070160009054906101000a900473ffffffffffffffffffffffffffffffffffffffff16908060080154908060090160009054906101000a900473ffffffffffffffffffffffffffffffffffffffff169080600a01549080600b015490508c565b60015481565b806002600082815260200190815260200160002060070160009054906101000a900473ffffffffffffffffffffffffffffffffffffffff1673ffffffffffffffffffffffffffffffffffffffff163373ffffffffffffffffffffffffffffffffffffffff1614610feb576040517f08c379a0000000000000000000000000000000000000000000000000000000008152600401610fe290611cfc565b60405180910390fd5b816000600260008381526020019081526020016000206006015411611045576040517f08c379a000000000000000000000000000000000000000000000000000000000815260040161103c90611aef565b60405180910390fd5b8260026000828152602001908152602001600020600301546002600083815260200190815260200160002060080154106110b4576040517f08c379a00000000000000000000000000000000000000000000000000000000081526004016110ab90612196565b60405180910390fd5b8360026000828152602001908152602001600020600a0154600260008381526020019081526020016000206008015410611123576040517f08c379a000000000000000000000000000000000000000000000000000000000815260040161111a90612202565b60405180910390fd5b600160026000878152602001908152602001600020600801600082825461114a91906119e1565b92505081905550603c60026000878152602001908152602001600020600401546111749190611ed4565b4261117f91906119e1565b60026000878152602001908152602001600020600501819055507f82110c58a09c96b7333991ec1e8a4d9badf54ba82e0351375bd706ea90c3ccbf853360026000898152602001908152602001600020600801546040516111e293929190611c0d565b60405180910390a15050505050565b60026000541415611237576040517f08c379a000000000000000000000000000000000000000000000000000000000815260040161122e90611c90565b60405180910390fd5b6002600081905550806002600082815260200190815260200160002060090160009054906101000a900473ffffffffffffffffffffffffffffffffffffffff1673ffffffffffffffffffffffffffffffffffffffff163373ffffffffffffffffffffffffffffffffffffffff16146112e4576040517f08c379a00000000000000000000000000000000000000000000000000000000081526004016112db90611a83565b60405180910390fd5b81600060026000838152602001908152602001600020600601541161133e576040517f08c379a000000000000000000000000000000000000000000000000000000000815260040161133590611aef565b60405180910390fd5b826002600082815260200190815260200160002060050154421015611398576040517f08c379a000000000000000000000000000000000000000000000000000000000815260040161138f9061226e565b60405180910390fd5b600060026000868152602001908152602001600020600b015460026000878152602001908152602001600020600801546113d29190611e40565b6002600087815260200190815260200160002060030154600260008881526020019081526020016000206002015461140a9190611ea3565b6114149190611ed4565b9050600081600260008881526020019081526020016000206006015461143a9190611e40565b905081600260008881526020019081526020016000206006018190555060003373ffffffffffffffffffffffffffffffffffffffff168260405161147d90611f5f565b60006040518083038185875af1925050503d80600081146114ba576040519150601f19603f3d011682016040523d82523d6000602084013e6114bf565b606091505b5050905080611503576040517f08c379a00000000000000000000000000000000000000000000000000000000081526004016114fa90611fc0565b60405180910390fd5b7f0134aa77a3f86c171887c71c68a33a7c99677f3b358f13331f685476c9829f3287338460405161153693929190611c0d565b60405180910390a1505050505050600160008190555050565b600080fd5b6000819050919050565b61156781611554565b811461157257600080fd5b50565b6000813590506115848161155e565b92915050565b6000819050919050565b61159d8161158a565b81146115a857600080fd5b50565b6000813590506115ba81611594565b92915050565b600073ffffffffffffffffffffffffffffffffffffffff82169050919050565b60006115eb826115c0565b9050919050565b6115fb816115e0565b811461160657600080fd5b50565b600081359050611618816115f2565b92915050565b600080600080600060a0868803121561163a5761163961154f565b5b600061164888828901611575565b9550506020611659888289016115ab565b945050604061166a888289016115ab565b935050606061167b888289016115ab565b925050608061168c88828901611609565b9150509295509295909350565b6000602082840312156116af576116ae61154f565b5b60006116bd848285016115ab565b91505092915050565b6116cf8161158a565b82525050565b6116de81611554565b82525050565b6116ed816115e0565b82525050565b600060e082019050611708600083018a6116c6565b61171560208301896116d5565b61172260408301886116c6565b61172f60608301876116c6565b61173c60808301866116c6565b61174960a08301856116e4565b61175660c08301846116e4565b98975050505050505050565b600061018082019050611778600083018f6116d5565b611785602083018e6116c6565b611792604083018d6116c6565b61179f606083018c6116c6565b6117ac608083018b6116c6565b6117b960a083018a6116c6565b6117c660c08301896116c6565b6117d360e08301886116e4565b6117e16101008301876116c6565b6117ef6101208301866116e4565b6117fd6101408301856116c6565b61180b6101608301846116c6565b9d9c50505050505050505050505050565b600060208201905061183160008301846116c6565b92915050565b600082825260208201905092915050565b7f53747564656e7420616e6420746561636865722063616e6e6f7420626520746860008201527f652073616d650000000000000000000000000000000000000000000000000000602082015250565b60006118a4602683611837565b91506118af82611848565b604082019050919050565b600060208201905081810360008301526118d381611897565b9050919050565b7f50726963652063616e6e6f742062652030000000000000000000000000000000600082015250565b6000611910601183611837565b915061191b826118da565b602082019050919050565b6000602082019050818103600083015261193f81611903565b9050919050565b7f4c6573736f6e732063616e6e6f74206265203000000000000000000000000000600082015250565b600061197c601383611837565b915061198782611946565b602082019050919050565b600060208201905081810360008301526119ab8161196f565b9050919050565b7f4e487b7100000000000000000000000000000000000000000000000000000000600052601160045260246000fd5b60006119ec8261158a565b91506119f78361158a565b9250827fffffffffffffffffffffffffffffffffffffffffffffffffffffffffffffffff03821115611a2c57611a2b6119b2565b5b828201905092915050565b7f4e6f7420612073747564656e7400000000000000000000000000000000000000600082015250565b6000611a6d600d83611837565b9150611a7882611a37565b602082019050919050565b60006020820190508181036000830152611a9c81611a60565b9050919050565b7f436f7572736520686173206e6f2062616c616e63650000000000000000000000600082015250565b6000611ad9601583611837565b9150611ae482611aa3565b602082019050919050565b60006020820190508181036000830152611b0881611acc565b9050919050565b7f416c6c206c6573736f6e7320776572652074616b656e00000000000000000000600082015250565b6000611b45601683611837565b9150611b5082611b0f565b602082019050919050565b60006020820190508181036000830152611b7481611b38565b9050919050565b7f596f7520616c7265616479207369676e656420617474656e646163652e204c6560008201527f73736f6e206e6f74207374617274656400000000000000000000000000000000602082015250565b6000611bd7603083611837565b9150611be282611b7b565b604082019050919050565b60006020820190508181036000830152611c0681611bca565b9050919050565b6000606082019050611c2260008301866116c6565b611c2f60208301856116e4565b611c3c60408301846116c6565b949350505050565b7f5265656e7472616e637947756172643a207265656e7472616e742063616c6c00600082015250565b6000611c7a601f83611837565b9150611c8582611c44565b602082019050919050565b60006020820190508181036000830152611ca981611c6d565b9050919050565b7f4e6f742061207475746f72000000000000000000000000000000000000000000600082015250565b6000611ce6600b83611837565b9150611cf182611cb0565b602082019050919050565b60006020820190508181036000830152611d1581611cd9565b9050919050565b7f596f75206d7573742067697665206174206c65617374206f6e65206c6573736f60008201527f6e206265666f7265207769746864726177000000000000000000000000000000602082015250565b6000611d78603183611837565b9150611d8382611d1c565b604082019050919050565b60006020820190508181036000830152611da781611d6b565b9050919050565b7f416c72656164792077697468647261776e20796f757220617661696c61626c6560008201527f2062616c616e6365000000000000000000000000000000000000000000000000602082015250565b6000611e0a602883611837565b9150611e1582611dae565b604082019050919050565b60006020820190508181036000830152611e3981611dfd565b9050919050565b6000611e4b8261158a565b9150611e568361158a565b925082821015611e6957611e686119b2565b5b828203905092915050565b7f4e487b7100000000000000000000000000000000000000000000000000000000600052601260045260246000fd5b6000611eae8261158a565b9150611eb98361158a565b925082611ec957611ec8611e74565b5b828204905092915050565b6000611edf8261158a565b9150611eea8361158a565b9250817fffffffffffffffffffffffffffffffffffffffffffffffffffffffffffffffff0483118215151615611f2357611f226119b2565b5b828202905092915050565b600081905092915050565b50565b6000611f49600083611f2e565b9150611f5482611f39565b600082019050919050565b6000611f6a82611f3c565b9150819050919050565b7f4661696c656420746f2073656e64204574686572000000000000000000000000600082015250565b6000611faa601483611837565b9150611fb582611f74565b602082019050919050565b60006020820190508181036000830152611fd981611f9d565b9050919050565b7f43616e6e6f742072656163746976617465206120636f7572736520696620796f60008201527f75207265636569766564206174206c65617374206f6e65206c6573736f6e0000602082015250565b600061203c603e83611837565b915061204782611fe0565b604082019050919050565b6000602082019050818103600083015261206b8161202f565b9050919050565b7f436f7572736520616c72656164792066756e6465640000000000000000000000600082015250565b60006120a8601583611837565b91506120b382612072565b602082019050919050565b600060208201905081810360008301526120d78161209b565b9050919050565b7f4e6f7420656e6f75676820455448000000000000000000000000000000000000600082015250565b6000612114600e83611837565b915061211f826120de565b602082019050919050565b6000602082019050818103600083015261214381612107565b9050919050565b7f416c6c206c6573736f6e73207765726520676976656e00000000000000000000600082015250565b6000612180601683611837565b915061218b8261214a565b602082019050919050565b600060208201905081810360008301526121af81612173565b9050919050565b7f53747564656e74206469646e2774207369676e20617474656e64616e63650000600082015250565b60006121ec601e83611837565b91506121f7826121b6565b602082019050919050565b6000602082019050818103600083015261221b816121df565b9050919050565b7f54696d656c6f636b20686173206e6f7420657870697265642079657400000000600082015250565b6000612258601c83611837565b915061226382612222565b602082019050919050565b600060208201905081810360008301526122878161224b565b905091905056fea2646970667358221220f6ce28a4ca8131659ef4817e5bc9e4e17534c4f7d489004e5ae5de26bbea723064736f6c634300080a0033",
  "immutableReferences": {},
  "source": "// SPDX-License-Identifier: MIT\r\npragma solidity 0.8.10;\r\n\r\nimport \"@openzeppelin/contracts/security/ReentrancyGuard.sol\";\r\n\r\n\r\ncontract PapaPay is ReentrancyGuard {\r\n\r\n    uint public papaCount;\r\n\r\n    mapping (uint => Papa) public papas;\r\n\r\n    struct Papa {\r\n        // Short description of the contract \r\n        bytes32 papaDesc;\r\n        // Course number (unique)\r\n        uint papaCourse;\r\n        // Total price for the course\r\n        uint papaPrice;\r\n        // Amount of lessons\r\n        uint papaLessons;\r\n        // Timelock period in days. After that the student can recover his tokens\r\n        uint papaLock;\r\n        // Timestamp\r\n        uint papaTS;\r\n        // Balance of Course\r\n        uint papaBalance;\r\n        // Tutor address\r\n        address papaTutor;\r\n        // Tutor per-lesson signature\r\n        uint papaTutorSign;\r\n        // Student address\r\n        address papaStudent;\r\n        // Student per-lesson signature\r\n        uint papaStudentSign;\r\n        // Teacher withdrawn lessons - this variable is for making calculations on how much balance the tutor has available\r\n        uint papaWithdrew;\r\n    }\r\n  \r\n///\r\n///    EVENTS\r\n///\r\n    event CourseCreated (uint papaCourse, bytes32 papaDesc, uint papaPrice, uint papaLessons, uint papaLock, address papaTutor, address papaStudent);\r\n    event CourseDeposit (uint papaCourse, address papaStudent, uint papaBalance);\r\n    event LessonStarted (uint papaCourse, address papaTutor, uint papaTutorSign);\r\n    event LessonAttended (uint papaCourse, address papaStudent, uint papaStudentSign);\r\n    event TutorWithdraw (uint papaCourse, address papaTutor, uint withdrawn);\r\n    event StudentRecover (uint papaCourse, address papaStudent, uint recovered);\r\n\r\n///\r\n///    MODIFIERS\r\n///\r\n    modifier isTutor(uint _papaCourse) {\r\n        require(msg.sender == papas[_papaCourse].papaTutor, \"Not a tutor\");\r\n        _;\r\n    }\r\n\r\n    modifier isStudent(uint _papaCourse) {\r\n        require(msg.sender == papas[_papaCourse].papaStudent, \"Not a student\");\r\n        _;\r\n    }\r\n\r\n    modifier notSame(address _papaStudent) {\r\n        require(msg.sender != _papaStudent, \"Student and teacher cannot be the same\");\r\n        _;\r\n    }\r\n\r\n    modifier zeroBalance(uint _papaCourse) {\r\n        require(papas[_papaCourse].papaBalance == 0, \"Course already funded\");\r\n        _;\r\n    }\r\n\r\n    modifier hasBalance(uint _papaCourse){\r\n        require(papas[_papaCourse].papaBalance > 0, \"Course has no balance\");\r\n        _;\r\n    }\r\n\r\n    modifier exactBalance(uint _papaCourse) {\r\n        require(msg.value == papas[_papaCourse].papaPrice, \"Not enough ETH\");\r\n        _;\r\n    }\r\n\r\n    modifier priceNotZero(uint _papaPrice) {\r\n        require(_papaPrice > 0, \"Price cannot be 0\");\r\n        _;\r\n    }\r\n\r\n    modifier lessonsNotZero(uint _papaLessons) {\r\n        require(_papaLessons > 0, \"Lessons cannot be 0\");\r\n        _;\r\n    }\r\n\r\n    modifier lessonsTaken(uint _papaCourse) {\r\n        require(papas[_papaCourse].papaStudentSign < papas[_papaCourse].papaLessons, \"All lessons were taken\");\r\n        _;\r\n    }\r\n\r\n    modifier lessonsGiven(uint _papaCourse){\r\n        require(papas[_papaCourse].papaTutorSign < papas[_papaCourse].papaLessons, \"All lessons were given\"); \r\n        _;\r\n    }\r\n\r\n    modifier studentSignedBeforeTutor(uint _papaCourse){\r\n        require(papas[_papaCourse].papaTutorSign < papas[_papaCourse].papaStudentSign, \"Student didn't sign attendance\");\r\n        _;\r\n    }\r\n\r\n    modifier studentAlreadySigned(uint _papaCourse) {\r\n        require(papas[_papaCourse].papaStudentSign == papas[_papaCourse].papaTutorSign, \"You already signed attendace. Lesson not started\");\r\n        _;\r\n    }\r\n\r\n    modifier tutorInittedLesson(uint _papaCourse) {\r\n        require(papas[_papaCourse].papaTutorSign > 0, \"You must give at least one lesson before withdraw\");\r\n        _;\r\n    }\r\n\r\n    modifier noGivenLessons(uint _papaCourse){\r\n        require(papas[_papaCourse].papaTutorSign == 0, \"Cannot reactivate a course if you received at least one lesson\");\r\n        _;\r\n    }\r\n\r\n    modifier tutorCanWithdraw(uint _papaCourse){\r\n        require(papas[_papaCourse].papaTutorSign != papas[_papaCourse].papaWithdrew,\"Already withdrawn your available balance\");\r\n        _;\r\n    }\r\n\r\n    modifier timelock(uint _papaCourse){\r\n        require(block.timestamp >= papas[_papaCourse].papaTS,\"Timelock has not expired yet\");\r\n        _;\r\n    }\r\n\r\n /// constructor()  {\r\n /// }\r\n\r\n/// Anyone who call this function will be a Tutor. Tutor creates the course, \r\n/// wich includes number of lessons, total cost, address of student and a time lock\r\n    function papaCreate( bytes32 _papaDesc, uint _papaPrice, uint _papaLessons, uint _papaLock, address _papaStudent ) \r\n    external\r\n    notSame(_papaStudent)\r\n    priceNotZero(_papaPrice)\r\n    lessonsNotZero(_papaLessons)\r\n    {\r\n        papas[papaCount].papaDesc = _papaDesc;\r\n        papas[papaCount].papaCourse = papaCount;\r\n        papas[papaCount].papaPrice = _papaPrice;\r\n        papas[papaCount].papaLessons = _papaLessons;\r\n        papas[papaCount].papaLock = _papaLock;\r\n        papas[papaCount].papaTutor = msg.sender;\r\n        papas[papaCount].papaStudent = _papaStudent;\r\n        emit CourseCreated(papaCount, _papaDesc, _papaPrice, _papaLessons, _papaLock, msg.sender,_papaStudent);\r\n        papaCount = papaCount+1;\r\n    }\r\n/// Only a student can access this\r\n/// Student approves that contract, the total cost of the course \r\n/// is deducted from student wallet and stored on the contract\r\n\r\n    function papaApprove(uint _papaCourse)\r\n    external\r\n    payable \r\n    isStudent(_papaCourse)\r\n    noGivenLessons(_papaCourse)\r\n    zeroBalance(_papaCourse) \r\n    exactBalance(_papaCourse)\r\n    {\r\n        papas[_papaCourse].papaBalance += msg.value;\r\n        papas[_papaCourse].papaTS = block.timestamp + (papas[_papaCourse].papaLock * 60);\r\n        emit CourseDeposit(_papaCourse, msg.sender, msg.value);\r\n    }\r\n\r\n/// Only a tutor can access this\r\n/// The tutor calls for the start of an individual lesson. The tutor cannot sign this if the student didn't sign attendance\r\n    function papaInitLesson(uint _papaCourse) \r\n    external\r\n    isTutor(_papaCourse)\r\n    hasBalance(_papaCourse)\r\n    lessonsGiven(_papaCourse)\r\n    studentSignedBeforeTutor(_papaCourse)\r\n    {\r\n        papas[_papaCourse].papaTutorSign += 1;\r\n        papas[_papaCourse].papaTS = block.timestamp + (papas[_papaCourse].papaLock * 60);\r\n        emit LessonStarted(_papaCourse, msg.sender, papas[_papaCourse].papaTutorSign);\r\n    }\r\n\r\n/// Only a student can access this  \r\n/// The student is giving attendance, making possible a partial withdrawn for the teacher\r\n    function papaAttendLesson(uint _papaCourse) \r\n    external \r\n    isStudent(_papaCourse)\r\n    hasBalance(_papaCourse)\r\n    lessonsTaken(_papaCourse)\r\n    studentAlreadySigned(_papaCourse)\r\n    {\r\n        papas[_papaCourse].papaStudentSign += 1;\r\n        emit LessonAttended(_papaCourse, msg.sender,papas[_papaCourse].papaStudentSign);\r\n    }\r\n\r\n/// Only a tutor can access this\r\n/// Tutor can withdraw one lesson at a time, or multiple lessons given at once\r\n    function papaWithdraw(uint _papaCourse) \r\n    external\r\n    nonReentrant\r\n    isTutor(_papaCourse)\r\n    hasBalance(_papaCourse)\r\n    tutorInittedLesson(_papaCourse)\r\n    tutorCanWithdraw(_papaCourse)\r\n    {\r\n        uint papaAmount = (papas[_papaCourse].papaPrice / papas[_papaCourse].papaLessons) * (papas[_papaCourse].papaTutorSign - papas[_papaCourse].papaWithdrew);\r\n        papas[_papaCourse].papaWithdrew = papas[_papaCourse].papaTutorSign;\r\n        papas[_papaCourse].papaBalance = papas[_papaCourse].papaBalance - papaAmount;\r\n        (bool sent, ) = msg.sender.call{value: papaAmount}(\"\");\r\n        require(sent, \"Failed to send Ether\");\r\n        emit TutorWithdraw(_papaCourse, msg.sender, papaAmount);\r\n    }\r\n\r\n/// Only a student can access this\r\n/// If a time lock for unfulfillment is set, after that period of time, the student can recover all of his remaining assets\r\n    function papaRecover(uint _papaCourse) \r\n    external \r\n    nonReentrant\r\n    isStudent(_papaCourse)\r\n    hasBalance(_papaCourse)\r\n    timelock(_papaCourse)\r\n    {\r\n        uint papaTutorAmount = (papas[_papaCourse].papaPrice / papas[_papaCourse].papaLessons) * (papas[_papaCourse].papaTutorSign - papas[_papaCourse].papaWithdrew);\r\n        uint _recover = papas[_papaCourse].papaBalance - papaTutorAmount;\r\n        papas[_papaCourse].papaBalance = papaTutorAmount;\r\n        (bool sent, ) = msg.sender.call{value: _recover}(\"\");\r\n        require(sent, \"Failed to send Ether\");\r\n        emit StudentRecover(_papaCourse, msg.sender, _recover);\r\n    }\r\n\r\n    fallback () external {\r\n///  A fallback here\r\n    }\r\n  /// TEST TEST TEST\r\n   function fetchCourse(uint _papaCourse) public view\r\n      returns (uint papaCourse, bytes32 papaDesc, uint papaPrice, uint papaLessons, uint papaLock, address papaTutor, address papaStudent)\r\n    {\r\n        papaDesc = papas[_papaCourse].papaDesc;\r\n        papaCourse = papas[_papaCourse].papaCourse;\r\n        papaPrice = papas[_papaCourse].papaPrice;\r\n        papaLessons = papas[_papaCourse].papaLessons;\r\n        papaLock = papas[_papaCourse].papaLock;\r\n        papaTutor = papas[_papaCourse].papaTutor;\r\n        papaStudent = papas[_papaCourse].papaStudent;\r\n        return (papaCourse, papaDesc, papaPrice, papaLessons, papaLock, papaTutor, papaStudent);\r\n    }\r\n}",
  "sourcePath": "C:\\Users\\msolovey\\Documents\\git\\papaPay\\contracts\\PapaPay.sol",
  "compiler": {
    "name": "solc",
    "version": "0.8.10+commit.fc410830.Emscripten.clang"
  },
  "schemaVersion": "3.4.3",
  "updatedAt": "2021-11-25T20:51:42.643Z",
  "networkType": "ethereum",
  "devdoc": {
    "kind": "dev",
    "methods": {},
    "version": 1
  },
  "userdoc": {
    "events": {
      "CourseCreated(uint256,bytes32,uint256,uint256,uint256,address,address)": {
        "notice": "    EVENTS"
      }
    },
    "kind": "user",
    "methods": {
      "fetchCourse(uint256)": {
        "notice": "TEST TEST TEST"
      },
      "papaApprove(uint256)": {
        "notice": "Only a student can access this Student approves that contract, the total cost of the course  is deducted from student wallet and stored on the contract"
      },
      "papaAttendLesson(uint256)": {
        "notice": "Only a student can access this   The student is giving attendance, making possible a partial withdrawn for the teacher"
      },
      "papaCreate(bytes32,uint256,uint256,uint256,address)": {
        "notice": "Anyone who call this function will be a Tutor. Tutor creates the course,  wich includes number of lessons, total cost, address of student and a time lock"
      },
      "papaInitLesson(uint256)": {
        "notice": "Only a tutor can access this The tutor calls for the start of an individual lesson. The tutor cannot sign this if the student didn't sign attendance"
      },
      "papaRecover(uint256)": {
        "notice": "Only a student can access this If a time lock for unfulfillment is set, after that period of time, the student can recover all of his remaining assets"
      },
      "papaWithdraw(uint256)": {
        "notice": "Only a tutor can access this Tutor can withdraw one lesson at a time, or multiple lessons given at once"
      }
    },
    "version": 1
  }
}