{
  "contractName": "PapaPay",
  "abi": [
    {
      "inputs": [],
      "stateMutability": "nonpayable",
      "type": "constructor"
    },
    {
      "anonymous": false,
      "inputs": [
        {
          "indexed": false,
          "internalType": "uint256",
          "name": "papaCourse",
          "type": "uint256"
        },
        {
          "indexed": false,
          "internalType": "string",
          "name": "papaDesc",
          "type": "string"
        }
      ],
      "name": "CourseCreated",
      "type": "event"
    },
    {
      "anonymous": false,
      "inputs": [
        {
          "indexed": false,
          "internalType": "uint256",
          "name": "papaCourse",
          "type": "uint256"
        },
        {
          "indexed": false,
          "internalType": "uint256",
          "name": "papaBalance",
          "type": "uint256"
        }
      ],
      "name": "CourseDeposit",
      "type": "event"
    },
    {
      "anonymous": false,
      "inputs": [
        {
          "indexed": false,
          "internalType": "uint256",
          "name": "papaCourse",
          "type": "uint256"
        },
        {
          "indexed": false,
          "internalType": "uint256",
          "name": "papaStudentSign",
          "type": "uint256"
        }
      ],
      "name": "LessonAttended",
      "type": "event"
    },
    {
      "anonymous": false,
      "inputs": [
        {
          "indexed": false,
          "internalType": "uint256",
          "name": "papaCourse",
          "type": "uint256"
        },
        {
          "indexed": false,
          "internalType": "uint256",
          "name": "papaTutorSign",
          "type": "uint256"
        }
      ],
      "name": "LessonStarted",
      "type": "event"
    },
    {
      "stateMutability": "nonpayable",
      "type": "fallback"
    },
    {
      "inputs": [],
      "name": "papaCount",
      "outputs": [
        {
          "internalType": "uint256",
          "name": "",
          "type": "uint256"
        }
      ],
      "stateMutability": "view",
      "type": "function",
      "constant": true
    },
    {
      "inputs": [
        {
          "internalType": "string",
          "name": "_papaDesc",
          "type": "string"
        },
        {
          "internalType": "uint256",
          "name": "_papaPrice",
          "type": "uint256"
        },
        {
          "internalType": "uint256",
          "name": "_papaLessons",
          "type": "uint256"
        },
        {
          "internalType": "uint256",
          "name": "_papaLock",
          "type": "uint256"
        },
        {
          "internalType": "address",
          "name": "_papaStudent",
          "type": "address"
        }
      ],
      "name": "papaCreate",
      "outputs": [
        {
          "internalType": "bool",
          "name": "",
          "type": "bool"
        }
      ],
      "stateMutability": "nonpayable",
      "type": "function"
    },
    {
      "inputs": [
        {
          "internalType": "uint256",
          "name": "_papaCourse",
          "type": "uint256"
        }
      ],
      "name": "papaApprove",
      "outputs": [],
      "stateMutability": "payable",
      "type": "function",
      "payable": true
    },
    {
      "inputs": [
        {
          "internalType": "address",
          "name": "_anyaddress",
          "type": "address"
        }
      ],
      "name": "papaView",
      "outputs": [],
      "stateMutability": "view",
      "type": "function",
      "constant": true
    },
    {
      "inputs": [
        {
          "internalType": "uint256",
          "name": "_papaCourse",
          "type": "uint256"
        }
      ],
      "name": "papaInitLesson",
      "outputs": [],
      "stateMutability": "nonpayable",
      "type": "function"
    },
    {
      "inputs": [
        {
          "internalType": "uint256",
          "name": "_papaCourse",
          "type": "uint256"
        }
      ],
      "name": "papaAttendLesson",
      "outputs": [],
      "stateMutability": "nonpayable",
      "type": "function"
    },
    {
      "inputs": [
        {
          "internalType": "uint256",
          "name": "_papaCourse",
          "type": "uint256"
        }
      ],
      "name": "papaWithdraw",
      "outputs": [],
      "stateMutability": "nonpayable",
      "type": "function"
    },
    {
      "inputs": [
        {
          "internalType": "uint256",
          "name": "_papaCourse",
          "type": "uint256"
        }
      ],
      "name": "papaRecover",
      "outputs": [],
      "stateMutability": "nonpayable",
      "type": "function"
    }
  ],
  "bytecode": "0x608060405234801561001057600080fd5b506001600081905550611f3d806100286000396000f3fe60806040526004361061007f5760003560e01c80639254e1721161004e5780639254e17214610126578063f062ba1014610163578063fc02ea3c1461018e578063ffbddbee146101b757610080565b806334b8ed521461008f57806349f8ce12146100b85780635dce1313146100e157806389fe935e1461010a57610080565b5b34801561008c57600080fd5b50005b34801561009b57600080fd5b506100b660048036038101906100b1919061129f565b6101e0565b005b3480156100c457600080fd5b506100df60048036038101906100da9190611357565b6101e3565b005b3480156100ed57600080fd5b5061010860048036038101906101039190611357565b61043d565b005b610124600480360381019061011f9190611357565b6107bf565b005b34801561013257600080fd5b5061014d600480360381019061014891906112c8565b6109cb565b60405161015a9190611904565b60405180910390f35b34801561016f57600080fd5b50610178610c2d565b6040516101859190611b3f565b60405180910390f35b34801561019a57600080fd5b506101b560048036038101906101b09190611357565b610c33565b005b3480156101c357600080fd5b506101de60048036038101906101d99190611357565b610ed5565b005b50565b6002600082815260200190815260200160002060090160009054906101000a900473ffffffffffffffffffffffffffffffffffffffff1673ffffffffffffffffffffffffffffffffffffffff163373ffffffffffffffffffffffffffffffffffffffff1614610287576040517f08c379a000000000000000000000000000000000000000000000000000000000815260040161027e90611a9f565b60405180910390fd5b6000600260008381526020019081526020016000206006015414156102e1576040517f08c379a00000000000000000000000000000000000000000000000000000000081526004016102d890611a3f565b60405180910390fd5b600260008281526020019081526020016000206003015460026000838152602001908152602001600020600a01541061034f576040517f08c379a000000000000000000000000000000000000000000000000000000000815260040161034690611a1f565b60405180910390fd5b600260008281526020019081526020016000206008015460026000838152602001908152602001600020600a0154146103bd576040517f08c379a00000000000000000000000000000000000000000000000000000000081526004016103b4906119ff565b60405180910390fd5b600160026000838152602001908152602001600020600a0160008282546103e49190611c3b565b925050819055507f7363f45a12f7ce94988b9d37b2be5952d9ab1f6ce2c0e7a787da4aef9c109d738160026000848152602001908152602001600020600a0154604051610432929190611b8a565b60405180910390a150565b60026000541415610483576040517f08c379a000000000000000000000000000000000000000000000000000000000815260040161047a90611adf565b60405180910390fd5b60026000819055506002600082815260200190815260200160002060070160009054906101000a900473ffffffffffffffffffffffffffffffffffffffff1673ffffffffffffffffffffffffffffffffffffffff163373ffffffffffffffffffffffffffffffffffffffff161461052f576040517f08c379a000000000000000000000000000000000000000000000000000000000815260040161052690611b1f565b60405180910390fd5b600060026000838152602001908152602001600020600601541415801561056d57506000600260008381526020019081526020016000206008015414155b6105ac576040517f08c379a00000000000000000000000000000000000000000000000000000000081526004016105a390611a7f565b60405180910390fd5b60026000828152602001908152602001600020600b01546002600083815260200190815260200160002060080154141561061b576040517f08c379a00000000000000000000000000000000000000000000000000000000081526004016106129061197f565b60405180910390fd5b600060026000838152602001908152602001600020600b015460026000848152602001908152602001600020600801546106559190611d1c565b6002600084815260200190815260200160002060030154600260008581526020019081526020016000206002015461068d9190611c91565b6106979190611cc2565b9050600260008381526020019081526020016000206008015460026000848152602001908152602001600020600b01819055508060026000848152602001908152602001600020600601546106ec9190611d1c565b600260008481526020019081526020016000206006018190555060003373ffffffffffffffffffffffffffffffffffffffff168260405161072c906118ef565b60006040518083038185875af1925050503d8060008114610769576040519150601f19603f3d011682016040523d82523d6000602084013e61076e565b606091505b50509050806107b2576040517f08c379a00000000000000000000000000000000000000000000000000000000081526004016107a9906119bf565b60405180910390fd5b5050600160008190555050565b806002600082815260200190815260200160002060090160009054906101000a900473ffffffffffffffffffffffffffffffffffffffff1673ffffffffffffffffffffffffffffffffffffffff163373ffffffffffffffffffffffffffffffffffffffff1614610864576040517f08c379a000000000000000000000000000000000000000000000000000000000815260040161085b90611a9f565b60405180910390fd5b8160006002600083815260200190815260200160002060060154146108be576040517f08c379a00000000000000000000000000000000000000000000000000000000081526004016108b590611abf565b60405180910390fd5b8260026000828152602001908152602001600020600201543414610917576040517f08c379a000000000000000000000000000000000000000000000000000000000815260040161090e90611a5f565b60405180910390fd5b3460026000868152602001908152602001600020600601600082825461093d9190611c3b565b92505081905550603c60026000868152602001908152602001600020600401546109679190611cc2565b426109729190611c3b565b60026000868152602001908152602001600020600501819055507f11d0cd4dfc5cdd45ffbd5e103be88ad523a93e6cbe44de276c5e20248d7d58ee84346040516109bd929190611b8a565b60405180910390a150505050565b600060a8831115610a11576040517f08c379a0000000000000000000000000000000000000000000000000000000008152600401610a0890611aff565b60405180910390fd5b8173ffffffffffffffffffffffffffffffffffffffff163373ffffffffffffffffffffffffffffffffffffffff161415610a80576040517f08c379a0000000000000000000000000000000000000000000000000000000008152600401610a779061195f565b60405180910390fd5b856002600060015481526020019081526020016000206000019080519060200190610aac92919061116a565b50600154600260006001548152602001908152602001600020600101819055508460026000600154815260200190815260200160002060020181905550836002600060015481526020019081526020016000206003018190555082600260006001548152602001908152602001600020600401819055503360026000600154815260200190815260200160002060070160006101000a81548173ffffffffffffffffffffffffffffffffffffffff021916908373ffffffffffffffffffffffffffffffffffffffff1602179055508160026000600154815260200190815260200160002060090160006101000a81548173ffffffffffffffffffffffffffffffffffffffff021916908373ffffffffffffffffffffffffffffffffffffffff1602179055507fc2c844c5f6c72fe99b99de0942ba619e99957d3e8f7e614263ecfe40de952e5860015487604051610c04929190611b5a565b60405180910390a160018054610c1a9190611c3b565b6001819055506001905095945050505050565b60015481565b6002600082815260200190815260200160002060070160009054906101000a900473ffffffffffffffffffffffffffffffffffffffff1673ffffffffffffffffffffffffffffffffffffffff163373ffffffffffffffffffffffffffffffffffffffff1614610cd7576040517f08c379a0000000000000000000000000000000000000000000000000000000008152600401610cce9061199f565b60405180910390fd5b600060026000838152602001908152602001600020600601541415610d31576040517f08c379a0000000000000000000000000000000000000000000000000000000008152600401610d2890611a3f565b60405180910390fd5b6002600082815260200190815260200160002060030154600260008381526020019081526020016000206008015410610d9f576040517f08c379a0000000000000000000000000000000000000000000000000000000008152600401610d969061191f565b60405180910390fd5b60026000828152602001908152602001600020600a0154600260008381526020019081526020016000206008015410610e0d576040517f08c379a0000000000000000000000000000000000000000000000000000000008152600401610e049061193f565b60405180910390fd5b6001600260008381526020019081526020016000206008016000828254610e349190611c3b565b92505081905550603c6002600083815260200190815260200160002060040154610e5e9190611cc2565b42610e699190611c3b565b60026000838152602001908152602001600020600501819055507fa412764a711d5c1840b30d5ccfd1b317b1a008d2c3fdf25f87c2bee0ba30d367816002600084815260200190815260200160002060080154604051610eca929190611b8a565b60405180910390a150565b60026000541415610f1b576040517f08c379a0000000000000000000000000000000000000000000000000000000008152600401610f1290611adf565b60405180910390fd5b60026000819055506002600082815260200190815260200160002060090160009054906101000a900473ffffffffffffffffffffffffffffffffffffffff1673ffffffffffffffffffffffffffffffffffffffff163373ffffffffffffffffffffffffffffffffffffffff1614610fc7576040517f08c379a0000000000000000000000000000000000000000000000000000000008152600401610fbe90611a9f565b60405180910390fd5b600060026000838152602001908152602001600020600601541415611021576040517f08c379a000000000000000000000000000000000000000000000000000000000815260040161101890611a3f565b60405180910390fd5b600260008281526020019081526020016000206005015442101561107a576040517f08c379a0000000000000000000000000000000000000000000000000000000008152600401611071906119df565b60405180910390fd5b6000600260008381526020019081526020016000206006015490506000600260008481526020019081526020016000206006018190555060003373ffffffffffffffffffffffffffffffffffffffff16826040516110d7906118ef565b60006040518083038185875af1925050503d8060008114611114576040519150601f19603f3d011682016040523d82523d6000602084013e611119565b606091505b505090508061115d576040517f08c379a0000000000000000000000000000000000000000000000000000000008152600401611154906119bf565b60405180910390fd5b5050600160008190555050565b82805461117690611dda565b90600052602060002090601f01602090048101928261119857600085556111df565b82601f106111b157805160ff19168380011785556111df565b828001600101855582156111df579182015b828111156111de5782518255916020019190600101906111c3565b5b5090506111ec91906111f0565b5090565b5b808211156112095760008160009055506001016111f1565b5090565b600061122061121b84611be4565b611bb3565b90508281526020810184848401111561123857600080fd5b611243848285611d98565b509392505050565b60008135905061125a81611ed9565b92915050565b600082601f83011261127157600080fd5b813561128184826020860161120d565b91505092915050565b60008135905061129981611ef0565b92915050565b6000602082840312156112b157600080fd5b60006112bf8482850161124b565b91505092915050565b600080600080600060a086880312156112e057600080fd5b600086013567ffffffffffffffff8111156112fa57600080fd5b61130688828901611260565b95505060206113178882890161128a565b94505060406113288882890161128a565b93505060606113398882890161128a565b925050608061134a8882890161124b565b9150509295509295909350565b60006020828403121561136957600080fd5b60006113778482850161128a565b91505092915050565b61138981611d62565b82525050565b600061139a82611c14565b6113a48185611c2a565b93506113b4818560208601611da7565b6113bd81611ec8565b840191505092915050565b60006113d5601683611c2a565b91507f416c6c206c6573736f6e73207765726520676976656e000000000000000000006000830152602082019050919050565b6000611415601e83611c2a565b91507f53747564656e74206469646e2774207369676e20617474656e64616e636500006000830152602082019050919050565b6000611455602683611c2a565b91507f53747564656e7420616e6420746561636865722063616e6e6f7420626520746860008301527f652073616d6500000000000000000000000000000000000000000000000000006020830152604082019050919050565b60006114bb602283611c2a565b91507f416c72656164792077697468647261776e20796f7572206c617374206c65737360008301527f6f6e0000000000000000000000000000000000000000000000000000000000006020830152604082019050919050565b6000611521600b83611c2a565b91507f4e6f742061205475746f720000000000000000000000000000000000000000006000830152602082019050919050565b6000611561601483611c2a565b91507f4661696c656420746f2073656e642045746865720000000000000000000000006000830152602082019050919050565b60006115a1601c83611c2a565b91507f54696d656c6f636b20686173206e6f74206578706972656420796574000000006000830152602082019050919050565b60006115e1603083611c2a565b91507f596f7520616c7265616479207369676e656420617474656e646163652e204c6560008301527f73736f6e206e6f742073746172746564000000000000000000000000000000006020830152604082019050919050565b6000611647601683611c2a565b91507f416c6c206c6573736f6e7320776572652074616b656e000000000000000000006000830152602082019050919050565b6000611687601583611c2a565b91507f436f7572736520686173206e6f2062616c616e636500000000000000000000006000830152602082019050919050565b60006116c7600e83611c2a565b91507f4e6f7420656e6f756768204554480000000000000000000000000000000000006000830152602082019050919050565b6000611707602883611c2a565b91507f436865636b20636f757273652062616c616e6365206f72206c6573736f6e207360008301527f69676e61747572650000000000000000000000000000000000000000000000006020830152604082019050919050565b600061176d600083611c1f565b9150600082019050919050565b6000611787600d83611c2a565b91507f4e6f7420612073747564656e74000000000000000000000000000000000000006000830152602082019050919050565b60006117c7601583611c2a565b91507f436f7572736520616c72656164792066756e64656400000000000000000000006000830152602082019050919050565b6000611807601f83611c2a565b91507f5265656e7472616e637947756172643a207265656e7472616e742063616c6c006000830152602082019050919050565b6000611847602a83611c2a565b91507f54696d656c6f636b2063616e6e6f742065786365656420372064617973206f7260008301527f2031363820686f757273000000000000000000000000000000000000000000006020830152604082019050919050565b60006118ad600b83611c2a565b91507f4e6f742061207475746f720000000000000000000000000000000000000000006000830152602082019050919050565b6118e981611d8e565b82525050565b60006118fa82611760565b9150819050919050565b60006020820190506119196000830184611380565b92915050565b60006020820190508181036000830152611938816113c8565b9050919050565b6000602082019050818103600083015261195881611408565b9050919050565b6000602082019050818103600083015261197881611448565b9050919050565b60006020820190508181036000830152611998816114ae565b9050919050565b600060208201905081810360008301526119b881611514565b9050919050565b600060208201905081810360008301526119d881611554565b9050919050565b600060208201905081810360008301526119f881611594565b9050919050565b60006020820190508181036000830152611a18816115d4565b9050919050565b60006020820190508181036000830152611a388161163a565b9050919050565b60006020820190508181036000830152611a588161167a565b9050919050565b60006020820190508181036000830152611a78816116ba565b9050919050565b60006020820190508181036000830152611a98816116fa565b9050919050565b60006020820190508181036000830152611ab88161177a565b9050919050565b60006020820190508181036000830152611ad8816117ba565b9050919050565b60006020820190508181036000830152611af8816117fa565b9050919050565b60006020820190508181036000830152611b188161183a565b9050919050565b60006020820190508181036000830152611b38816118a0565b9050919050565b6000602082019050611b5460008301846118e0565b92915050565b6000604082019050611b6f60008301856118e0565b8181036020830152611b81818461138f565b90509392505050565b6000604082019050611b9f60008301856118e0565b611bac60208301846118e0565b9392505050565b6000604051905081810181811067ffffffffffffffff82111715611bda57611bd9611e99565b5b8060405250919050565b600067ffffffffffffffff821115611bff57611bfe611e99565b5b601f19601f8301169050602081019050919050565b600081519050919050565b600081905092915050565b600082825260208201905092915050565b6000611c4682611d8e565b9150611c5183611d8e565b9250827fffffffffffffffffffffffffffffffffffffffffffffffffffffffffffffffff03821115611c8657611c85611e0c565b5b828201905092915050565b6000611c9c82611d8e565b9150611ca783611d8e565b925082611cb757611cb6611e3b565b5b828204905092915050565b6000611ccd82611d8e565b9150611cd883611d8e565b9250817fffffffffffffffffffffffffffffffffffffffffffffffffffffffffffffffff0483118215151615611d1157611d10611e0c565b5b828202905092915050565b6000611d2782611d8e565b9150611d3283611d8e565b925082821015611d4557611d44611e0c565b5b828203905092915050565b6000611d5b82611d6e565b9050919050565b60008115159050919050565b600073ffffffffffffffffffffffffffffffffffffffff82169050919050565b6000819050919050565b82818337600083830152505050565b60005b83811015611dc5578082015181840152602081019050611daa565b83811115611dd4576000848401525b50505050565b60006002820490506001821680611df257607f821691505b60208210811415611e0657611e05611e6a565b5b50919050565b7f4e487b7100000000000000000000000000000000000000000000000000000000600052601160045260246000fd5b7f4e487b7100000000000000000000000000000000000000000000000000000000600052601260045260246000fd5b7f4e487b7100000000000000000000000000000000000000000000000000000000600052602260045260246000fd5b7f4e487b7100000000000000000000000000000000000000000000000000000000600052604160045260246000fd5b6000601f19601f8301169050919050565b611ee281611d50565b8114611eed57600080fd5b50565b611ef981611d8e565b8114611f0457600080fd5b5056fea26469706673582212201e08c896ade9090d339ced071eeab733b0a6d3e4ffeead759b8b952ed2fa8c7064736f6c63430008000033",
  "immutableReferences": {},
  "source": "// SPDX-License-Identifier: MIT\r\npragma solidity >=0.6 <0.9.0;\r\n\r\nimport \"@openzeppelin/contracts/security/ReentrancyGuard.sol\";\r\n\r\ncontract PapaPay is ReentrancyGuard {\r\n\r\n  uint public papaCount;\r\n\r\n  mapping (uint => Papa) private papas;\r\n\r\n  struct Papa {\r\n          // Short description of the contract \r\n          string papaDesc;\r\n          // Course number (unique)\r\n          uint papaCourse;\r\n          // Total price for the course\r\n          uint papaPrice;\r\n          // Amount of lessons\r\n          uint papaLessons;\r\n          // Timelock period in days. After that the student can recover his tokens\r\n          uint papaLock;\r\n          // Timestamp\r\n          uint papaTS;\r\n          // Balance of Course\r\n          uint papaBalance;\r\n          // Teacher and student addresses and signed assistance\r\n          address papaTutor;\r\n          uint papaTutorSign;\r\n          address papaStudent;\r\n          uint papaStudentSign;\r\n          // Withdrawn lessons\r\n          uint papaWithdrew;\r\n        }\r\n\r\n///\r\n///    EVENTS\r\n///\r\n\r\n  event CourseCreated (uint papaCourse, string papaDesc);\r\n  event CourseDeposit (uint papaCourse, uint papaBalance);\r\n  event LessonStarted (uint papaCourse, uint papaTutorSign);\r\n  event LessonAttended (uint papaCourse, uint papaStudentSign);\r\n\r\n///\r\n///    MODIFIERS\r\n///\r\n\r\n\r\n  modifier isStudent(uint _papaCourse) {\r\n      require(msg.sender == papas[_papaCourse].papaStudent, \"Not a student\");\r\n      _;\r\n  }\r\n\r\n  modifier zeroBalance(uint _papaCourse) {\r\n       require(papas[_papaCourse].papaBalance == 0, \"Course already funded\");\r\n      _;\r\n  }\r\n\r\n  modifier exactBalance(uint _papaCourse) {\r\n       require(msg.value == papas[_papaCourse].papaPrice, \"Not enough ETH\");\r\n      _;\r\n  }\r\n\r\n  constructor()  {\r\n  }\r\n\r\n/// Anyone who call this function will be a Tutor. Tutor creates the course, wich includes number of lessons, total cost, address of student and a time lock\r\n  function papaCreate( string memory _papaDesc, uint _papaPrice, uint _papaLessons, uint _papaLock, address _papaStudent ) \r\n    external \r\n    returns (bool)\r\n    {\r\n      require(_papaLock <= 168,\"Timelock cannot exceed 7 days or 168 hours\");\r\n      require(msg.sender != _papaStudent,\"Student and teacher cannot be the same\");\r\n      papas[papaCount].papaDesc = _papaDesc;\r\n      papas[papaCount].papaCourse= papaCount;\r\n      papas[papaCount].papaPrice= _papaPrice;\r\n      papas[papaCount].papaLessons= _papaLessons;\r\n      papas[papaCount].papaLock= _papaLock;\r\n      papas[papaCount].papaTutor= msg.sender;\r\n      papas[papaCount].papaStudent= _papaStudent;\r\n      emit CourseCreated(papaCount, _papaDesc);\r\n      papaCount = papaCount +1;\r\n      return true;\r\n    }\r\n\r\n/// Only a student can access this\r\n/// Student approves that contract, the total cost of the course is deducted from student wallet and stored on the contract\r\n\r\n  function papaApprove(uint _papaCourse)\r\n    external\r\n    payable \r\n    isStudent(_papaCourse) \r\n    zeroBalance(_papaCourse) \r\n    exactBalance(_papaCourse)\r\n    {\r\n      papas[_papaCourse].papaBalance += msg.value;\r\n      papas[_papaCourse].papaTS = block.timestamp + (papas[_papaCourse].papaLock * 60);\r\n      emit CourseDeposit(_papaCourse,msg.value);\r\n    }\r\n\r\n/// List all courses for any given address\r\n  function papaView(address _anyaddress) \r\n    external \r\n    view \r\n    { }\r\n\r\n/// Only a tutor can access this\r\n/// The tutor calls for the start of an individual lesson. The tutor cannot sign this if the student didn't sign attendance\r\n  function papaInitLesson(uint _papaCourse) \r\n    external \r\n    {\r\n      require (msg.sender == papas[_papaCourse].papaTutor, \"Not a Tutor\");\r\n      require (papas[_papaCourse].papaBalance != 0, \"Course has no balance\");\r\n      require (papas[_papaCourse].papaTutorSign < papas[_papaCourse].papaLessons, \"All lessons were given\");\r\n      require (papas[_papaCourse].papaTutorSign < papas[_papaCourse].papaStudentSign, \"Student didn't sign attendance\");\r\n      papas[_papaCourse].papaTutorSign += 1;\r\n      papas[_papaCourse].papaTS = block.timestamp + (papas[_papaCourse].papaLock * 60);\r\n      emit LessonStarted(_papaCourse,papas[_papaCourse].papaTutorSign);\r\n    }\r\n\r\n/// Only a student can access this  \r\n/// The student is giving attendance, making possible a partial withdrawn for the teacher\r\n  function papaAttendLesson(uint _papaCourse) \r\n    external \r\n    {\r\n      require (msg.sender == papas[_papaCourse].papaStudent, \"Not a student\");\r\n      require (papas[_papaCourse].papaBalance != 0, \"Course has no balance\");\r\n      require (papas[_papaCourse].papaStudentSign < papas[_papaCourse].papaLessons, \"All lessons were taken\");\r\n      require (papas[_papaCourse].papaStudentSign == papas[_papaCourse].papaTutorSign, \"You already signed attendace. Lesson not started\");\r\n      papas[_papaCourse].papaStudentSign += 1;\r\n      emit LessonAttended(_papaCourse,papas[_papaCourse].papaStudentSign);\r\n    }\r\n\r\n/// Only a tutor can access this\r\n/// Tutor can withdraw one lesson at a time, or multiple lessons given at once\r\n  function papaWithdraw(uint _papaCourse) \r\n    external\r\n    nonReentrant\r\n    {\r\n      require (msg.sender == papas[_papaCourse].papaTutor, \"Not a tutor\");\r\n      require (papas[_papaCourse].papaBalance != 0 && papas[_papaCourse].papaTutorSign != 0,\"Check course balance or lesson signature\");\r\n      require (papas[_papaCourse].papaTutorSign != papas[_papaCourse].papaWithdrew,\"Already withdrawn your last lesson\");\r\n      uint papaAmount = (papas[_papaCourse].papaPrice / papas[_papaCourse].papaLessons) * (papas[_papaCourse].papaTutorSign - papas[_papaCourse].papaWithdrew);\r\n      papas[_papaCourse].papaWithdrew = papas[_papaCourse].papaTutorSign;\r\n      papas[_papaCourse].papaBalance = papas[_papaCourse].papaBalance - papaAmount;\r\n      (bool sent, ) = msg.sender.call{value: papaAmount}(\"\");\r\n      require(sent, \"Failed to send Ether\");\r\n    }\r\n\r\n/// Only a student can access this\r\n/// If a time lock for unfulfillment is set, after that period of time, the student can recover all of his remaining assets\r\n  function papaRecover(uint _papaCourse) \r\n  external \r\n  nonReentrant\r\n  {\r\n    require (msg.sender == papas[_papaCourse].papaStudent, \"Not a student\");\r\n    require (papas[_papaCourse].papaBalance != 0,\"Course has no balance\");\r\n    require (block.timestamp >= papas[_papaCourse].papaTS,\"Timelock has not expired yet\");\r\n    uint _recover = papas[_papaCourse].papaBalance;\r\n    papas[_papaCourse].papaBalance = 0;\r\n    (bool sent, ) = msg.sender.call{value: _recover}(\"\");\r\n    require(sent, \"Failed to send Ether\");\r\n  }\r\n\r\n  fallback () external {\r\n///  A fallback here\r\n  }\r\n\r\n}",
  "sourcePath": "D:\\OneDrive\\Code\\papaPay\\contracts\\PapaPay.sol",
  "compiler": {
    "name": "solc",
    "version": "0.8.0+commit.c7dfd78e.Emscripten.clang"
  },
  "schemaVersion": "3.4.3",
  "updatedAt": "2021-11-16T00:12:08.710Z",
  "networkType": "ethereum",
  "devdoc": {
    "kind": "dev",
    "methods": {},
    "version": 1
  },
  "userdoc": {
    "events": {
      "CourseCreated(uint256,string)": {
        "notice": "    EVENTS"
      }
    },
    "kind": "user",
    "methods": {
      "papaApprove(uint256)": {
        "notice": "Only a student can access this Student approves that contract, the total cost of the course is deducted from student wallet and stored on the contract"
      },
      "papaAttendLesson(uint256)": {
        "notice": "Only a student can access this   The student is giving attendance, making possible a partial withdrawn for the teacher"
      },
      "papaCreate(string,uint256,uint256,uint256,address)": {
        "notice": "Anyone who call this function will be a Tutor. Tutor creates the course, wich includes number of lessons, total cost, address of student and a time lock"
      },
      "papaInitLesson(uint256)": {
        "notice": "Only a tutor can access this The tutor calls for the start of an individual lesson. The tutor cannot sign this if the student didn't sign attendance"
      },
      "papaRecover(uint256)": {
        "notice": "Only a student can access this If a time lock for unfulfillment is set, after that period of time, the student can recover all of his remaining assets"
      },
      "papaView(address)": {
        "notice": "List all courses for any given address"
      },
      "papaWithdraw(uint256)": {
        "notice": "Only a tutor can access this Tutor can withdraw one lesson at a time, or multiple lessons given at once"
      }
    },
    "version": 1
  }
}