{
  "contractName": "PapaPay",
  "abi": [
    {
      "inputs": [],
      "stateMutability": "nonpayable",
      "type": "constructor"
    },
    {
      "anonymous": false,
      "inputs": [
        {
          "indexed": false,
          "internalType": "uint256",
          "name": "papaCourse",
          "type": "uint256"
        },
        {
          "indexed": false,
          "internalType": "string",
          "name": "papaDesc",
          "type": "string"
        }
      ],
      "name": "CourseCreated",
      "type": "event"
    },
    {
      "anonymous": false,
      "inputs": [
        {
          "indexed": false,
          "internalType": "uint256",
          "name": "papaCourse",
          "type": "uint256"
        },
        {
          "indexed": false,
          "internalType": "uint256",
          "name": "papaBalance",
          "type": "uint256"
        }
      ],
      "name": "CourseDeposit",
      "type": "event"
    },
    {
      "anonymous": false,
      "inputs": [
        {
          "indexed": false,
          "internalType": "uint256",
          "name": "papaCourse",
          "type": "uint256"
        },
        {
          "indexed": false,
          "internalType": "uint256",
          "name": "papaStudentSign",
          "type": "uint256"
        }
      ],
      "name": "LessonAttended",
      "type": "event"
    },
    {
      "anonymous": false,
      "inputs": [
        {
          "indexed": false,
          "internalType": "uint256",
          "name": "papaCourse",
          "type": "uint256"
        },
        {
          "indexed": false,
          "internalType": "uint256",
          "name": "papaTutorSign",
          "type": "uint256"
        }
      ],
      "name": "LessonStarted",
      "type": "event"
    },
    {
      "stateMutability": "nonpayable",
      "type": "fallback"
    },
    {
      "inputs": [],
      "name": "borrar",
      "outputs": [
        {
          "internalType": "bool",
          "name": "",
          "type": "bool"
        }
      ],
      "stateMutability": "view",
      "type": "function",
      "constant": true
    },
    {
      "inputs": [],
      "name": "papaCount",
      "outputs": [
        {
          "internalType": "uint256",
          "name": "",
          "type": "uint256"
        }
      ],
      "stateMutability": "view",
      "type": "function",
      "constant": true
    },
    {
      "inputs": [
        {
          "internalType": "string",
          "name": "_papaDesc",
          "type": "string"
        },
        {
          "internalType": "uint256",
          "name": "_papaPrice",
          "type": "uint256"
        },
        {
          "internalType": "uint256",
          "name": "_papaLessons",
          "type": "uint256"
        },
        {
          "internalType": "uint256",
          "name": "_papaLock",
          "type": "uint256"
        },
        {
          "internalType": "address",
          "name": "_papaStudent",
          "type": "address"
        }
      ],
      "name": "papaCreate",
      "outputs": [
        {
          "internalType": "bool",
          "name": "",
          "type": "bool"
        }
      ],
      "stateMutability": "nonpayable",
      "type": "function"
    },
    {
      "inputs": [
        {
          "internalType": "uint256",
          "name": "_papaCourse",
          "type": "uint256"
        }
      ],
      "name": "papaApprove",
      "outputs": [],
      "stateMutability": "payable",
      "type": "function",
      "payable": true
    },
    {
      "inputs": [
        {
          "internalType": "address",
          "name": "_anyaddress",
          "type": "address"
        }
      ],
      "name": "papaView",
      "outputs": [],
      "stateMutability": "view",
      "type": "function",
      "constant": true
    },
    {
      "inputs": [
        {
          "internalType": "uint256",
          "name": "_papaCourse",
          "type": "uint256"
        }
      ],
      "name": "papaInitLesson",
      "outputs": [],
      "stateMutability": "nonpayable",
      "type": "function"
    },
    {
      "inputs": [
        {
          "internalType": "uint256",
          "name": "_papaCourse",
          "type": "uint256"
        }
      ],
      "name": "papaAttendLesson",
      "outputs": [],
      "stateMutability": "nonpayable",
      "type": "function"
    },
    {
      "inputs": [
        {
          "internalType": "uint256",
          "name": "_papaCourse",
          "type": "uint256"
        }
      ],
      "name": "papaWithdraw",
      "outputs": [],
      "stateMutability": "nonpayable",
      "type": "function"
    },
    {
      "inputs": [
        {
          "internalType": "uint256",
          "name": "_papaCourse",
          "type": "uint256"
        }
      ],
      "name": "papaRecover",
      "outputs": [],
      "stateMutability": "nonpayable",
      "type": "function"
    }
  ],
  "bytecode": "0x608060405234801561001057600080fd5b506001600081905550611fa3806100286000396000f3fe60806040526004361061008a5760003560e01c806389fe935e1161005957806389fe935e146101405780639254e1721461015c578063f062ba1014610199578063fc02ea3c146101c4578063ffbddbee146101ed5761008b565b80632b59d1fc1461009a57806334b8ed52146100c557806349f8ce12146100ee5780635dce1313146101175761008b565b5b34801561009757600080fd5b50005b3480156100a657600080fd5b506100af610216565b6040516100bc919061196a565b60405180910390f35b3480156100d157600080fd5b506100ec60048036038101906100e79190611305565b610229565b005b3480156100fa57600080fd5b50610115600480360381019061011091906113bd565b61022c565b005b34801561012357600080fd5b5061013e600480360381019061013991906113bd565b610487565b005b61015a600480360381019061015591906113bd565b610809565b005b34801561016857600080fd5b50610183600480360381019061017e919061132e565b610a15565b604051610190919061196a565b60405180910390f35b3480156101a557600080fd5b506101ae610c92565b6040516101bb9190611ba5565b60405180910390f35b3480156101d057600080fd5b506101eb60048036038101906101e691906113bd565b610c98565b005b3480156101f957600080fd5b50610214600480360381019061020f91906113bd565b610f3b565b005b600260009054906101000a900460ff1681565b50565b6003600082815260200190815260200160002060090160009054906101000a900473ffffffffffffffffffffffffffffffffffffffff1673ffffffffffffffffffffffffffffffffffffffff163373ffffffffffffffffffffffffffffffffffffffff16146102d0576040517f08c379a00000000000000000000000000000000000000000000000000000000081526004016102c790611b05565b60405180910390fd5b60006003600083815260200190815260200160002060060154141561032a576040517f08c379a000000000000000000000000000000000000000000000000000000000815260040161032190611aa5565b60405180910390fd5b600360008281526020019081526020016000206003015460036000838152602001908152602001600020600a01541415610399576040517f08c379a000000000000000000000000000000000000000000000000000000000815260040161039090611a85565b60405180910390fd5b600360008281526020019081526020016000206008015460036000838152602001908152602001600020600a015414610407576040517f08c379a00000000000000000000000000000000000000000000000000000000081526004016103fe90611a65565b60405180910390fd5b600160036000838152602001908152602001600020600a01600082825461042e9190611ca1565b925050819055507f7363f45a12f7ce94988b9d37b2be5952d9ab1f6ce2c0e7a787da4aef9c109d738160036000848152602001908152602001600020600a015460405161047c929190611bf0565b60405180910390a150565b600260005414156104cd576040517f08c379a00000000000000000000000000000000000000000000000000000000081526004016104c490611b45565b60405180910390fd5b60026000819055506003600082815260200190815260200160002060070160009054906101000a900473ffffffffffffffffffffffffffffffffffffffff1673ffffffffffffffffffffffffffffffffffffffff163373ffffffffffffffffffffffffffffffffffffffff1614610579576040517f08c379a000000000000000000000000000000000000000000000000000000000815260040161057090611b85565b60405180910390fd5b60006003600083815260200190815260200160002060060154141580156105b757506000600360008381526020019081526020016000206008015414155b6105f6576040517f08c379a00000000000000000000000000000000000000000000000000000000081526004016105ed90611ae5565b60405180910390fd5b60036000828152602001908152602001600020600b015460036000838152602001908152602001600020600801541415610665576040517f08c379a000000000000000000000000000000000000000000000000000000000815260040161065c906119e5565b60405180910390fd5b600060036000838152602001908152602001600020600b0154600360008481526020019081526020016000206008015461069f9190611d82565b600360008481526020019081526020016000206003015460036000858152602001908152602001600020600201546106d79190611cf7565b6106e19190611d28565b9050600360008381526020019081526020016000206008015460036000848152602001908152602001600020600b01819055508060036000848152602001908152602001600020600601546107369190611d82565b600360008481526020019081526020016000206006018190555060003373ffffffffffffffffffffffffffffffffffffffff168260405161077690611955565b60006040518083038185875af1925050503d80600081146107b3576040519150601f19603f3d011682016040523d82523d6000602084013e6107b8565b606091505b50509050806107fc576040517f08c379a00000000000000000000000000000000000000000000000000000000081526004016107f390611a25565b60405180910390fd5b5050600160008190555050565b806003600082815260200190815260200160002060090160009054906101000a900473ffffffffffffffffffffffffffffffffffffffff1673ffffffffffffffffffffffffffffffffffffffff163373ffffffffffffffffffffffffffffffffffffffff16146108ae576040517f08c379a00000000000000000000000000000000000000000000000000000000081526004016108a590611b05565b60405180910390fd5b816000600360008381526020019081526020016000206006015414610908576040517f08c379a00000000000000000000000000000000000000000000000000000000081526004016108ff90611b25565b60405180910390fd5b8260036000828152602001908152602001600020600201543414610961576040517f08c379a000000000000000000000000000000000000000000000000000000000815260040161095890611ac5565b60405180910390fd5b346003600086815260200190815260200160002060060160008282546109879190611ca1565b92505081905550603c60036000868152602001908152602001600020600401546109b19190611d28565b426109bc9190611ca1565b60036000868152602001908152602001600020600501819055507f11d0cd4dfc5cdd45ffbd5e103be88ad523a93e6cbe44de276c5e20248d7d58ee8434604051610a07929190611bf0565b60405180910390a150505050565b600060a8831115610a5b576040517f08c379a0000000000000000000000000000000000000000000000000000000008152600401610a5290611b65565b60405180910390fd5b8173ffffffffffffffffffffffffffffffffffffffff163373ffffffffffffffffffffffffffffffffffffffff161415610aca576040517f08c379a0000000000000000000000000000000000000000000000000000000008152600401610ac1906119c5565b60405180910390fd5b856003600060015481526020019081526020016000206000019080519060200190610af69291906111d0565b50600154600360006001548152602001908152602001600020600101819055508460036000600154815260200190815260200160002060020181905550836003600060015481526020019081526020016000206003018190555082600360006001548152602001908152602001600020600401819055503360036000600154815260200190815260200160002060070160006101000a81548173ffffffffffffffffffffffffffffffffffffffff021916908373ffffffffffffffffffffffffffffffffffffffff1602179055508160036000600154815260200190815260200160002060090160006101000a81548173ffffffffffffffffffffffffffffffffffffffff021916908373ffffffffffffffffffffffffffffffffffffffff1602179055507fc2c844c5f6c72fe99b99de0942ba619e99957d3e8f7e614263ecfe40de952e5860015487604051610c4e929190611bc0565b60405180910390a160018054610c649190611ca1565b6001819055506001600260006101000a81548160ff0219169083151502179055506001905095945050505050565b60015481565b6003600082815260200190815260200160002060070160009054906101000a900473ffffffffffffffffffffffffffffffffffffffff1673ffffffffffffffffffffffffffffffffffffffff163373ffffffffffffffffffffffffffffffffffffffff1614610d3c576040517f08c379a0000000000000000000000000000000000000000000000000000000008152600401610d3390611a05565b60405180910390fd5b600060036000838152602001908152602001600020600601541415610d96576040517f08c379a0000000000000000000000000000000000000000000000000000000008152600401610d8d90611aa5565b60405180910390fd5b600360008281526020019081526020016000206003015460036000838152602001908152602001600020600801541415610e05576040517f08c379a0000000000000000000000000000000000000000000000000000000008152600401610dfc90611985565b60405180910390fd5b60036000828152602001908152602001600020600a0154600360008381526020019081526020016000206008015410610e73576040517f08c379a0000000000000000000000000000000000000000000000000000000008152600401610e6a906119a5565b60405180910390fd5b6001600360008381526020019081526020016000206008016000828254610e9a9190611ca1565b92505081905550603c6003600083815260200190815260200160002060040154610ec49190611d28565b42610ecf9190611ca1565b60036000838152602001908152602001600020600501819055507fa412764a711d5c1840b30d5ccfd1b317b1a008d2c3fdf25f87c2bee0ba30d367816003600084815260200190815260200160002060080154604051610f30929190611bf0565b60405180910390a150565b60026000541415610f81576040517f08c379a0000000000000000000000000000000000000000000000000000000008152600401610f7890611b45565b60405180910390fd5b60026000819055506003600082815260200190815260200160002060090160009054906101000a900473ffffffffffffffffffffffffffffffffffffffff1673ffffffffffffffffffffffffffffffffffffffff163373ffffffffffffffffffffffffffffffffffffffff161461102d576040517f08c379a000000000000000000000000000000000000000000000000000000000815260040161102490611b05565b60405180910390fd5b600060036000838152602001908152602001600020600601541415611087576040517f08c379a000000000000000000000000000000000000000000000000000000000815260040161107e90611aa5565b60405180910390fd5b60036000828152602001908152602001600020600501544210156110e0576040517f08c379a00000000000000000000000000000000000000000000000000000000081526004016110d790611a45565b60405180910390fd5b6000600360008381526020019081526020016000206006015490506000600360008481526020019081526020016000206006018190555060003373ffffffffffffffffffffffffffffffffffffffff168260405161113d90611955565b60006040518083038185875af1925050503d806000811461117a576040519150601f19603f3d011682016040523d82523d6000602084013e61117f565b606091505b50509050806111c3576040517f08c379a00000000000000000000000000000000000000000000000000000000081526004016111ba90611a25565b60405180910390fd5b5050600160008190555050565b8280546111dc90611e40565b90600052602060002090601f0160209004810192826111fe5760008555611245565b82601f1061121757805160ff1916838001178555611245565b82800160010185558215611245579182015b82811115611244578251825591602001919060010190611229565b5b5090506112529190611256565b5090565b5b8082111561126f576000816000905550600101611257565b5090565b600061128661128184611c4a565b611c19565b90508281526020810184848401111561129e57600080fd5b6112a9848285611dfe565b509392505050565b6000813590506112c081611f3f565b92915050565b600082601f8301126112d757600080fd5b81356112e7848260208601611273565b91505092915050565b6000813590506112ff81611f56565b92915050565b60006020828403121561131757600080fd5b6000611325848285016112b1565b91505092915050565b600080600080600060a0868803121561134657600080fd5b600086013567ffffffffffffffff81111561136057600080fd5b61136c888289016112c6565b955050602061137d888289016112f0565b945050604061138e888289016112f0565b935050606061139f888289016112f0565b92505060806113b0888289016112b1565b9150509295509295909350565b6000602082840312156113cf57600080fd5b60006113dd848285016112f0565b91505092915050565b6113ef81611dc8565b82525050565b600061140082611c7a565b61140a8185611c90565b935061141a818560208601611e0d565b61142381611f2e565b840191505092915050565b600061143b601683611c90565b91507f416c6c206c6573736f6e73207765726520676976656e000000000000000000006000830152602082019050919050565b600061147b601e83611c90565b91507f53747564656e74206469646e2774207369676e20617474656e64616e636500006000830152602082019050919050565b60006114bb602683611c90565b91507f53747564656e7420616e6420746561636865722063616e6e6f7420626520746860008301527f652073616d6500000000000000000000000000000000000000000000000000006020830152604082019050919050565b6000611521602283611c90565b91507f416c72656164792077697468647261776e20796f7572206c617374206c65737360008301527f6f6e0000000000000000000000000000000000000000000000000000000000006020830152604082019050919050565b6000611587600b83611c90565b91507f4e6f742061205475746f720000000000000000000000000000000000000000006000830152602082019050919050565b60006115c7601483611c90565b91507f4661696c656420746f2073656e642045746865720000000000000000000000006000830152602082019050919050565b6000611607601c83611c90565b91507f54696d656c6f636b20686173206e6f74206578706972656420796574000000006000830152602082019050919050565b6000611647603083611c90565b91507f596f7520616c7265616479207369676e656420617474656e646163652e204c6560008301527f73736f6e206e6f742073746172746564000000000000000000000000000000006020830152604082019050919050565b60006116ad601683611c90565b91507f416c6c206c6573736f6e7320776572652074616b656e000000000000000000006000830152602082019050919050565b60006116ed601583611c90565b91507f436f7572736520686173206e6f2062616c616e636500000000000000000000006000830152602082019050919050565b600061172d600e83611c90565b91507f4e6f7420656e6f756768204554480000000000000000000000000000000000006000830152602082019050919050565b600061176d602883611c90565b91507f436865636b20636f757273652062616c616e6365206f72206c6573736f6e207360008301527f69676e61747572650000000000000000000000000000000000000000000000006020830152604082019050919050565b60006117d3600083611c85565b9150600082019050919050565b60006117ed600d83611c90565b91507f4e6f7420612073747564656e74000000000000000000000000000000000000006000830152602082019050919050565b600061182d601583611c90565b91507f436f7572736520616c72656164792066756e64656400000000000000000000006000830152602082019050919050565b600061186d601f83611c90565b91507f5265656e7472616e637947756172643a207265656e7472616e742063616c6c006000830152602082019050919050565b60006118ad602a83611c90565b91507f54696d656c6f636b2063616e6e6f742065786365656420372064617973206f7260008301527f2031363820686f757273000000000000000000000000000000000000000000006020830152604082019050919050565b6000611913600b83611c90565b91507f4e6f742061207475746f720000000000000000000000000000000000000000006000830152602082019050919050565b61194f81611df4565b82525050565b6000611960826117c6565b9150819050919050565b600060208201905061197f60008301846113e6565b92915050565b6000602082019050818103600083015261199e8161142e565b9050919050565b600060208201905081810360008301526119be8161146e565b9050919050565b600060208201905081810360008301526119de816114ae565b9050919050565b600060208201905081810360008301526119fe81611514565b9050919050565b60006020820190508181036000830152611a1e8161157a565b9050919050565b60006020820190508181036000830152611a3e816115ba565b9050919050565b60006020820190508181036000830152611a5e816115fa565b9050919050565b60006020820190508181036000830152611a7e8161163a565b9050919050565b60006020820190508181036000830152611a9e816116a0565b9050919050565b60006020820190508181036000830152611abe816116e0565b9050919050565b60006020820190508181036000830152611ade81611720565b9050919050565b60006020820190508181036000830152611afe81611760565b9050919050565b60006020820190508181036000830152611b1e816117e0565b9050919050565b60006020820190508181036000830152611b3e81611820565b9050919050565b60006020820190508181036000830152611b5e81611860565b9050919050565b60006020820190508181036000830152611b7e816118a0565b9050919050565b60006020820190508181036000830152611b9e81611906565b9050919050565b6000602082019050611bba6000830184611946565b92915050565b6000604082019050611bd56000830185611946565b8181036020830152611be781846113f5565b90509392505050565b6000604082019050611c056000830185611946565b611c126020830184611946565b9392505050565b6000604051905081810181811067ffffffffffffffff82111715611c4057611c3f611eff565b5b8060405250919050565b600067ffffffffffffffff821115611c6557611c64611eff565b5b601f19601f8301169050602081019050919050565b600081519050919050565b600081905092915050565b600082825260208201905092915050565b6000611cac82611df4565b9150611cb783611df4565b9250827fffffffffffffffffffffffffffffffffffffffffffffffffffffffffffffffff03821115611cec57611ceb611e72565b5b828201905092915050565b6000611d0282611df4565b9150611d0d83611df4565b925082611d1d57611d1c611ea1565b5b828204905092915050565b6000611d3382611df4565b9150611d3e83611df4565b9250817fffffffffffffffffffffffffffffffffffffffffffffffffffffffffffffffff0483118215151615611d7757611d76611e72565b5b828202905092915050565b6000611d8d82611df4565b9150611d9883611df4565b925082821015611dab57611daa611e72565b5b828203905092915050565b6000611dc182611dd4565b9050919050565b60008115159050919050565b600073ffffffffffffffffffffffffffffffffffffffff82169050919050565b6000819050919050565b82818337600083830152505050565b60005b83811015611e2b578082015181840152602081019050611e10565b83811115611e3a576000848401525b50505050565b60006002820490506001821680611e5857607f821691505b60208210811415611e6c57611e6b611ed0565b5b50919050565b7f4e487b7100000000000000000000000000000000000000000000000000000000600052601160045260246000fd5b7f4e487b7100000000000000000000000000000000000000000000000000000000600052601260045260246000fd5b7f4e487b7100000000000000000000000000000000000000000000000000000000600052602260045260246000fd5b7f4e487b7100000000000000000000000000000000000000000000000000000000600052604160045260246000fd5b6000601f19601f8301169050919050565b611f4881611db6565b8114611f5357600080fd5b50565b611f5f81611df4565b8114611f6a57600080fd5b5056fea2646970667358221220b5297e52771b4ddb4a07d7f08b107490ed35fdd1c2626b0d1a5268ff62c6e6a964736f6c63430008000033",
  "immutableReferences": {},
  "source": "// SPDX-License-Identifier: MIT\r\npragma solidity >=0.6 <0.9.0;\r\n\r\nimport \"@openzeppelin/contracts/security/ReentrancyGuard.sol\";\r\n\r\ncontract PapaPay is ReentrancyGuard {\r\n\r\n  uint public papaCount;\r\n\r\n  bool public borrar;\r\n\r\n  mapping (uint => Papa) private papas;\r\n\r\n  struct Papa {\r\n          // Short description of the contract \r\n          string papaDesc;\r\n          // Course number (unique)\r\n          uint papaCourse;\r\n          // Total price for the course\r\n          uint papaPrice;\r\n          // Amount of lessons\r\n          uint papaLessons;\r\n          // Timelock period in hours. After that the student can recover his tokens\r\n          uint papaLock;\r\n          // Timestamp\r\n          uint papaTS;\r\n          // Balance of Course\r\n          uint papaBalance;\r\n          // Teacher and student addresses and signed assistance\r\n          address papaTutor;\r\n          uint papaTutorSign;\r\n          address papaStudent;\r\n          uint papaStudentSign;\r\n          // Withdrawn lessons\r\n          uint papaWithdrew;\r\n        }\r\n\r\n///\r\n///    EVENTS\r\n///\r\n\r\n  event CourseCreated (uint papaCourse, string papaDesc);\r\n  event CourseDeposit (uint papaCourse, uint papaBalance);\r\n  event LessonStarted (uint papaCourse, uint papaTutorSign);\r\n  event LessonAttended (uint papaCourse, uint papaStudentSign);\r\n\r\n///\r\n///    MODIFIERS\r\n///\r\n\r\n\r\n  modifier isStudent(uint _papaCourse) {\r\n      require(msg.sender == papas[_papaCourse].papaStudent, \"Not a student\");\r\n      _;\r\n  }\r\n\r\n  modifier zeroBalance(uint _papaCourse) {\r\n       require(papas[_papaCourse].papaBalance == 0, \"Course already funded\");\r\n      _;\r\n  }\r\n\r\n  modifier exactBalance(uint _papaCourse) {\r\n       require(msg.value == papas[_papaCourse].papaPrice, \"Not enough ETH\");\r\n      _;\r\n  }\r\n\r\n  constructor()  {\r\n  }\r\n\r\n/// Anyone who call this function will be a tutor. Tutor creates the course, wich includes number of lessons, total cost, address of student and a time lock\r\n  function papaCreate( string memory _papaDesc, uint _papaPrice, uint _papaLessons, uint _papaLock, address _papaStudent ) \r\n    external \r\n    returns (bool)\r\n    {\r\n      require(_papaLock <= 168,\"Timelock cannot exceed 7 days or 168 hours\");\r\n      require(msg.sender != _papaStudent,\"Student and teacher cannot be the same\");\r\n      papas[papaCount].papaDesc = _papaDesc;\r\n      papas[papaCount].papaCourse= papaCount;\r\n      papas[papaCount].papaPrice= _papaPrice;\r\n      papas[papaCount].papaLessons= _papaLessons;\r\n      papas[papaCount].papaLock= _papaLock;\r\n      papas[papaCount].papaTutor= msg.sender;\r\n      papas[papaCount].papaStudent= _papaStudent;\r\n      emit CourseCreated(papaCount, _papaDesc);\r\n      papaCount = papaCount +1;\r\n      borrar = true;\r\n      return true;\r\n    }\r\n\r\n/// Only a student can access this\r\n/// Student approves that contract, the total cost of the course is deducted from student wallet and stored on the contract\r\n\r\n  function papaApprove(uint _papaCourse)\r\n    external\r\n    payable \r\n    isStudent(_papaCourse) \r\n    zeroBalance(_papaCourse) \r\n    exactBalance(_papaCourse)\r\n    {\r\n      papas[_papaCourse].papaBalance += msg.value;\r\n      papas[_papaCourse].papaTS = block.timestamp + (papas[_papaCourse].papaLock * 60);\r\n      emit CourseDeposit(_papaCourse,msg.value);\r\n    }\r\n\r\n/// List all courses for any given address\r\n  function papaView(address _anyaddress) \r\n    external \r\n    view \r\n    { }\r\n\r\n/// Only a tutor can access this\r\n/// The tutor calls for the start of an individual lesson. The tutor cannot sign this if the student didn't sign attendance\r\n  function papaInitLesson(uint _papaCourse) \r\n    external \r\n    {\r\n      require (msg.sender == papas[_papaCourse].papaTutor, \"Not a Tutor\");\r\n      require (papas[_papaCourse].papaBalance != 0, \"Course has no balance\");\r\n      require (papas[_papaCourse].papaTutorSign != papas[_papaCourse].papaLessons, \"All lessons were given\");\r\n      require (papas[_papaCourse].papaTutorSign < papas[_papaCourse].papaStudentSign, \"Student didn't sign attendance\");\r\n      papas[_papaCourse].papaTutorSign += 1;\r\n      papas[_papaCourse].papaTS = block.timestamp + (papas[_papaCourse].papaLock * 60);\r\n      emit LessonStarted(_papaCourse,papas[_papaCourse].papaTutorSign);\r\n    }\r\n\r\n/// Only a student can access this  \r\n/// The student is giving attendance, making possible a partial withdrawn for the teacher\r\n  function papaAttendLesson(uint _papaCourse) \r\n    external \r\n    {\r\n      require (msg.sender == papas[_papaCourse].papaStudent, \"Not a student\");\r\n      require (papas[_papaCourse].papaBalance != 0, \"Course has no balance\");\r\n      require (papas[_papaCourse].papaStudentSign != papas[_papaCourse].papaLessons, \"All lessons were taken\");\r\n      require (papas[_papaCourse].papaStudentSign == papas[_papaCourse].papaTutorSign, \"You already signed attendace. Lesson not started\");\r\n      papas[_papaCourse].papaStudentSign += 1;\r\n      emit LessonAttended(_papaCourse,papas[_papaCourse].papaStudentSign);\r\n    }\r\n\r\n/// Only a tutor can access this\r\n/// Tutor can withdraw one lesson at a time, or multiple lessons given at once\r\n  function papaWithdraw(uint _papaCourse) \r\n    external\r\n    nonReentrant\r\n    {\r\n      require (msg.sender == papas[_papaCourse].papaTutor, \"Not a tutor\");\r\n      require (papas[_papaCourse].papaBalance != 0 && papas[_papaCourse].papaTutorSign != 0,\"Check course balance or lesson signature\");\r\n      require (papas[_papaCourse].papaTutorSign != papas[_papaCourse].papaWithdrew,\"Already withdrawn your last lesson\");\r\n      uint papaAmount = (papas[_papaCourse].papaPrice / papas[_papaCourse].papaLessons) * (papas[_papaCourse].papaTutorSign - papas[_papaCourse].papaWithdrew);\r\n      papas[_papaCourse].papaWithdrew = papas[_papaCourse].papaTutorSign;\r\n      papas[_papaCourse].papaBalance = papas[_papaCourse].papaBalance - papaAmount;\r\n      (bool sent, ) = msg.sender.call{value: papaAmount}(\"\");\r\n      require(sent, \"Failed to send Ether\");\r\n    }\r\n\r\n/// Only a student can access this\r\n/// If a time lock for unfulfillment is set, after that period of time, the student can recover all of his remaining assets\r\n  function papaRecover(uint _papaCourse) \r\n  external \r\n  nonReentrant\r\n  {\r\n    require (msg.sender == papas[_papaCourse].papaStudent, \"Not a student\");\r\n    require (papas[_papaCourse].papaBalance != 0,\"Course has no balance\");\r\n    require (block.timestamp >= papas[_papaCourse].papaTS,\"Timelock has not expired yet\");\r\n    uint _recover = papas[_papaCourse].papaBalance;\r\n    papas[_papaCourse].papaBalance = 0;\r\n    (bool sent, ) = msg.sender.call{value: _recover}(\"\");\r\n    require(sent, \"Failed to send Ether\");\r\n  }\r\n\r\n  fallback () external {\r\n///  A fallback here\r\n  }\r\n\r\n}",
  "sourcePath": "D:\\OneDrive\\Code\\papaPay-complete\\contracts\\PapaPay.sol",
  "compiler": {
    "name": "solc",
    "version": "0.8.0+commit.c7dfd78e.Emscripten.clang"
  },
  "schemaVersion": "3.4.3",
  "updatedAt": "2021-11-14T23:16:28.613Z",
  "networkType": "ethereum",
  "devdoc": {
    "kind": "dev",
    "methods": {},
    "version": 1
  },
  "userdoc": {
    "events": {
      "CourseCreated(uint256,string)": {
        "notice": "    EVENTS"
      }
    },
    "kind": "user",
    "methods": {
      "papaApprove(uint256)": {
        "notice": "Only a student can access this Student approves that contract, the total cost of the course is deducted from student wallet and stored on the contract"
      },
      "papaAttendLesson(uint256)": {
        "notice": "Only a student can access this   The student is giving attendance, making possible a partial withdrawn for the teacher"
      },
      "papaCreate(string,uint256,uint256,uint256,address)": {
        "notice": "Anyone who call this function will be a tutor. Tutor creates the course, wich includes number of lessons, total cost, address of student and a time lock"
      },
      "papaInitLesson(uint256)": {
        "notice": "Only a tutor can access this The tutor calls for the start of an individual lesson. The tutor cannot sign this if the student didn't sign attendance"
      },
      "papaRecover(uint256)": {
        "notice": "Only a student can access this If a time lock for unfulfillment is set, after that period of time, the student can recover all of his remaining assets"
      },
      "papaView(address)": {
        "notice": "List all courses for any given address"
      },
      "papaWithdraw(uint256)": {
        "notice": "Only a tutor can access this Tutor can withdraw one lesson at a time, or multiple lessons given at once"
      }
    },
    "version": 1
  }
}