{
  "contractName": "PapaPay",
  "abi": [
    {
      "inputs": [],
      "stateMutability": "nonpayable",
      "type": "constructor"
    },
    {
      "anonymous": false,
      "inputs": [
        {
          "indexed": false,
          "internalType": "uint256",
          "name": "papaCourse",
          "type": "uint256"
        },
        {
          "indexed": false,
          "internalType": "string",
          "name": "papaDesc",
          "type": "string"
        }
      ],
      "name": "CourseCreated",
      "type": "event"
    },
    {
      "anonymous": false,
      "inputs": [
        {
          "indexed": false,
          "internalType": "uint256",
          "name": "papaCourse",
          "type": "uint256"
        },
        {
          "indexed": false,
          "internalType": "uint256",
          "name": "papaBalance",
          "type": "uint256"
        }
      ],
      "name": "CourseDeposit",
      "type": "event"
    },
    {
      "anonymous": false,
      "inputs": [
        {
          "indexed": false,
          "internalType": "uint256",
          "name": "papaCourse",
          "type": "uint256"
        },
        {
          "indexed": false,
          "internalType": "uint256",
          "name": "papaStudentSign",
          "type": "uint256"
        }
      ],
      "name": "LessonAttended",
      "type": "event"
    },
    {
      "anonymous": false,
      "inputs": [
        {
          "indexed": false,
          "internalType": "uint256",
          "name": "papaCourse",
          "type": "uint256"
        },
        {
          "indexed": false,
          "internalType": "uint256",
          "name": "papaTutorSign",
          "type": "uint256"
        }
      ],
      "name": "LessonStarted",
      "type": "event"
    },
    {
      "stateMutability": "nonpayable",
      "type": "fallback"
    },
    {
      "inputs": [],
      "name": "papaCount",
      "outputs": [
        {
          "internalType": "uint256",
          "name": "",
          "type": "uint256"
        }
      ],
      "stateMutability": "view",
      "type": "function",
      "constant": true
    },
    {
      "inputs": [
        {
          "internalType": "uint256",
          "name": "",
          "type": "uint256"
        }
      ],
      "name": "papas",
      "outputs": [
        {
          "internalType": "string",
          "name": "papaDesc",
          "type": "string"
        },
        {
          "internalType": "uint256",
          "name": "papaCourse",
          "type": "uint256"
        },
        {
          "internalType": "uint256",
          "name": "papaPrice",
          "type": "uint256"
        },
        {
          "internalType": "uint256",
          "name": "papaLessons",
          "type": "uint256"
        },
        {
          "internalType": "uint256",
          "name": "papaLock",
          "type": "uint256"
        },
        {
          "internalType": "uint256",
          "name": "papaTS",
          "type": "uint256"
        },
        {
          "internalType": "uint256",
          "name": "papaBalance",
          "type": "uint256"
        },
        {
          "internalType": "address",
          "name": "papaTutor",
          "type": "address"
        },
        {
          "internalType": "uint256",
          "name": "papaTutorSign",
          "type": "uint256"
        },
        {
          "internalType": "address",
          "name": "papaStudent",
          "type": "address"
        },
        {
          "internalType": "uint256",
          "name": "papaStudentSign",
          "type": "uint256"
        },
        {
          "internalType": "uint256",
          "name": "papaWithdrew",
          "type": "uint256"
        }
      ],
      "stateMutability": "view",
      "type": "function",
      "constant": true
    },
    {
      "inputs": [
        {
          "internalType": "string",
          "name": "_papaDesc",
          "type": "string"
        },
        {
          "internalType": "uint256",
          "name": "_papaPrice",
          "type": "uint256"
        },
        {
          "internalType": "uint256",
          "name": "_papaLessons",
          "type": "uint256"
        },
        {
          "internalType": "uint256",
          "name": "_papaLock",
          "type": "uint256"
        },
        {
          "internalType": "address",
          "name": "_papaStudent",
          "type": "address"
        }
      ],
      "name": "papaCreate",
      "outputs": [
        {
          "internalType": "bool",
          "name": "",
          "type": "bool"
        }
      ],
      "stateMutability": "nonpayable",
      "type": "function"
    },
    {
      "inputs": [
        {
          "internalType": "uint256",
          "name": "_papaCourse",
          "type": "uint256"
        }
      ],
      "name": "papaApprove",
      "outputs": [],
      "stateMutability": "payable",
      "type": "function",
      "payable": true
    },
    {
      "inputs": [
        {
          "internalType": "address",
          "name": "_anyaddress",
          "type": "address"
        }
      ],
      "name": "papaView",
      "outputs": [],
      "stateMutability": "view",
      "type": "function",
      "constant": true
    },
    {
      "inputs": [
        {
          "internalType": "uint256",
          "name": "_papaCourse",
          "type": "uint256"
        }
      ],
      "name": "papaInitLesson",
      "outputs": [],
      "stateMutability": "nonpayable",
      "type": "function"
    },
    {
      "inputs": [
        {
          "internalType": "uint256",
          "name": "_papaCourse",
          "type": "uint256"
        }
      ],
      "name": "papaAttendLesson",
      "outputs": [],
      "stateMutability": "nonpayable",
      "type": "function"
    },
    {
      "inputs": [
        {
          "internalType": "uint256",
          "name": "_papaCourse",
          "type": "uint256"
        }
      ],
      "name": "papaWithdraw",
      "outputs": [],
      "stateMutability": "nonpayable",
      "type": "function"
    },
    {
      "inputs": [
        {
          "internalType": "uint256",
          "name": "_papaCourse",
          "type": "uint256"
        }
      ],
      "name": "papaRecover",
      "outputs": [],
      "stateMutability": "nonpayable",
      "type": "function"
    }
  ],
  "bytecode": "0x608060405234801561001057600080fd5b506001600081905550612188806100286000396000f3fe60806040526004361061008a5760003560e01c80639254e172116100595780639254e17214610131578063980d38361461016e578063f062ba10146101b6578063fc02ea3c146101e1578063ffbddbee1461020a5761008b565b806334b8ed521461009a57806349f8ce12146100c35780635dce1313146100ec57806389fe935e146101155761008b565b5b34801561009757600080fd5b50005b3480156100a657600080fd5b506100c160048036038101906100bc919061141a565b610233565b005b3480156100cf57600080fd5b506100ea60048036038101906100e591906114d2565b610236565b005b3480156100f857600080fd5b50610113600480360381019061010e91906114d2565b610490565b005b61012f600480360381019061012a91906114d2565b610812565b005b34801561013d57600080fd5b5061015860048036038101906101539190611443565b610a1e565b6040516101659190611a8e565b60405180910390f35b34801561017a57600080fd5b50610195600480360381019061019091906114d2565b610c80565b6040516101ad9c9b9a99989796959493929190611aa9565b60405180910390f35b3480156101c257600080fd5b506101cb610da8565b6040516101d89190611d8a565b60405180910390f35b3480156101ed57600080fd5b50610208600480360381019061020391906114d2565b610dae565b005b34801561021657600080fd5b50610231600480360381019061022c91906114d2565b611050565b005b50565b6002600082815260200190815260200160002060090160009054906101000a900473ffffffffffffffffffffffffffffffffffffffff1673ffffffffffffffffffffffffffffffffffffffff163373ffffffffffffffffffffffffffffffffffffffff16146102da576040517f08c379a00000000000000000000000000000000000000000000000000000000081526004016102d190611cea565b60405180910390fd5b600060026000838152602001908152602001600020600601541415610334576040517f08c379a000000000000000000000000000000000000000000000000000000000815260040161032b90611c8a565b60405180910390fd5b600260008281526020019081526020016000206003015460026000838152602001908152602001600020600a0154106103a2576040517f08c379a000000000000000000000000000000000000000000000000000000000815260040161039990611c6a565b60405180910390fd5b600260008281526020019081526020016000206008015460026000838152602001908152602001600020600a015414610410576040517f08c379a000000000000000000000000000000000000000000000000000000000815260040161040790611c4a565b60405180910390fd5b600160026000838152602001908152602001600020600a0160008282546104379190611e86565b925050819055507f7363f45a12f7ce94988b9d37b2be5952d9ab1f6ce2c0e7a787da4aef9c109d738160026000848152602001908152602001600020600a0154604051610485929190611dd5565b60405180910390a150565b600260005414156104d6576040517f08c379a00000000000000000000000000000000000000000000000000000000081526004016104cd90611d2a565b60405180910390fd5b60026000819055506002600082815260200190815260200160002060070160009054906101000a900473ffffffffffffffffffffffffffffffffffffffff1673ffffffffffffffffffffffffffffffffffffffff163373ffffffffffffffffffffffffffffffffffffffff1614610582576040517f08c379a000000000000000000000000000000000000000000000000000000000815260040161057990611d6a565b60405180910390fd5b60006002600083815260200190815260200160002060060154141580156105c057506000600260008381526020019081526020016000206008015414155b6105ff576040517f08c379a00000000000000000000000000000000000000000000000000000000081526004016105f690611cca565b60405180910390fd5b60026000828152602001908152602001600020600b01546002600083815260200190815260200160002060080154141561066e576040517f08c379a000000000000000000000000000000000000000000000000000000000815260040161066590611bca565b60405180910390fd5b600060026000838152602001908152602001600020600b015460026000848152602001908152602001600020600801546106a89190611f67565b600260008481526020019081526020016000206003015460026000858152602001908152602001600020600201546106e09190611edc565b6106ea9190611f0d565b9050600260008381526020019081526020016000206008015460026000848152602001908152602001600020600b018190555080600260008481526020019081526020016000206006015461073f9190611f67565b600260008481526020019081526020016000206006018190555060003373ffffffffffffffffffffffffffffffffffffffff168260405161077f90611a79565b60006040518083038185875af1925050503d80600081146107bc576040519150601f19603f3d011682016040523d82523d6000602084013e6107c1565b606091505b5050905080610805576040517f08c379a00000000000000000000000000000000000000000000000000000000081526004016107fc90611c0a565b60405180910390fd5b5050600160008190555050565b806002600082815260200190815260200160002060090160009054906101000a900473ffffffffffffffffffffffffffffffffffffffff1673ffffffffffffffffffffffffffffffffffffffff163373ffffffffffffffffffffffffffffffffffffffff16146108b7576040517f08c379a00000000000000000000000000000000000000000000000000000000081526004016108ae90611cea565b60405180910390fd5b816000600260008381526020019081526020016000206006015414610911576040517f08c379a000000000000000000000000000000000000000000000000000000000815260040161090890611d0a565b60405180910390fd5b826002600082815260200190815260200160002060020154341461096a576040517f08c379a000000000000000000000000000000000000000000000000000000000815260040161096190611caa565b60405180910390fd5b346002600086815260200190815260200160002060060160008282546109909190611e86565b92505081905550603c60026000868152602001908152602001600020600401546109ba9190611f0d565b426109c59190611e86565b60026000868152602001908152602001600020600501819055507f11d0cd4dfc5cdd45ffbd5e103be88ad523a93e6cbe44de276c5e20248d7d58ee8434604051610a10929190611dd5565b60405180910390a150505050565b600060a8831115610a64576040517f08c379a0000000000000000000000000000000000000000000000000000000008152600401610a5b90611d4a565b60405180910390fd5b8173ffffffffffffffffffffffffffffffffffffffff163373ffffffffffffffffffffffffffffffffffffffff161415610ad3576040517f08c379a0000000000000000000000000000000000000000000000000000000008152600401610aca90611baa565b60405180910390fd5b856002600060015481526020019081526020016000206000019080519060200190610aff9291906112e5565b50600154600260006001548152602001908152602001600020600101819055508460026000600154815260200190815260200160002060020181905550836002600060015481526020019081526020016000206003018190555082600260006001548152602001908152602001600020600401819055503360026000600154815260200190815260200160002060070160006101000a81548173ffffffffffffffffffffffffffffffffffffffff021916908373ffffffffffffffffffffffffffffffffffffffff1602179055508160026000600154815260200190815260200160002060090160006101000a81548173ffffffffffffffffffffffffffffffffffffffff021916908373ffffffffffffffffffffffffffffffffffffffff1602179055507fc2c844c5f6c72fe99b99de0942ba619e99957d3e8f7e614263ecfe40de952e5860015487604051610c57929190611da5565b60405180910390a160018054610c6d9190611e86565b6001819055506001905095945050505050565b6002602052806000526040600020600091509050806000018054610ca390612025565b80601f0160208091040260200160405190810160405280929190818152602001828054610ccf90612025565b8015610d1c5780601f10610cf157610100808354040283529160200191610d1c565b820191906000526020600020905b815481529060010190602001808311610cff57829003601f168201915b5050505050908060010154908060020154908060030154908060040154908060050154908060060154908060070160009054906101000a900473ffffffffffffffffffffffffffffffffffffffff16908060080154908060090160009054906101000a900473ffffffffffffffffffffffffffffffffffffffff169080600a01549080600b015490508c565b60015481565b6002600082815260200190815260200160002060070160009054906101000a900473ffffffffffffffffffffffffffffffffffffffff1673ffffffffffffffffffffffffffffffffffffffff163373ffffffffffffffffffffffffffffffffffffffff1614610e52576040517f08c379a0000000000000000000000000000000000000000000000000000000008152600401610e4990611bea565b60405180910390fd5b600060026000838152602001908152602001600020600601541415610eac576040517f08c379a0000000000000000000000000000000000000000000000000000000008152600401610ea390611c8a565b60405180910390fd5b6002600082815260200190815260200160002060030154600260008381526020019081526020016000206008015410610f1a576040517f08c379a0000000000000000000000000000000000000000000000000000000008152600401610f1190611b6a565b60405180910390fd5b60026000828152602001908152602001600020600a0154600260008381526020019081526020016000206008015410610f88576040517f08c379a0000000000000000000000000000000000000000000000000000000008152600401610f7f90611b8a565b60405180910390fd5b6001600260008381526020019081526020016000206008016000828254610faf9190611e86565b92505081905550603c6002600083815260200190815260200160002060040154610fd99190611f0d565b42610fe49190611e86565b60026000838152602001908152602001600020600501819055507fa412764a711d5c1840b30d5ccfd1b317b1a008d2c3fdf25f87c2bee0ba30d367816002600084815260200190815260200160002060080154604051611045929190611dd5565b60405180910390a150565b60026000541415611096576040517f08c379a000000000000000000000000000000000000000000000000000000000815260040161108d90611d2a565b60405180910390fd5b60026000819055506002600082815260200190815260200160002060090160009054906101000a900473ffffffffffffffffffffffffffffffffffffffff1673ffffffffffffffffffffffffffffffffffffffff163373ffffffffffffffffffffffffffffffffffffffff1614611142576040517f08c379a000000000000000000000000000000000000000000000000000000000815260040161113990611cea565b60405180910390fd5b60006002600083815260200190815260200160002060060154141561119c576040517f08c379a000000000000000000000000000000000000000000000000000000000815260040161119390611c8a565b60405180910390fd5b60026000828152602001908152602001600020600501544210156111f5576040517f08c379a00000000000000000000000000000000000000000000000000000000081526004016111ec90611c2a565b60405180910390fd5b6000600260008381526020019081526020016000206006015490506000600260008481526020019081526020016000206006018190555060003373ffffffffffffffffffffffffffffffffffffffff168260405161125290611a79565b60006040518083038185875af1925050503d806000811461128f576040519150601f19603f3d011682016040523d82523d6000602084013e611294565b606091505b50509050806112d8576040517f08c379a00000000000000000000000000000000000000000000000000000000081526004016112cf90611c0a565b60405180910390fd5b5050600160008190555050565b8280546112f190612025565b90600052602060002090601f016020900481019282611313576000855561135a565b82601f1061132c57805160ff191683800117855561135a565b8280016001018555821561135a579182015b8281111561135957825182559160200191906001019061133e565b5b509050611367919061136b565b5090565b5b8082111561138457600081600090555060010161136c565b5090565b600061139b61139684611e2f565b611dfe565b9050828152602081018484840111156113b357600080fd5b6113be848285611fe3565b509392505050565b6000813590506113d581612124565b92915050565b600082601f8301126113ec57600080fd5b81356113fc848260208601611388565b91505092915050565b6000813590506114148161213b565b92915050565b60006020828403121561142c57600080fd5b600061143a848285016113c6565b91505092915050565b600080600080600060a0868803121561145b57600080fd5b600086013567ffffffffffffffff81111561147557600080fd5b611481888289016113db565b955050602061149288828901611405565b94505060406114a388828901611405565b93505060606114b488828901611405565b92505060806114c5888289016113c6565b9150509295509295909350565b6000602082840312156114e457600080fd5b60006114f284828501611405565b91505092915050565b61150481611f9b565b82525050565b61151381611fad565b82525050565b600061152482611e5f565b61152e8185611e75565b935061153e818560208601611ff2565b61154781612113565b840191505092915050565b600061155f601683611e75565b91507f416c6c206c6573736f6e73207765726520676976656e000000000000000000006000830152602082019050919050565b600061159f601e83611e75565b91507f53747564656e74206469646e2774207369676e20617474656e64616e636500006000830152602082019050919050565b60006115df602683611e75565b91507f53747564656e7420616e6420746561636865722063616e6e6f7420626520746860008301527f652073616d6500000000000000000000000000000000000000000000000000006020830152604082019050919050565b6000611645602283611e75565b91507f416c72656164792077697468647261776e20796f7572206c617374206c65737360008301527f6f6e0000000000000000000000000000000000000000000000000000000000006020830152604082019050919050565b60006116ab600b83611e75565b91507f4e6f742061205475746f720000000000000000000000000000000000000000006000830152602082019050919050565b60006116eb601483611e75565b91507f4661696c656420746f2073656e642045746865720000000000000000000000006000830152602082019050919050565b600061172b601c83611e75565b91507f54696d656c6f636b20686173206e6f74206578706972656420796574000000006000830152602082019050919050565b600061176b603083611e75565b91507f596f7520616c7265616479207369676e656420617474656e646163652e204c6560008301527f73736f6e206e6f742073746172746564000000000000000000000000000000006020830152604082019050919050565b60006117d1601683611e75565b91507f416c6c206c6573736f6e7320776572652074616b656e000000000000000000006000830152602082019050919050565b6000611811601583611e75565b91507f436f7572736520686173206e6f2062616c616e636500000000000000000000006000830152602082019050919050565b6000611851600e83611e75565b91507f4e6f7420656e6f756768204554480000000000000000000000000000000000006000830152602082019050919050565b6000611891602883611e75565b91507f436865636b20636f757273652062616c616e6365206f72206c6573736f6e207360008301527f69676e61747572650000000000000000000000000000000000000000000000006020830152604082019050919050565b60006118f7600083611e6a565b9150600082019050919050565b6000611911600d83611e75565b91507f4e6f7420612073747564656e74000000000000000000000000000000000000006000830152602082019050919050565b6000611951601583611e75565b91507f436f7572736520616c72656164792066756e64656400000000000000000000006000830152602082019050919050565b6000611991601f83611e75565b91507f5265656e7472616e637947756172643a207265656e7472616e742063616c6c006000830152602082019050919050565b60006119d1602a83611e75565b91507f54696d656c6f636b2063616e6e6f742065786365656420372064617973206f7260008301527f2031363820686f757273000000000000000000000000000000000000000000006020830152604082019050919050565b6000611a37600b83611e75565b91507f4e6f742061207475746f720000000000000000000000000000000000000000006000830152602082019050919050565b611a7381611fd9565b82525050565b6000611a84826118ea565b9150819050919050565b6000602082019050611aa3600083018461150a565b92915050565b6000610180820190508181036000830152611ac4818f611519565b9050611ad3602083018e611a6a565b611ae0604083018d611a6a565b611aed606083018c611a6a565b611afa608083018b611a6a565b611b0760a083018a611a6a565b611b1460c0830189611a6a565b611b2160e08301886114fb565b611b2f610100830187611a6a565b611b3d6101208301866114fb565b611b4b610140830185611a6a565b611b59610160830184611a6a565b9d9c50505050505050505050505050565b60006020820190508181036000830152611b8381611552565b9050919050565b60006020820190508181036000830152611ba381611592565b9050919050565b60006020820190508181036000830152611bc3816115d2565b9050919050565b60006020820190508181036000830152611be381611638565b9050919050565b60006020820190508181036000830152611c038161169e565b9050919050565b60006020820190508181036000830152611c23816116de565b9050919050565b60006020820190508181036000830152611c438161171e565b9050919050565b60006020820190508181036000830152611c638161175e565b9050919050565b60006020820190508181036000830152611c83816117c4565b9050919050565b60006020820190508181036000830152611ca381611804565b9050919050565b60006020820190508181036000830152611cc381611844565b9050919050565b60006020820190508181036000830152611ce381611884565b9050919050565b60006020820190508181036000830152611d0381611904565b9050919050565b60006020820190508181036000830152611d2381611944565b9050919050565b60006020820190508181036000830152611d4381611984565b9050919050565b60006020820190508181036000830152611d63816119c4565b9050919050565b60006020820190508181036000830152611d8381611a2a565b9050919050565b6000602082019050611d9f6000830184611a6a565b92915050565b6000604082019050611dba6000830185611a6a565b8181036020830152611dcc8184611519565b90509392505050565b6000604082019050611dea6000830185611a6a565b611df76020830184611a6a565b9392505050565b6000604051905081810181811067ffffffffffffffff82111715611e2557611e246120e4565b5b8060405250919050565b600067ffffffffffffffff821115611e4a57611e496120e4565b5b601f19601f8301169050602081019050919050565b600081519050919050565b600081905092915050565b600082825260208201905092915050565b6000611e9182611fd9565b9150611e9c83611fd9565b9250827fffffffffffffffffffffffffffffffffffffffffffffffffffffffffffffffff03821115611ed157611ed0612057565b5b828201905092915050565b6000611ee782611fd9565b9150611ef283611fd9565b925082611f0257611f01612086565b5b828204905092915050565b6000611f1882611fd9565b9150611f2383611fd9565b9250817fffffffffffffffffffffffffffffffffffffffffffffffffffffffffffffffff0483118215151615611f5c57611f5b612057565b5b828202905092915050565b6000611f7282611fd9565b9150611f7d83611fd9565b925082821015611f9057611f8f612057565b5b828203905092915050565b6000611fa682611fb9565b9050919050565b60008115159050919050565b600073ffffffffffffffffffffffffffffffffffffffff82169050919050565b6000819050919050565b82818337600083830152505050565b60005b83811015612010578082015181840152602081019050611ff5565b8381111561201f576000848401525b50505050565b6000600282049050600182168061203d57607f821691505b60208210811415612051576120506120b5565b5b50919050565b7f4e487b7100000000000000000000000000000000000000000000000000000000600052601160045260246000fd5b7f4e487b7100000000000000000000000000000000000000000000000000000000600052601260045260246000fd5b7f4e487b7100000000000000000000000000000000000000000000000000000000600052602260045260246000fd5b7f4e487b7100000000000000000000000000000000000000000000000000000000600052604160045260246000fd5b6000601f19601f8301169050919050565b61212d81611f9b565b811461213857600080fd5b50565b61214481611fd9565b811461214f57600080fd5b5056fea264697066735822122012501a200efb05f595fece3b9d6d18fdd5d0f54ee0ee50e66aab277b36c4e99664736f6c63430008000033",
  "immutableReferences": {},
  "source": "// SPDX-License-Identifier: MIT\r\npragma solidity >=0.6 <0.9.0;\r\n\r\nimport \"@openzeppelin/contracts/security/ReentrancyGuard.sol\";\r\n\r\ncontract PapaPay is ReentrancyGuard {\r\n\r\n  uint public papaCount;\r\n\r\n  mapping (uint => Papa) public papas;\r\n\r\n  struct Papa {\r\n          // Short description of the contract \r\n          string papaDesc;\r\n          // Course number (unique)\r\n          uint papaCourse;\r\n          // Total price for the course\r\n          uint papaPrice;\r\n          // Amount of lessons\r\n          uint papaLessons;\r\n          // Timelock period in days. After that the student can recover his tokens\r\n          uint papaLock;\r\n          // Timestamp\r\n          uint papaTS;\r\n          // Balance of Course\r\n          uint papaBalance;\r\n          // Teacher and student addresses and signed assistance\r\n          address papaTutor;\r\n          uint papaTutorSign;\r\n          address papaStudent;\r\n          uint papaStudentSign;\r\n          // Withdrawn lessons\r\n          uint papaWithdrew;\r\n        }\r\n\r\n///\r\n///    EVENTS\r\n///\r\n\r\n  event CourseCreated (uint papaCourse, string papaDesc);\r\n  event CourseDeposit (uint papaCourse, uint papaBalance);\r\n  event LessonStarted (uint papaCourse, uint papaTutorSign);\r\n  event LessonAttended (uint papaCourse, uint papaStudentSign);\r\n\r\n///\r\n///    MODIFIERS\r\n///\r\n\r\n\r\n  modifier isStudent(uint _papaCourse) {\r\n      require(msg.sender == papas[_papaCourse].papaStudent, \"Not a student\");\r\n      _;\r\n  }\r\n\r\n  modifier zeroBalance(uint _papaCourse) {\r\n       require(papas[_papaCourse].papaBalance == 0, \"Course already funded\");\r\n      _;\r\n  }\r\n\r\n  modifier exactBalance(uint _papaCourse) {\r\n       require(msg.value == papas[_papaCourse].papaPrice, \"Not enough ETH\");\r\n      _;\r\n  }\r\n\r\n  constructor()  {\r\n  }\r\n\r\n/// Anyone who call this function will be a Tutor. Tutor creates the course, wich includes number of lessons, total cost, address of student and a time lock\r\n  function papaCreate( string memory _papaDesc, uint _papaPrice, uint _papaLessons, uint _papaLock, address _papaStudent ) \r\n    external \r\n    returns (bool)\r\n    {\r\n      require(_papaLock <= 168,\"Timelock cannot exceed 7 days or 168 hours\");\r\n      require(msg.sender != _papaStudent,\"Student and teacher cannot be the same\");\r\n      papas[papaCount].papaDesc = _papaDesc;\r\n      papas[papaCount].papaCourse= papaCount;\r\n      papas[papaCount].papaPrice= _papaPrice;\r\n      papas[papaCount].papaLessons= _papaLessons;\r\n      papas[papaCount].papaLock= _papaLock;\r\n      papas[papaCount].papaTutor= msg.sender;\r\n      papas[papaCount].papaStudent= _papaStudent;\r\n      emit CourseCreated(papaCount, _papaDesc);\r\n      papaCount = papaCount +1;\r\n      return true;\r\n    }\r\n\r\n/// Only a student can access this\r\n/// Student approves that contract, the total cost of the course is deducted from student wallet and stored on the contract\r\n\r\n  function papaApprove(uint _papaCourse)\r\n    external\r\n    payable \r\n    isStudent(_papaCourse) \r\n    zeroBalance(_papaCourse) \r\n    exactBalance(_papaCourse)\r\n    {\r\n      papas[_papaCourse].papaBalance += msg.value;\r\n      papas[_papaCourse].papaTS = block.timestamp + (papas[_papaCourse].papaLock * 60);\r\n      emit CourseDeposit(_papaCourse,msg.value);\r\n    }\r\n\r\n/// List all courses for any given address\r\n  function papaView(address _anyaddress) \r\n    external \r\n    view \r\n    { }\r\n\r\n/// Only a tutor can access this\r\n/// The tutor calls for the start of an individual lesson. The tutor cannot sign this if the student didn't sign attendance\r\n  function papaInitLesson(uint _papaCourse) \r\n    external \r\n    {\r\n      require (msg.sender == papas[_papaCourse].papaTutor, \"Not a Tutor\");\r\n      require (papas[_papaCourse].papaBalance != 0, \"Course has no balance\");\r\n      require (papas[_papaCourse].papaTutorSign < papas[_papaCourse].papaLessons, \"All lessons were given\");\r\n      require (papas[_papaCourse].papaTutorSign < papas[_papaCourse].papaStudentSign, \"Student didn't sign attendance\");\r\n      papas[_papaCourse].papaTutorSign += 1;\r\n      papas[_papaCourse].papaTS = block.timestamp + (papas[_papaCourse].papaLock * 60);\r\n      emit LessonStarted(_papaCourse,papas[_papaCourse].papaTutorSign);\r\n    }\r\n\r\n/// Only a student can access this  \r\n/// The student is giving attendance, making possible a partial withdrawn for the teacher\r\n  function papaAttendLesson(uint _papaCourse) \r\n    external \r\n    {\r\n      require (msg.sender == papas[_papaCourse].papaStudent, \"Not a student\");\r\n      require (papas[_papaCourse].papaBalance != 0, \"Course has no balance\");\r\n      require (papas[_papaCourse].papaStudentSign < papas[_papaCourse].papaLessons, \"All lessons were taken\");\r\n      require (papas[_papaCourse].papaStudentSign == papas[_papaCourse].papaTutorSign, \"You already signed attendace. Lesson not started\");\r\n      papas[_papaCourse].papaStudentSign += 1;\r\n      emit LessonAttended(_papaCourse,papas[_papaCourse].papaStudentSign);\r\n    }\r\n\r\n/// Only a tutor can access this\r\n/// Tutor can withdraw one lesson at a time, or multiple lessons given at once\r\n  function papaWithdraw(uint _papaCourse) \r\n    external\r\n    nonReentrant\r\n    {\r\n      require (msg.sender == papas[_papaCourse].papaTutor, \"Not a tutor\");\r\n      require (papas[_papaCourse].papaBalance != 0 && papas[_papaCourse].papaTutorSign != 0,\"Check course balance or lesson signature\");\r\n      require (papas[_papaCourse].papaTutorSign != papas[_papaCourse].papaWithdrew,\"Already withdrawn your last lesson\");\r\n      uint papaAmount = (papas[_papaCourse].papaPrice / papas[_papaCourse].papaLessons) * (papas[_papaCourse].papaTutorSign - papas[_papaCourse].papaWithdrew);\r\n      papas[_papaCourse].papaWithdrew = papas[_papaCourse].papaTutorSign;\r\n      papas[_papaCourse].papaBalance = papas[_papaCourse].papaBalance - papaAmount;\r\n      (bool sent, ) = msg.sender.call{value: papaAmount}(\"\");\r\n      require(sent, \"Failed to send Ether\");\r\n    }\r\n\r\n/// Only a student can access this\r\n/// If a time lock for unfulfillment is set, after that period of time, the student can recover all of his remaining assets\r\n  function papaRecover(uint _papaCourse) \r\n  external \r\n  nonReentrant\r\n  {\r\n    require (msg.sender == papas[_papaCourse].papaStudent, \"Not a student\");\r\n    require (papas[_papaCourse].papaBalance != 0,\"Course has no balance\");\r\n    require (block.timestamp >= papas[_papaCourse].papaTS,\"Timelock has not expired yet\");\r\n    uint _recover = papas[_papaCourse].papaBalance;\r\n    papas[_papaCourse].papaBalance = 0;\r\n    (bool sent, ) = msg.sender.call{value: _recover}(\"\");\r\n    require(sent, \"Failed to send Ether\");\r\n  }\r\n\r\n  fallback () external {\r\n///  A fallback here\r\n  }\r\n\r\n}",
  "sourcePath": "C:\\Users\\msolovey\\Documents\\git\\papaPay\\contracts\\PapaPay.sol",
  "compiler": {
    "name": "solc",
    "version": "0.8.0+commit.c7dfd78e.Emscripten.clang"
  },
  "schemaVersion": "3.4.3",
  "updatedAt": "2021-11-16T20:42:55.740Z",
  "networkType": "ethereum",
  "devdoc": {
    "kind": "dev",
    "methods": {},
    "version": 1
  },
  "userdoc": {
    "events": {
      "CourseCreated(uint256,string)": {
        "notice": "    EVENTS"
      }
    },
    "kind": "user",
    "methods": {
      "papaApprove(uint256)": {
        "notice": "Only a student can access this Student approves that contract, the total cost of the course is deducted from student wallet and stored on the contract"
      },
      "papaAttendLesson(uint256)": {
        "notice": "Only a student can access this   The student is giving attendance, making possible a partial withdrawn for the teacher"
      },
      "papaCreate(string,uint256,uint256,uint256,address)": {
        "notice": "Anyone who call this function will be a Tutor. Tutor creates the course, wich includes number of lessons, total cost, address of student and a time lock"
      },
      "papaInitLesson(uint256)": {
        "notice": "Only a tutor can access this The tutor calls for the start of an individual lesson. The tutor cannot sign this if the student didn't sign attendance"
      },
      "papaRecover(uint256)": {
        "notice": "Only a student can access this If a time lock for unfulfillment is set, after that period of time, the student can recover all of his remaining assets"
      },
      "papaView(address)": {
        "notice": "List all courses for any given address"
      },
      "papaWithdraw(uint256)": {
        "notice": "Only a tutor can access this Tutor can withdraw one lesson at a time, or multiple lessons given at once"
      }
    },
    "version": 1
  }
}