{
  "contractName": "PapaPay",
  "abi": [
    {
      "inputs": [],
      "stateMutability": "nonpayable",
      "type": "constructor"
    },
    {
      "anonymous": false,
      "inputs": [
        {
          "indexed": false,
          "internalType": "uint256",
          "name": "papaCourse",
          "type": "uint256"
        },
        {
          "indexed": false,
          "internalType": "string",
          "name": "papaDesc",
          "type": "string"
        }
      ],
      "name": "CourseCreated",
      "type": "event"
    },
    {
      "anonymous": false,
      "inputs": [
        {
          "indexed": false,
          "internalType": "uint256",
          "name": "papaCourse",
          "type": "uint256"
        },
        {
          "indexed": false,
          "internalType": "uint256",
          "name": "papaBalance",
          "type": "uint256"
        }
      ],
      "name": "CourseDeposit",
      "type": "event"
    },
    {
      "anonymous": false,
      "inputs": [
        {
          "indexed": false,
          "internalType": "uint256",
          "name": "papaCourse",
          "type": "uint256"
        },
        {
          "indexed": false,
          "internalType": "uint256",
          "name": "papaStudentSign",
          "type": "uint256"
        }
      ],
      "name": "LessonAttended",
      "type": "event"
    },
    {
      "anonymous": false,
      "inputs": [
        {
          "indexed": false,
          "internalType": "uint256",
          "name": "papaCourse",
          "type": "uint256"
        },
        {
          "indexed": false,
          "internalType": "uint256",
          "name": "papaTutorSign",
          "type": "uint256"
        }
      ],
      "name": "LessonStarted",
      "type": "event"
    },
    {
      "stateMutability": "nonpayable",
      "type": "fallback"
    },
    {
      "inputs": [],
      "name": "papaCount",
      "outputs": [
        {
          "internalType": "uint256",
          "name": "",
          "type": "uint256"
        }
      ],
      "stateMutability": "view",
      "type": "function",
      "constant": true
    },
    {
      "inputs": [
        {
          "internalType": "uint256",
          "name": "",
          "type": "uint256"
        }
      ],
      "name": "papas",
      "outputs": [
        {
          "internalType": "string",
          "name": "papaDesc",
          "type": "string"
        },
        {
          "internalType": "uint256",
          "name": "papaCourse",
          "type": "uint256"
        },
        {
          "internalType": "uint256",
          "name": "papaPrice",
          "type": "uint256"
        },
        {
          "internalType": "uint256",
          "name": "papaLessons",
          "type": "uint256"
        },
        {
          "internalType": "uint256",
          "name": "papaLock",
          "type": "uint256"
        },
        {
          "internalType": "uint256",
          "name": "papaTS",
          "type": "uint256"
        },
        {
          "internalType": "uint256",
          "name": "papaBalance",
          "type": "uint256"
        },
        {
          "internalType": "address",
          "name": "papaTutor",
          "type": "address"
        },
        {
          "internalType": "uint256",
          "name": "papaTutorSign",
          "type": "uint256"
        },
        {
          "internalType": "address",
          "name": "papaStudent",
          "type": "address"
        },
        {
          "internalType": "uint256",
          "name": "papaStudentSign",
          "type": "uint256"
        },
        {
          "internalType": "uint256",
          "name": "papaWithdrew",
          "type": "uint256"
        }
      ],
      "stateMutability": "view",
      "type": "function",
      "constant": true
    },
    {
      "inputs": [
        {
          "internalType": "string",
          "name": "_papaDesc",
          "type": "string"
        },
        {
          "internalType": "uint256",
          "name": "_papaPrice",
          "type": "uint256"
        },
        {
          "internalType": "uint256",
          "name": "_papaLessons",
          "type": "uint256"
        },
        {
          "internalType": "uint256",
          "name": "_papaLock",
          "type": "uint256"
        },
        {
          "internalType": "address",
          "name": "_papaStudent",
          "type": "address"
        }
      ],
      "name": "papaCreate",
      "outputs": [
        {
          "internalType": "bool",
          "name": "",
          "type": "bool"
        }
      ],
      "stateMutability": "nonpayable",
      "type": "function"
    },
    {
      "inputs": [
        {
          "internalType": "uint256",
          "name": "_papaCourse",
          "type": "uint256"
        }
      ],
      "name": "papaApprove",
      "outputs": [],
      "stateMutability": "payable",
      "type": "function",
      "payable": true
    },
    {
      "inputs": [
        {
          "internalType": "address",
          "name": "_anyaddress",
          "type": "address"
        }
      ],
      "name": "papaView",
      "outputs": [],
      "stateMutability": "view",
      "type": "function",
      "constant": true
    },
    {
      "inputs": [
        {
          "internalType": "uint256",
          "name": "_papaCourse",
          "type": "uint256"
        }
      ],
      "name": "papaInitLesson",
      "outputs": [],
      "stateMutability": "nonpayable",
      "type": "function"
    },
    {
      "inputs": [
        {
          "internalType": "uint256",
          "name": "_papaCourse",
          "type": "uint256"
        }
      ],
      "name": "papaAttendLesson",
      "outputs": [],
      "stateMutability": "nonpayable",
      "type": "function"
    },
    {
      "inputs": [
        {
          "internalType": "uint256",
          "name": "_papaCourse",
          "type": "uint256"
        }
      ],
      "name": "papaWithdraw",
      "outputs": [],
      "stateMutability": "nonpayable",
      "type": "function"
    },
    {
      "inputs": [
        {
          "internalType": "uint256",
          "name": "_papaCourse",
          "type": "uint256"
        }
      ],
      "name": "papaRecover",
      "outputs": [],
      "stateMutability": "nonpayable",
      "type": "function"
    }
  ],
  "bytecode": "0x608060405234801561001057600080fd5b5060016000819055506122ce806100286000396000f3fe60806040526004361061008a5760003560e01c80639254e172116100595780639254e17214610131578063980d38361461016e578063f062ba10146101b6578063fc02ea3c146101e1578063ffbddbee1461020a5761008b565b806334b8ed521461009a57806349f8ce12146100c35780635dce1313146100ec57806389fe935e146101155761008b565b5b34801561009757600080fd5b50005b3480156100a657600080fd5b506100c160048036038101906100bc91906114a0565b610233565b005b3480156100cf57600080fd5b506100ea60048036038101906100e59190611558565b610236565b005b3480156100f857600080fd5b50610113600480360381019061010e9190611558565b610490565b005b61012f600480360381019061012a9190611558565b610812565b005b34801561013d57600080fd5b50610158600480360381019061015391906114c9565b610a1e565b6040516101659190611b94565b60405180910390f35b34801561017a57600080fd5b5061019560048036038101906101909190611558565b610d06565b6040516101ad9c9b9a99989796959493929190611baf565b60405180910390f35b3480156101c257600080fd5b506101cb610e2e565b6040516101d89190611ed0565b60405180910390f35b3480156101ed57600080fd5b5061020860048036038101906102039190611558565b610e34565b005b34801561021657600080fd5b50610231600480360381019061022c9190611558565b6110d6565b005b50565b6002600082815260200190815260200160002060090160009054906101000a900473ffffffffffffffffffffffffffffffffffffffff1673ffffffffffffffffffffffffffffffffffffffff163373ffffffffffffffffffffffffffffffffffffffff16146102da576040517f08c379a00000000000000000000000000000000000000000000000000000000081526004016102d190611e30565b60405180910390fd5b600060026000838152602001908152602001600020600601541415610334576040517f08c379a000000000000000000000000000000000000000000000000000000000815260040161032b90611dd0565b60405180910390fd5b600260008281526020019081526020016000206003015460026000838152602001908152602001600020600a0154106103a2576040517f08c379a000000000000000000000000000000000000000000000000000000000815260040161039990611db0565b60405180910390fd5b600260008281526020019081526020016000206008015460026000838152602001908152602001600020600a015414610410576040517f08c379a000000000000000000000000000000000000000000000000000000000815260040161040790611d90565b60405180910390fd5b600160026000838152602001908152602001600020600a0160008282546104379190611fcc565b925050819055507f7363f45a12f7ce94988b9d37b2be5952d9ab1f6ce2c0e7a787da4aef9c109d738160026000848152602001908152602001600020600a0154604051610485929190611f1b565b60405180910390a150565b600260005414156104d6576040517f08c379a00000000000000000000000000000000000000000000000000000000081526004016104cd90611e70565b60405180910390fd5b60026000819055506002600082815260200190815260200160002060070160009054906101000a900473ffffffffffffffffffffffffffffffffffffffff1673ffffffffffffffffffffffffffffffffffffffff163373ffffffffffffffffffffffffffffffffffffffff1614610582576040517f08c379a000000000000000000000000000000000000000000000000000000000815260040161057990611eb0565b60405180910390fd5b60006002600083815260200190815260200160002060060154141580156105c057506000600260008381526020019081526020016000206008015414155b6105ff576040517f08c379a00000000000000000000000000000000000000000000000000000000081526004016105f690611e10565b60405180910390fd5b60026000828152602001908152602001600020600b01546002600083815260200190815260200160002060080154141561066e576040517f08c379a000000000000000000000000000000000000000000000000000000000815260040161066590611d10565b60405180910390fd5b600060026000838152602001908152602001600020600b015460026000848152602001908152602001600020600801546106a891906120ad565b600260008481526020019081526020016000206003015460026000858152602001908152602001600020600201546106e09190612022565b6106ea9190612053565b9050600260008381526020019081526020016000206008015460026000848152602001908152602001600020600b018190555080600260008481526020019081526020016000206006015461073f91906120ad565b600260008481526020019081526020016000206006018190555060003373ffffffffffffffffffffffffffffffffffffffff168260405161077f90611b7f565b60006040518083038185875af1925050503d80600081146107bc576040519150601f19603f3d011682016040523d82523d6000602084013e6107c1565b606091505b5050905080610805576040517f08c379a00000000000000000000000000000000000000000000000000000000081526004016107fc90611d50565b60405180910390fd5b5050600160008190555050565b806002600082815260200190815260200160002060090160009054906101000a900473ffffffffffffffffffffffffffffffffffffffff1673ffffffffffffffffffffffffffffffffffffffff163373ffffffffffffffffffffffffffffffffffffffff16146108b7576040517f08c379a00000000000000000000000000000000000000000000000000000000081526004016108ae90611e30565b60405180910390fd5b816000600260008381526020019081526020016000206006015414610911576040517f08c379a000000000000000000000000000000000000000000000000000000000815260040161090890611e50565b60405180910390fd5b826002600082815260200190815260200160002060020154341461096a576040517f08c379a000000000000000000000000000000000000000000000000000000000815260040161096190611df0565b60405180910390fd5b346002600086815260200190815260200160002060060160008282546109909190611fcc565b92505081905550603c60026000868152602001908152602001600020600401546109ba9190612053565b426109c59190611fcc565b60026000868152602001908152602001600020600501819055507f11d0cd4dfc5cdd45ffbd5e103be88ad523a93e6cbe44de276c5e20248d7d58ee8434604051610a10929190611f1b565b60405180910390a150505050565b600060a8831115610a64576040517f08c379a0000000000000000000000000000000000000000000000000000000008152600401610a5b90611e90565b60405180910390fd5b8173ffffffffffffffffffffffffffffffffffffffff163373ffffffffffffffffffffffffffffffffffffffff161415610ad3576040517f08c379a0000000000000000000000000000000000000000000000000000000008152600401610aca90611cd0565b60405180910390fd5b60008511610b16576040517f08c379a0000000000000000000000000000000000000000000000000000000008152600401610b0d90611c70565b60405180910390fd5b60008411610b59576040517f08c379a0000000000000000000000000000000000000000000000000000000008152600401610b5090611cf0565b60405180910390fd5b856002600060015481526020019081526020016000206000019080519060200190610b8592919061136b565b50600154600260006001548152602001908152602001600020600101819055508460026000600154815260200190815260200160002060020181905550836002600060015481526020019081526020016000206003018190555082600260006001548152602001908152602001600020600401819055503360026000600154815260200190815260200160002060070160006101000a81548173ffffffffffffffffffffffffffffffffffffffff021916908373ffffffffffffffffffffffffffffffffffffffff1602179055508160026000600154815260200190815260200160002060090160006101000a81548173ffffffffffffffffffffffffffffffffffffffff021916908373ffffffffffffffffffffffffffffffffffffffff1602179055507fc2c844c5f6c72fe99b99de0942ba619e99957d3e8f7e614263ecfe40de952e5860015487604051610cdd929190611eeb565b60405180910390a160018054610cf39190611fcc565b6001819055506001905095945050505050565b6002602052806000526040600020600091509050806000018054610d299061216b565b80601f0160208091040260200160405190810160405280929190818152602001828054610d559061216b565b8015610da25780601f10610d7757610100808354040283529160200191610da2565b820191906000526020600020905b815481529060010190602001808311610d8557829003601f168201915b5050505050908060010154908060020154908060030154908060040154908060050154908060060154908060070160009054906101000a900473ffffffffffffffffffffffffffffffffffffffff16908060080154908060090160009054906101000a900473ffffffffffffffffffffffffffffffffffffffff169080600a01549080600b015490508c565b60015481565b6002600082815260200190815260200160002060070160009054906101000a900473ffffffffffffffffffffffffffffffffffffffff1673ffffffffffffffffffffffffffffffffffffffff163373ffffffffffffffffffffffffffffffffffffffff1614610ed8576040517f08c379a0000000000000000000000000000000000000000000000000000000008152600401610ecf90611d30565b60405180910390fd5b600060026000838152602001908152602001600020600601541415610f32576040517f08c379a0000000000000000000000000000000000000000000000000000000008152600401610f2990611dd0565b60405180910390fd5b6002600082815260200190815260200160002060030154600260008381526020019081526020016000206008015410610fa0576040517f08c379a0000000000000000000000000000000000000000000000000000000008152600401610f9790611c90565b60405180910390fd5b60026000828152602001908152602001600020600a015460026000838152602001908152602001600020600801541061100e576040517f08c379a000000000000000000000000000000000000000000000000000000000815260040161100590611cb0565b60405180910390fd5b60016002600083815260200190815260200160002060080160008282546110359190611fcc565b92505081905550603c600260008381526020019081526020016000206004015461105f9190612053565b4261106a9190611fcc565b60026000838152602001908152602001600020600501819055507fa412764a711d5c1840b30d5ccfd1b317b1a008d2c3fdf25f87c2bee0ba30d3678160026000848152602001908152602001600020600801546040516110cb929190611f1b565b60405180910390a150565b6002600054141561111c576040517f08c379a000000000000000000000000000000000000000000000000000000000815260040161111390611e70565b60405180910390fd5b60026000819055506002600082815260200190815260200160002060090160009054906101000a900473ffffffffffffffffffffffffffffffffffffffff1673ffffffffffffffffffffffffffffffffffffffff163373ffffffffffffffffffffffffffffffffffffffff16146111c8576040517f08c379a00000000000000000000000000000000000000000000000000000000081526004016111bf90611e30565b60405180910390fd5b600060026000838152602001908152602001600020600601541415611222576040517f08c379a000000000000000000000000000000000000000000000000000000000815260040161121990611dd0565b60405180910390fd5b600260008281526020019081526020016000206005015442101561127b576040517f08c379a000000000000000000000000000000000000000000000000000000000815260040161127290611d70565b60405180910390fd5b6000600260008381526020019081526020016000206006015490506000600260008481526020019081526020016000206006018190555060003373ffffffffffffffffffffffffffffffffffffffff16826040516112d890611b7f565b60006040518083038185875af1925050503d8060008114611315576040519150601f19603f3d011682016040523d82523d6000602084013e61131a565b606091505b505090508061135e576040517f08c379a000000000000000000000000000000000000000000000000000000000815260040161135590611d50565b60405180910390fd5b5050600160008190555050565b8280546113779061216b565b90600052602060002090601f01602090048101928261139957600085556113e0565b82601f106113b257805160ff19168380011785556113e0565b828001600101855582156113e0579182015b828111156113df5782518255916020019190600101906113c4565b5b5090506113ed91906113f1565b5090565b5b8082111561140a5760008160009055506001016113f2565b5090565b600061142161141c84611f75565b611f44565b90508281526020810184848401111561143957600080fd5b611444848285612129565b509392505050565b60008135905061145b8161226a565b92915050565b600082601f83011261147257600080fd5b813561148284826020860161140e565b91505092915050565b60008135905061149a81612281565b92915050565b6000602082840312156114b257600080fd5b60006114c08482850161144c565b91505092915050565b600080600080600060a086880312156114e157600080fd5b600086013567ffffffffffffffff8111156114fb57600080fd5b61150788828901611461565b95505060206115188882890161148b565b94505060406115298882890161148b565b935050606061153a8882890161148b565b925050608061154b8882890161144c565b9150509295509295909350565b60006020828403121561156a57600080fd5b60006115788482850161148b565b91505092915050565b61158a816120e1565b82525050565b611599816120f3565b82525050565b60006115aa82611fa5565b6115b48185611fbb565b93506115c4818560208601612138565b6115cd81612259565b840191505092915050565b60006115e5601183611fbb565b91507f50726963652063616e6e6f7420626520300000000000000000000000000000006000830152602082019050919050565b6000611625601683611fbb565b91507f416c6c206c6573736f6e73207765726520676976656e000000000000000000006000830152602082019050919050565b6000611665601e83611fbb565b91507f53747564656e74206469646e2774207369676e20617474656e64616e636500006000830152602082019050919050565b60006116a5602683611fbb565b91507f53747564656e7420616e6420746561636865722063616e6e6f7420626520746860008301527f652073616d6500000000000000000000000000000000000000000000000000006020830152604082019050919050565b600061170b601383611fbb565b91507f4c6573736f6e732063616e6e6f742062652030000000000000000000000000006000830152602082019050919050565b600061174b602283611fbb565b91507f416c72656164792077697468647261776e20796f7572206c617374206c65737360008301527f6f6e0000000000000000000000000000000000000000000000000000000000006020830152604082019050919050565b60006117b1600b83611fbb565b91507f4e6f742061205475746f720000000000000000000000000000000000000000006000830152602082019050919050565b60006117f1601483611fbb565b91507f4661696c656420746f2073656e642045746865720000000000000000000000006000830152602082019050919050565b6000611831601c83611fbb565b91507f54696d656c6f636b20686173206e6f74206578706972656420796574000000006000830152602082019050919050565b6000611871603083611fbb565b91507f596f7520616c7265616479207369676e656420617474656e646163652e204c6560008301527f73736f6e206e6f742073746172746564000000000000000000000000000000006020830152604082019050919050565b60006118d7601683611fbb565b91507f416c6c206c6573736f6e7320776572652074616b656e000000000000000000006000830152602082019050919050565b6000611917601583611fbb565b91507f436f7572736520686173206e6f2062616c616e636500000000000000000000006000830152602082019050919050565b6000611957600e83611fbb565b91507f4e6f7420656e6f756768204554480000000000000000000000000000000000006000830152602082019050919050565b6000611997602883611fbb565b91507f436865636b20636f757273652062616c616e6365206f72206c6573736f6e207360008301527f69676e61747572650000000000000000000000000000000000000000000000006020830152604082019050919050565b60006119fd600083611fb0565b9150600082019050919050565b6000611a17600d83611fbb565b91507f4e6f7420612073747564656e74000000000000000000000000000000000000006000830152602082019050919050565b6000611a57601583611fbb565b91507f436f7572736520616c72656164792066756e64656400000000000000000000006000830152602082019050919050565b6000611a97601f83611fbb565b91507f5265656e7472616e637947756172643a207265656e7472616e742063616c6c006000830152602082019050919050565b6000611ad7602a83611fbb565b91507f54696d656c6f636b2063616e6e6f742065786365656420372064617973206f7260008301527f2031363820686f757273000000000000000000000000000000000000000000006020830152604082019050919050565b6000611b3d600b83611fbb565b91507f4e6f742061207475746f720000000000000000000000000000000000000000006000830152602082019050919050565b611b798161211f565b82525050565b6000611b8a826119f0565b9150819050919050565b6000602082019050611ba96000830184611590565b92915050565b6000610180820190508181036000830152611bca818f61159f565b9050611bd9602083018e611b70565b611be6604083018d611b70565b611bf3606083018c611b70565b611c00608083018b611b70565b611c0d60a083018a611b70565b611c1a60c0830189611b70565b611c2760e0830188611581565b611c35610100830187611b70565b611c43610120830186611581565b611c51610140830185611b70565b611c5f610160830184611b70565b9d9c50505050505050505050505050565b60006020820190508181036000830152611c89816115d8565b9050919050565b60006020820190508181036000830152611ca981611618565b9050919050565b60006020820190508181036000830152611cc981611658565b9050919050565b60006020820190508181036000830152611ce981611698565b9050919050565b60006020820190508181036000830152611d09816116fe565b9050919050565b60006020820190508181036000830152611d298161173e565b9050919050565b60006020820190508181036000830152611d49816117a4565b9050919050565b60006020820190508181036000830152611d69816117e4565b9050919050565b60006020820190508181036000830152611d8981611824565b9050919050565b60006020820190508181036000830152611da981611864565b9050919050565b60006020820190508181036000830152611dc9816118ca565b9050919050565b60006020820190508181036000830152611de98161190a565b9050919050565b60006020820190508181036000830152611e098161194a565b9050919050565b60006020820190508181036000830152611e298161198a565b9050919050565b60006020820190508181036000830152611e4981611a0a565b9050919050565b60006020820190508181036000830152611e6981611a4a565b9050919050565b60006020820190508181036000830152611e8981611a8a565b9050919050565b60006020820190508181036000830152611ea981611aca565b9050919050565b60006020820190508181036000830152611ec981611b30565b9050919050565b6000602082019050611ee56000830184611b70565b92915050565b6000604082019050611f006000830185611b70565b8181036020830152611f12818461159f565b90509392505050565b6000604082019050611f306000830185611b70565b611f3d6020830184611b70565b9392505050565b6000604051905081810181811067ffffffffffffffff82111715611f6b57611f6a61222a565b5b8060405250919050565b600067ffffffffffffffff821115611f9057611f8f61222a565b5b601f19601f8301169050602081019050919050565b600081519050919050565b600081905092915050565b600082825260208201905092915050565b6000611fd78261211f565b9150611fe28361211f565b9250827fffffffffffffffffffffffffffffffffffffffffffffffffffffffffffffffff038211156120175761201661219d565b5b828201905092915050565b600061202d8261211f565b91506120388361211f565b925082612048576120476121cc565b5b828204905092915050565b600061205e8261211f565b91506120698361211f565b9250817fffffffffffffffffffffffffffffffffffffffffffffffffffffffffffffffff04831182151516156120a2576120a161219d565b5b828202905092915050565b60006120b88261211f565b91506120c38361211f565b9250828210156120d6576120d561219d565b5b828203905092915050565b60006120ec826120ff565b9050919050565b60008115159050919050565b600073ffffffffffffffffffffffffffffffffffffffff82169050919050565b6000819050919050565b82818337600083830152505050565b60005b8381101561215657808201518184015260208101905061213b565b83811115612165576000848401525b50505050565b6000600282049050600182168061218357607f821691505b60208210811415612197576121966121fb565b5b50919050565b7f4e487b7100000000000000000000000000000000000000000000000000000000600052601160045260246000fd5b7f4e487b7100000000000000000000000000000000000000000000000000000000600052601260045260246000fd5b7f4e487b7100000000000000000000000000000000000000000000000000000000600052602260045260246000fd5b7f4e487b7100000000000000000000000000000000000000000000000000000000600052604160045260246000fd5b6000601f19601f8301169050919050565b612273816120e1565b811461227e57600080fd5b50565b61228a8161211f565b811461229557600080fd5b5056fea264697066735822122038de1857ae83d4702e837ef2c21adbf4f2b9425e26955413c483df41937a5a8664736f6c63430008000033",
  "immutableReferences": {},
  "source": "// SPDX-License-Identifier: MIT\r\npragma solidity >=0.6 <0.9.0;\r\n\r\nimport \"@openzeppelin/contracts/security/ReentrancyGuard.sol\";\r\n\r\ncontract PapaPay is ReentrancyGuard {\r\n\r\n  uint public papaCount;\r\n\r\n  mapping (uint => Papa) public papas;\r\n\r\n  struct Papa {\r\n          // Short description of the contract \r\n          string papaDesc;\r\n          // Course number (unique)\r\n          uint papaCourse;\r\n          // Total price for the course\r\n          uint papaPrice;\r\n          // Amount of lessons\r\n          uint papaLessons;\r\n          // Timelock period in days. After that the student can recover his tokens\r\n          uint papaLock;\r\n          // Timestamp\r\n          uint papaTS;\r\n          // Balance of Course\r\n          uint papaBalance;\r\n          // Teacher and student addresses and signed assistance\r\n          address papaTutor;\r\n          uint papaTutorSign;\r\n          address papaStudent;\r\n          uint papaStudentSign;\r\n          // Withdrawn lessons\r\n          uint papaWithdrew;\r\n        }\r\n\r\n///\r\n///    EVENTS\r\n///\r\n\r\n  event CourseCreated (uint papaCourse, string papaDesc);\r\n  event CourseDeposit (uint papaCourse, uint papaBalance);\r\n  event LessonStarted (uint papaCourse, uint papaTutorSign);\r\n  event LessonAttended (uint papaCourse, uint papaStudentSign);\r\n\r\n///\r\n///    MODIFIERS\r\n///\r\n\r\n\r\n  modifier isStudent(uint _papaCourse) {\r\n      require(msg.sender == papas[_papaCourse].papaStudent, \"Not a student\");\r\n      _;\r\n  }\r\n\r\n  modifier zeroBalance(uint _papaCourse) {\r\n       require(papas[_papaCourse].papaBalance == 0, \"Course already funded\");\r\n      _;\r\n  }\r\n\r\n  modifier exactBalance(uint _papaCourse) {\r\n       require(msg.value == papas[_papaCourse].papaPrice, \"Not enough ETH\");\r\n      _;\r\n  }\r\n\r\n  constructor()  {\r\n  }\r\n\r\n/// Anyone who call this function will be a Tutor. Tutor creates the course, wich includes number of lessons, total cost, address of student and a time lock\r\n  function papaCreate( string memory _papaDesc, uint _papaPrice, uint _papaLessons, uint _papaLock, address _papaStudent ) \r\n    external \r\n    returns (bool)\r\n    {\r\n      require(_papaLock <= 168,\"Timelock cannot exceed 7 days or 168 hours\");\r\n      require(msg.sender != _papaStudent,\"Student and teacher cannot be the same\");\r\n      require(_papaPrice > 0,\"Price cannot be 0\");\r\n      require(_papaLessons > 0,\"Lessons cannot be 0\");\r\n      papas[papaCount].papaDesc = _papaDesc;\r\n      papas[papaCount].papaCourse= papaCount;\r\n      papas[papaCount].papaPrice= _papaPrice;\r\n      papas[papaCount].papaLessons= _papaLessons;\r\n      papas[papaCount].papaLock= _papaLock;\r\n      papas[papaCount].papaTutor= msg.sender;\r\n      papas[papaCount].papaStudent= _papaStudent;\r\n      emit CourseCreated(papaCount, _papaDesc);\r\n      papaCount = papaCount +1;\r\n      return true;\r\n    }\r\n\r\n/// Only a student can access this\r\n/// Student approves that contract, the total cost of the course is deducted from student wallet and stored on the contract\r\n\r\n  function papaApprove(uint _papaCourse)\r\n    external\r\n    payable \r\n    isStudent(_papaCourse) \r\n    zeroBalance(_papaCourse) \r\n    exactBalance(_papaCourse)\r\n    {\r\n      papas[_papaCourse].papaBalance += msg.value;\r\n      papas[_papaCourse].papaTS = block.timestamp + (papas[_papaCourse].papaLock * 60);\r\n      emit CourseDeposit(_papaCourse,msg.value);\r\n    }\r\n\r\n/// List all courses for any given address\r\n  function papaView(address _anyaddress) \r\n    external \r\n    view \r\n    { }\r\n\r\n/// Only a tutor can access this\r\n/// The tutor calls for the start of an individual lesson. The tutor cannot sign this if the student didn't sign attendance\r\n  function papaInitLesson(uint _papaCourse) \r\n    external \r\n    {\r\n      require (msg.sender == papas[_papaCourse].papaTutor, \"Not a Tutor\");\r\n      require (papas[_papaCourse].papaBalance != 0, \"Course has no balance\");\r\n      require (papas[_papaCourse].papaTutorSign < papas[_papaCourse].papaLessons, \"All lessons were given\");\r\n      require (papas[_papaCourse].papaTutorSign < papas[_papaCourse].papaStudentSign, \"Student didn't sign attendance\");\r\n      papas[_papaCourse].papaTutorSign += 1;\r\n      papas[_papaCourse].papaTS = block.timestamp + (papas[_papaCourse].papaLock * 60);\r\n      emit LessonStarted(_papaCourse,papas[_papaCourse].papaTutorSign);\r\n    }\r\n\r\n/// Only a student can access this  \r\n/// The student is giving attendance, making possible a partial withdrawn for the teacher\r\n  function papaAttendLesson(uint _papaCourse) \r\n    external \r\n    {\r\n      require (msg.sender == papas[_papaCourse].papaStudent, \"Not a student\");\r\n      require (papas[_papaCourse].papaBalance != 0, \"Course has no balance\");\r\n      require (papas[_papaCourse].papaStudentSign < papas[_papaCourse].papaLessons, \"All lessons were taken\");\r\n      require (papas[_papaCourse].papaStudentSign == papas[_papaCourse].papaTutorSign, \"You already signed attendace. Lesson not started\");\r\n      papas[_papaCourse].papaStudentSign += 1;\r\n      emit LessonAttended(_papaCourse,papas[_papaCourse].papaStudentSign);\r\n    }\r\n\r\n/// Only a tutor can access this\r\n/// Tutor can withdraw one lesson at a time, or multiple lessons given at once\r\n  function papaWithdraw(uint _papaCourse) \r\n    external\r\n    nonReentrant\r\n    {\r\n      require (msg.sender == papas[_papaCourse].papaTutor, \"Not a tutor\");\r\n      require (papas[_papaCourse].papaBalance != 0 && papas[_papaCourse].papaTutorSign != 0,\"Check course balance or lesson signature\");\r\n      require (papas[_papaCourse].papaTutorSign != papas[_papaCourse].papaWithdrew,\"Already withdrawn your last lesson\");\r\n      uint papaAmount = (papas[_papaCourse].papaPrice / papas[_papaCourse].papaLessons) * (papas[_papaCourse].papaTutorSign - papas[_papaCourse].papaWithdrew);\r\n      papas[_papaCourse].papaWithdrew = papas[_papaCourse].papaTutorSign;\r\n      papas[_papaCourse].papaBalance = papas[_papaCourse].papaBalance - papaAmount;\r\n      (bool sent, ) = msg.sender.call{value: papaAmount}(\"\");\r\n      require(sent, \"Failed to send Ether\");\r\n    }\r\n\r\n/// Only a student can access this\r\n/// If a time lock for unfulfillment is set, after that period of time, the student can recover all of his remaining assets\r\n  function papaRecover(uint _papaCourse) \r\n  external \r\n  nonReentrant\r\n  {\r\n    require (msg.sender == papas[_papaCourse].papaStudent, \"Not a student\");\r\n    require (papas[_papaCourse].papaBalance != 0,\"Course has no balance\");\r\n    require (block.timestamp >= papas[_papaCourse].papaTS,\"Timelock has not expired yet\");\r\n    uint _recover = papas[_papaCourse].papaBalance;\r\n    papas[_papaCourse].papaBalance = 0;\r\n    (bool sent, ) = msg.sender.call{value: _recover}(\"\");\r\n    require(sent, \"Failed to send Ether\");\r\n  }\r\n\r\n  fallback () external {\r\n///  A fallback here\r\n  }\r\n\r\n}",
  "sourcePath": "D:\\OneDrive\\Code\\papaPay\\contracts\\PapaPay.sol",
  "compiler": {
    "name": "solc",
    "version": "0.8.0+commit.c7dfd78e.Emscripten.clang"
  },
  "schemaVersion": "3.4.3",
  "updatedAt": "2021-11-17T12:43:49.040Z",
  "networkType": "ethereum",
  "devdoc": {
    "kind": "dev",
    "methods": {},
    "version": 1
  },
  "userdoc": {
    "events": {
      "CourseCreated(uint256,string)": {
        "notice": "    EVENTS"
      }
    },
    "kind": "user",
    "methods": {
      "papaApprove(uint256)": {
        "notice": "Only a student can access this Student approves that contract, the total cost of the course is deducted from student wallet and stored on the contract"
      },
      "papaAttendLesson(uint256)": {
        "notice": "Only a student can access this   The student is giving attendance, making possible a partial withdrawn for the teacher"
      },
      "papaCreate(string,uint256,uint256,uint256,address)": {
        "notice": "Anyone who call this function will be a Tutor. Tutor creates the course, wich includes number of lessons, total cost, address of student and a time lock"
      },
      "papaInitLesson(uint256)": {
        "notice": "Only a tutor can access this The tutor calls for the start of an individual lesson. The tutor cannot sign this if the student didn't sign attendance"
      },
      "papaRecover(uint256)": {
        "notice": "Only a student can access this If a time lock for unfulfillment is set, after that period of time, the student can recover all of his remaining assets"
      },
      "papaView(address)": {
        "notice": "List all courses for any given address"
      },
      "papaWithdraw(uint256)": {
        "notice": "Only a tutor can access this Tutor can withdraw one lesson at a time, or multiple lessons given at once"
      }
    },
    "version": 1
  }
}