{
  "contractName": "PapaPay",
  "abi": [
    {
      "inputs": [],
      "stateMutability": "nonpayable",
      "type": "constructor"
    },
    {
      "anonymous": false,
      "inputs": [
        {
          "indexed": false,
          "internalType": "uint256",
          "name": "papaCourse",
          "type": "uint256"
        }
      ],
      "name": "CourseCreated",
      "type": "event"
    },
    {
      "anonymous": false,
      "inputs": [
        {
          "indexed": false,
          "internalType": "uint256",
          "name": "papaCourse",
          "type": "uint256"
        },
        {
          "indexed": false,
          "internalType": "uint256",
          "name": "papaBalance",
          "type": "uint256"
        }
      ],
      "name": "CourseDeposit",
      "type": "event"
    },
    {
      "stateMutability": "nonpayable",
      "type": "fallback"
    },
    {
      "inputs": [],
      "name": "papaCount",
      "outputs": [
        {
          "internalType": "uint256",
          "name": "",
          "type": "uint256"
        }
      ],
      "stateMutability": "view",
      "type": "function",
      "constant": true
    },
    {
      "inputs": [
        {
          "internalType": "uint256",
          "name": "",
          "type": "uint256"
        }
      ],
      "name": "papas",
      "outputs": [
        {
          "internalType": "string",
          "name": "papaDesc",
          "type": "string"
        },
        {
          "internalType": "uint256",
          "name": "papaCourse",
          "type": "uint256"
        },
        {
          "internalType": "uint256",
          "name": "papaPrice",
          "type": "uint256"
        },
        {
          "internalType": "uint256",
          "name": "papaLessons",
          "type": "uint256"
        },
        {
          "internalType": "uint256",
          "name": "papaLock",
          "type": "uint256"
        },
        {
          "internalType": "uint256",
          "name": "papaBalance",
          "type": "uint256"
        },
        {
          "internalType": "address",
          "name": "papaTutor",
          "type": "address"
        },
        {
          "internalType": "address",
          "name": "papaStudent",
          "type": "address"
        }
      ],
      "stateMutability": "view",
      "type": "function",
      "constant": true
    },
    {
      "inputs": [
        {
          "internalType": "string",
          "name": "_papaDesc",
          "type": "string"
        },
        {
          "internalType": "uint256",
          "name": "_papaPrice",
          "type": "uint256"
        },
        {
          "internalType": "uint256",
          "name": "_papaLessons",
          "type": "uint256"
        },
        {
          "internalType": "uint256",
          "name": "_papaLock",
          "type": "uint256"
        },
        {
          "internalType": "address",
          "name": "_papaStudent",
          "type": "address"
        }
      ],
      "name": "papaCreate",
      "outputs": [
        {
          "internalType": "bool",
          "name": "",
          "type": "bool"
        }
      ],
      "stateMutability": "nonpayable",
      "type": "function"
    },
    {
      "inputs": [
        {
          "internalType": "uint256",
          "name": "_papaCourse",
          "type": "uint256"
        }
      ],
      "name": "papaApprove",
      "outputs": [],
      "stateMutability": "payable",
      "type": "function",
      "payable": true
    },
    {
      "inputs": [
        {
          "internalType": "address",
          "name": "_anyaddress",
          "type": "address"
        }
      ],
      "name": "papaView",
      "outputs": [],
      "stateMutability": "view",
      "type": "function",
      "constant": true
    },
    {
      "inputs": [
        {
          "internalType": "address",
          "name": "_tutor",
          "type": "address"
        },
        {
          "internalType": "uint256",
          "name": "_papaCourse",
          "type": "uint256"
        }
      ],
      "name": "papaInit",
      "outputs": [],
      "stateMutability": "nonpayable",
      "type": "function"
    },
    {
      "inputs": [
        {
          "internalType": "address",
          "name": "_student",
          "type": "address"
        },
        {
          "internalType": "uint256",
          "name": "_papaCourse",
          "type": "uint256"
        }
      ],
      "name": "papaAssist",
      "outputs": [],
      "stateMutability": "nonpayable",
      "type": "function"
    },
    {
      "inputs": [
        {
          "internalType": "address",
          "name": "_tutor",
          "type": "address"
        },
        {
          "internalType": "uint256",
          "name": "_papaCourse",
          "type": "uint256"
        }
      ],
      "name": "papaWithdrawn",
      "outputs": [],
      "stateMutability": "nonpayable",
      "type": "function"
    },
    {
      "inputs": [
        {
          "internalType": "address",
          "name": "_student",
          "type": "address"
        },
        {
          "internalType": "uint256",
          "name": "_papaCourse",
          "type": "uint256"
        }
      ],
      "name": "papaRecover",
      "outputs": [],
      "stateMutability": "nonpayable",
      "type": "function"
    }
  ],
  "bytecode": "0x60806040526000600360006101000a81548160ff02191690831515021790555034801561002b57600080fd5b506001600081905550610e23806100436000396000f3fe60806040526004361061008a5760003560e01c80639254e172116100595780639254e17214610131578063980d38361461016e5780639d481d23146101b2578063f062ba10146101db578063f63f6ee6146102065761008b565b806310d4d5e41461009a5780631edb5c00146100c357806334b8ed52146100ec57806389fe935e146101155761008b565b5b34801561009757600080fd5b50005b3480156100a657600080fd5b506100c160048036038101906100bc9190610834565b61022f565b005b3480156100cf57600080fd5b506100ea60048036038101906100e59190610834565b610233565b005b3480156100f857600080fd5b50610113600480360381019061010e919061080b565b610237565b005b61012f600480360381019061012a91906108ff565b61023a565b005b34801561013d57600080fd5b5061015860048036038101906101539190610870565b6103fe565b6040516101659190610a4e565b60405180910390f35b34801561017a57600080fd5b50610195600480360381019061019091906108ff565b6105b8565b6040516101a9989796959493929190610a69565b60405180910390f35b3480156101be57600080fd5b506101d960048036038101906101d49190610834565b6106c8565b005b3480156101e757600080fd5b506101f06106cc565b6040516101fd9190610b4e565b60405180910390f35b34801561021257600080fd5b5061022d60048036038101906102289190610834565b6106d2565b005b5050565b5050565b50565b806002600082815260200190815260200160002060070160009054906101000a900473ffffffffffffffffffffffffffffffffffffffff1673ffffffffffffffffffffffffffffffffffffffff163373ffffffffffffffffffffffffffffffffffffffff16146102df576040517f08c379a00000000000000000000000000000000000000000000000000000000081526004016102d690610b0e565b60405180910390fd5b816000600260008381526020019081526020016000206005015414610339576040517f08c379a000000000000000000000000000000000000000000000000000000000815260040161033090610b2e565b60405180910390fd5b8260026000828152602001908152602001600020600201543414610392576040517f08c379a000000000000000000000000000000000000000000000000000000000815260040161038990610aee565b60405180910390fd5b346002600086815260200190815260200160002060050160008282546103b89190610c0f565b925050819055507f11d0cd4dfc5cdd45ffbd5e103be88ad523a93e6cbe44de276c5e20248d7d58ee84346040516103f0929190610b69565b60405180910390a150505050565b60006040518061010001604052808781526020016001548152602001868152602001858152602001848152602001600081526020013373ffffffffffffffffffffffffffffffffffffffff1681526020018373ffffffffffffffffffffffffffffffffffffffff16815250600260006001548152602001908152602001600020600082015181600001908051906020019061049a9291906106d6565b506020820151816001015560408201518160020155606082015181600301556080820151816004015560a0820151816005015560c08201518160060160006101000a81548173ffffffffffffffffffffffffffffffffffffffff021916908373ffffffffffffffffffffffffffffffffffffffff16021790555060e08201518160070160006101000a81548173ffffffffffffffffffffffffffffffffffffffff021916908373ffffffffffffffffffffffffffffffffffffffff1602179055509050507f14eb639f00c4a3c8d57535b513c0c64cfe9a462c00ec91a32ba7af233d11476160015460405161058f9190610b4e565b60405180910390a1600180546105a59190610c0f565b6001819055506001905095945050505050565b60026020528060005260406000206000915090508060000180546105db90610cef565b80601f016020809104026020016040519081016040528092919081815260200182805461060790610cef565b80156106545780601f1061062957610100808354040283529160200191610654565b820191906000526020600020905b81548152906001019060200180831161063757829003601f168201915b5050505050908060010154908060020154908060030154908060040154908060050154908060060160009054906101000a900473ffffffffffffffffffffffffffffffffffffffff16908060070160009054906101000a900473ffffffffffffffffffffffffffffffffffffffff16905088565b5050565b60015481565b5050565b8280546106e290610cef565b90600052602060002090601f016020900481019282610704576000855561074b565b82601f1061071d57805160ff191683800117855561074b565b8280016001018555821561074b579182015b8281111561074a57825182559160200191906001019061072f565b5b509050610758919061075c565b5090565b5b8082111561077557600081600090555060010161075d565b5090565b600061078c61078784610bc3565b610b92565b9050828152602081018484840111156107a457600080fd5b6107af848285610cad565b509392505050565b6000813590506107c681610dbf565b92915050565b600082601f8301126107dd57600080fd5b81356107ed848260208601610779565b91505092915050565b60008135905061080581610dd6565b92915050565b60006020828403121561081d57600080fd5b600061082b848285016107b7565b91505092915050565b6000806040838503121561084757600080fd5b6000610855858286016107b7565b9250506020610866858286016107f6565b9150509250929050565b600080600080600060a0868803121561088857600080fd5b600086013567ffffffffffffffff8111156108a257600080fd5b6108ae888289016107cc565b95505060206108bf888289016107f6565b94505060406108d0888289016107f6565b93505060606108e1888289016107f6565b92505060806108f2888289016107b7565b9150509295509295909350565b60006020828403121561091157600080fd5b600061091f848285016107f6565b91505092915050565b61093181610c65565b82525050565b61094081610c77565b82525050565b600061095182610bf3565b61095b8185610bfe565b935061096b818560208601610cbc565b61097481610dae565b840191505092915050565b600061098c600e83610bfe565b91507f4e6f7420656e6f756768204554480000000000000000000000000000000000006000830152602082019050919050565b60006109cc600d83610bfe565b91507f4e6f7420612073747564656e74000000000000000000000000000000000000006000830152602082019050919050565b6000610a0c601583610bfe565b91507f436f7572736520616c72656164792066756e64656400000000000000000000006000830152602082019050919050565b610a4881610ca3565b82525050565b6000602082019050610a636000830184610937565b92915050565b6000610100820190508181036000830152610a84818b610946565b9050610a93602083018a610a3f565b610aa06040830189610a3f565b610aad6060830188610a3f565b610aba6080830187610a3f565b610ac760a0830186610a3f565b610ad460c0830185610928565b610ae160e0830184610928565b9998505050505050505050565b60006020820190508181036000830152610b078161097f565b9050919050565b60006020820190508181036000830152610b27816109bf565b9050919050565b60006020820190508181036000830152610b47816109ff565b9050919050565b6000602082019050610b636000830184610a3f565b92915050565b6000604082019050610b7e6000830185610a3f565b610b8b6020830184610a3f565b9392505050565b6000604051905081810181811067ffffffffffffffff82111715610bb957610bb8610d7f565b5b8060405250919050565b600067ffffffffffffffff821115610bde57610bdd610d7f565b5b601f19601f8301169050602081019050919050565b600081519050919050565b600082825260208201905092915050565b6000610c1a82610ca3565b9150610c2583610ca3565b9250827fffffffffffffffffffffffffffffffffffffffffffffffffffffffffffffffff03821115610c5a57610c59610d21565b5b828201905092915050565b6000610c7082610c83565b9050919050565b60008115159050919050565b600073ffffffffffffffffffffffffffffffffffffffff82169050919050565b6000819050919050565b82818337600083830152505050565b60005b83811015610cda578082015181840152602081019050610cbf565b83811115610ce9576000848401525b50505050565b60006002820490506001821680610d0757607f821691505b60208210811415610d1b57610d1a610d50565b5b50919050565b7f4e487b7100000000000000000000000000000000000000000000000000000000600052601160045260246000fd5b7f4e487b7100000000000000000000000000000000000000000000000000000000600052602260045260246000fd5b7f4e487b7100000000000000000000000000000000000000000000000000000000600052604160045260246000fd5b6000601f19601f8301169050919050565b610dc881610c65565b8114610dd357600080fd5b50565b610ddf81610ca3565b8114610dea57600080fd5b5056fea264697066735822122007c7c8df9acbbede2fdcd7416ea728c6d8fcbe7743bdb744c0700d643b102dc664736f6c63430008000033",
  "immutableReferences": {},
  "source": "// SPDX-License-Identifier: MIT\r\npragma solidity >=0.6 <0.9.0;\r\n\r\n//import \"@openzeppelin/contracts/utils/cryptography/ECDSA.sol\";\r\nimport \"@openzeppelin/contracts/security/ReentrancyGuard.sol\";\r\n\r\ncontract PapaPay is ReentrancyGuard {\r\n  \r\n  //using ECDSA for bytes32;\r\n\r\n  uint public papaCount;\r\n\r\n  mapping (uint => Papa) public papas;\r\n\r\n  bool locked = false;\r\n\r\n  // <struct Item: name, sku, price, state, seller, and buyer>\r\n\r\n  struct Papa {\r\n    // Short description of the contract \r\n    string papaDesc;\r\n    // Course number (unique)\r\n    uint papaCourse;\r\n    // Total price for the course\r\n    uint papaPrice;\r\n    // Amount of lessons\r\n    uint papaLessons;\r\n    // Timelock period in days. After that the student can recover his tokens\r\n    uint papaLock;\r\n    // Balance of Course\r\n    uint papaBalance;\r\n    // Teacher and student addresses\r\n    address papaTutor;\r\n    address papaStudent;\r\n  }\r\n\r\n//\r\n//    EVENTS\r\n//\r\n\r\n  event CourseCreated (uint papaCourse);\r\n  event CourseDeposit (uint papaCourse, uint papaBalance);\r\n\r\n//\r\n//    MODIFIERS\r\n//\r\n\r\n\r\n  modifier isStudent(uint _papaCourse) {\r\n      require(msg.sender == papas[_papaCourse].papaStudent, \"Not a student\");\r\n      _;\r\n  }\r\n\r\n  modifier zeroBalance(uint _papaCourse) {\r\n       require(papas[_papaCourse].papaBalance == 0, \"Course already funded\");\r\n      _;\r\n  }\r\n\r\n  modifier exactBalance(uint _papaCourse) {\r\n       require(msg.value == papas[_papaCourse].papaPrice, \"Not enough ETH\");\r\n      _;\r\n  }\r\n\r\n  constructor()  {\r\n  }\r\n\r\n\t// Tutor creates the course, wich includes number of lessons, total cost, address of student and a time lock\r\n  function papaCreate( string memory _papaDesc, uint _papaPrice, uint _papaLessons, uint _papaLock, address _papaStudent ) \r\n    public \r\n    returns (bool) \r\n    {\r\n      papas[papaCount] = Papa({\r\n        papaDesc: _papaDesc,\r\n        papaCourse: papaCount,\r\n        papaPrice: _papaPrice,\r\n        papaBalance: 0,\r\n        papaLessons: _papaLessons,\r\n        papaLock: _papaLock,\r\n        papaTutor: msg.sender,\r\n        papaStudent: _papaStudent\r\n        });\r\n      emit CourseCreated(papaCount);\r\n      papaCount = papaCount +1;\r\n      return true;\r\n    }\r\n\r\n  // Student approves that contract, the total cost of the course is deducted from student wallet and stored on the contract\r\n  // Pensar requires: msg.value=papaPrice\r\n  function papaApprove(uint _papaCourse)\r\n    external\r\n    payable \r\n    isStudent(_papaCourse) \r\n    zeroBalance(_papaCourse) \r\n    exactBalance(_papaCourse)\r\n    {\r\n      papas[_papaCourse].papaBalance += msg.value;\r\n      emit CourseDeposit(_papaCourse,msg.value);\r\n    }\r\n\r\n  function papaView(address _anyaddress) public view {\r\n\r\n\t// List all courses for any given address\r\n\r\n  }\r\n\r\n  function papaInit(address _tutor, uint _papaCourse) public {\r\n\r\n  // The tutor calls for the start of an individual lesson\r\n\r\n  }\r\n\r\n  function papaAssist(address _student, uint _papaCourse) public {\r\n\r\n  // The student is giving attendance, making possible a partial withdrawn for the teacher\r\n\r\n  }\r\n\r\n  function papaWithdrawn(address _tutor, uint _papaCourse) public {\r\n   // require(!locked, \"Reentrant call detected!\");\r\n   // locked = true;\r\n   // ...\r\n   // locked = false;\r\n  // The teacher can make withdrawns from here\r\n\r\n  }\r\n\r\n  function papaRecover(address _student, uint _papaCourse) public {\r\n\r\n  // If a time lock for unfulfillment is set, after that period of time, the student can recover all of his remaining tokens\r\n\r\n  }\r\n\r\n  fallback () external {\r\n  //  A fallback here\r\n  }\r\n\r\n}\r\n",
  "sourcePath": "D:\\OneDrive\\Code\\papaPay\\contracts\\PapaPay.sol",
  "compiler": {
    "name": "solc",
    "version": "0.8.0+commit.c7dfd78e.Emscripten.clang"
  },
  "schemaVersion": "3.4.3",
  "updatedAt": "2021-11-08T01:07:53.314Z",
  "networkType": "ethereum",
  "devdoc": {
    "kind": "dev",
    "methods": {},
    "version": 1
  },
  "userdoc": {
    "kind": "user",
    "methods": {},
    "version": 1
  }
}